:020000040800F2
:1000000000000120C5020008CB020008CF02000852
:1000100041030008450300088D03000800000000AC
:10002000000000000000000000000000D5030008F0
:10003000D903000800000000DD030008890D000856
:10004000F1030008F1030008F1030008F1030008C0
:10005000F1030008F1030008F1030008F1030008B0
:10006000F1030008F1030008F1030008F1030008A0
:10007000F1030008F1030008F1030008F103000890
:10008000F1030008F1030008F1030008000000007C
:10009000000000000000000000000000F103000864
:1000A000F1030008F1030008F1030008F103000860
:1000B000F1030008F1030008F1030008F103000850
:1000C000F1030008F1030008F1030008F103000840
:1000D000F1030008F1030008F1030008000000002C
:1000E000F1030008F1030008F1030008000000001C
:1000F000000000000000000000000000F103000804
:1001000000000000F1030008F1030008F1030008FB
:1001100000000000000000000000000000000000DF
:10012000F1030008F1030008F1030008F1030008DF
:10013000F1030008000000000000000000000000C3
:10014000000000000000000000000000F1030008B3
:10015000F1030008F1030008F1030008F1030008AF
:10016000F1030008F1030008000000000000000097
:10017000000000000000000000000000000000007F
:1001800000000000F1030008000000000000000073
:10019000F103000800B583B000F0BAF9384B394AD2
:1001A0001360394A1360394900E02146384B9942BF
:1001B0000BD20A684B6801F10C0488689842F4D9A4
:1001C0001168196004330432F8E72E4B1A68314B7A
:1001D0009A4200D0FEE72C4B1A682F4B9A42F9D175
:1001E000274B2E4A13602E4A13602E4B05E0002049
:1001F000106004329342FAD80B462B4A934204D241
:10020000194651F8082B5B68F4E7244B1B6813B9B7
:10021000234B1B6803B1FEE700F086F9694601A88D
:1002200000F022F9214C224BE41AA4100025AC4224
:1002300014DC204C204BE41AA4100025AC4213DC43
:100240000099019800F050FE05461C4C1C4BE41A26
:10025000A410002C0EDC284600F0E2F8144B53F8F2
:10026000253098470135E2E7134B53F8253098477E
:100270000135E3E7013C124B53F824309847E8E797
:10028000BABADECA00000020A4000020F40300086F
:100290000C0400087856341232547698A8000020D6
:1002A0004C0100200C0400081C0400081C04000879
:1002B0001C0400081C0400081C0400081C0400089E
:1002C0001C04000808B5FFF765FF00BEFEE71EF03E
:1002D000040F0CBFEFF30880EFF309807146414A29
:1002E00010472DE9F04182B004468846124B5E6B00
:1002F0009F6B9D6A1B6B13F0020F03D00E4BDB6AE2
:10030000002B0CDB0D4800F0B7F8CDF800803B4621
:1003100032462946204600F00BF900BEFEE74BF6B8
:10032000AB6100F07FF90028ECD0034B4FF00042A6
:10033000DA6202B0BDE8F08100ED00E024190008A7
:1003400000BEFEE71EF0040F0CBFEFF30880EFF3D2
:1003500009807146244A10472DE9F04182B00446D5
:100360008846084B5E6B9F6B9D6A074800F084F8D7
:10037000CDF800803B4632462946204600F0D8F8AA
:1003800000BEFEE700ED00E0341900081EF0040F87
:100390000CBFEFF30880EFF309807146134A104752
:1003A0002DE9F04182B004468846084B5E6B9F6B96
:1003B0009D6A074800F060F8CDF800803B46324661
:1003C0002946204600F0B4F800BEFEE700ED00E04C
:1003D0004019000800BEFEE700BEFEE700BEFEE7D3
:1003E00070470000E302000859030008A103000859
:0403F00000BEFEE766
:1003F40094B9000800000020A800002094B9000867
:100404000000001000000010A8000020500100208F
:080414000000001000000010C0
:10042000FEE7000008B503460C4A12685AB10B4AB1
:100430001068033323F003030344094A934206D8A8
:10044000064A136008BD054A06491160EFE700F04F
:1004500065FD0C2303604FF0FF30F3E7AC00002094
:1004600000FC00205001002001230360014B0B60C1
:10047000704700BF040000200FB400B583B004AB88
:1004800053F8042B01938021064800F079FD0028E1
:1004900003DD0146034800F037F803B05DF804EBD4
:1004A00004B07047B40000202DE9F04385B0044645
:1004B0000F4643560BB10E461EE004252846214642
:1004C000ABBE0446384605B0BDE8F08314F9011B05
:1004D00004AA1A4402F8101C0133AB42F6D304AA52
:1004E0001344002203F8102C4FF00408E94640465C
:1004F0004946ABBE8046761B002EE3D03546102E13
:1005000028BF10250023E8E708B5FFF7CDFF08BD99
:1005100008B500F097F8024A024B9A6008BD00BF88
:100520000000000800ED00E008B500F0ABF808BDE1
:10053000F8B504460D4617461E462748FFF79CFFB0
:1005400021682648FFF798FF61682548FFF794FF68
:10055000A1682448FFF790FFE1682348FFF78CFF6C
:1005600021692248FFF788FF61692148FFF784FF6E
:10057000A1692048FFF780FFE1691F48FFF77CFF72
:100580001E48FFF779FF29461D48FFF775FF1D4CF0
:10059000E16A1D48FFF770FF216B1C48FFF76CFFF5
:1005A000E16B1B48FFF768FF15F0800F0AD115F4C7
:1005B000004F0CD11748FFF75FFF06991648FFF769
:1005C0005BFFF8BD39461548FFF756FFEFE73146A8
:1005D0001348FFF751FFEDE7081800081818000846
:1005E000281800083818000848180008581800088B
:1005F000681800087818000888180008981800087B
:10060000A418000800ED00E0B4180008C4180008A1
:10061000D4180008041900080C190008E418000890
:10062000F418000883691A888A4201D000207047B4
:100630000268033A012A03D802338361012070471C
:10064000002070470C4B1A6842F001021A6000212A
:1006500099601A6822F0847222F480321A60074A84
:100660005A601A6822F480221A60D960044B4FF055
:1006700000629A60704700BF0038024010300024CA
:1006800000ED00E0224B9B6803F00C03042B14D018
:10069000082B16D01BB11F4B1F4A1A6002E01D4BDE
:1006A0001D4A1A601A4B9B68C3F303131B4AD15CA3
:1006B000184A1368CB4013607047164B184A1A60EB
:1006C000F0E7134B5A685B6803F03F0312F4800FA6
:1006D00013D0134AB2FBF3F20D4B5B68C3F38813DC
:1006E00003FB02F30A4A5268C2F30142013252008C
:1006F000B3FBF2F3074A1360D4E7074AB2FBF3F205
:10070000034B5B68C3F3881303FB02F3EAE700BF04
:10071000003802400C0000200024F40050190008AA
:10072000A0252600FEE700000023052B00F29B8198
:1007300070B446E0C3EBC300A9490144897802299B
:1007400000F08580C3EBC301A54801444D786D00DE
:10075000032000FA05F5A34C206820EA050020607C
:100760008D784E787600B54028432060C978782986
:1007700000F0A380C3EBC30299490A445478640093
:10078000012000FA04F49749486820EA0400486010
:10079000D4785578AC40204348605478032000FA60
:1007A00004F4886820EA04008860147952785200C2
:1007B00004FA02F2104388600133DBB2052B00F229
:1007C0005081C3EBC3018648415C012900F0918050
:1007D0000029AFD00229EFD1C3EBC3018048014407
:1007E0004D786D00032000FA05F57F4C206820EA63
:1007F000050020608D784E787600B5402843206053
:10080000C978782900F01081C3EBC30274490A4407
:100810005478012000FA04F47349486820EA04007F
:100820004860D4785578AC402043486054786400E0
:10083000032000FA04F4886820EA04008860147930
:100840005278520004FA02F210438860B4E701467D
:10085000634801444D786D00032000FA05F5614CB2
:10086000206820EA050020608D784E787600B5403B
:1008700028432060497807290BD8C3EBC3025848A6
:1008800002449279890002FA01F1226A0A43226243
:1008900092E7A1F10800C0B207288DD8C3EBC302CC
:1008A0004F480244927901F00701890002FA01F1F0
:1008B0004C48426A0A4342627EE7C3EBC3004849A0
:1008C0000144497978293FF477AF454901444C7890
:1008D0006400032202FA04F44248C26822EA0402D5
:1008E000C2604C794978490004FA01F10A43C260B8
:1008F00062E7C3EBC3003A4901448978022939D041
:10090000C3EBC301364801444D786D00032000FA63
:1009100005F5364C206820EA050020608D784E7879
:100920007600B54028432060C978782960D0C3EBB1
:10093000C3022B490A445478012000FA04F42B49DD
:10094000486820EA04004860D4785578AC402043D9
:10095000486054786400032000FA04F4886820EAB0
:100960000400886014795278520004FA02F21043AD
:10097000886021E7C3EBC301194801444D786D003D
:10098000032000FA05F5194C206820EA05002060D4
:100990008D784E787600B540284320604978062946
:1009A0000BD8C3EBC3020E4802449279890002FAC5
:1009B00001F1226A0A432262FEE6C81FC0B206287D
:1009C0003FF6FAAEC3EBC3020548024492798900B0
:1009D00002FA01F10548426A0A434262ECE600BFAE
:1009E0001000002000000240000802400004024005
:1009F000C3EBC3001C490144497978293FF4DCAEBC
:100A0000194901444C786400032202FA04F417489F
:100A1000C26822EA0402C2604C794978490004FAAB
:100A200001F10A43C260C7E6C3EBC3000E490144AB
:100A3000497978293FF4C0AE02460B490A445478FC
:100A40006400032101FA04F40948C16821EA0401A1
:100A5000C16054795278520004FA02F21143C16025
:100A6000AAE670BC704770471000002000040240E6
:100A7000000802400F292BD810B4012810D018B15B
:100A8000022819D010BC7047012303FA01F0114C61
:100A9000636923EA000302FA01F119436161F1E796
:100AA000012303FA01F00C4C636923EA000302FA04
:100AB00001F119436161E5E7012303FA01F0074CF5
:100AC000636923EA000302FA01F119436161D9E77E
:100AD000704700BF000002400004024000080240CE
:100AE000064A136843F00103136013F0020FFCD0B1
:100AF000034A136843F080031360704700380240D4
:100B00000838024008B5012815D0032858D0042819
:100B100040F0FD8015390A2900F2F380DFE811F07A
:100B2000AF00B500BB00C100C700CD00D300D900A5
:100B3000DF00E500EB0008293CD8DFE801F0050BF9
:100B400011171D23292F3500744A136843F0010340
:100B50001360E1E0714A136843F002031360DBE0C5
:100B60006E4A136843F004031360D5E06B4A1368C0
:100B700043F008031360CFE0684A136843F01003A2
:100B80001360C9E0654A136843F080031360C3E053
:100B9000624A136843F480531360BDE05F4A1368F0
:100BA00043F400131360B7E05C4A136843F4800316
:100BB0001360B1E0032201210020FFF7B3FDABE099
:100BC0000939172955D8DFE801F00C12181E242A1C
:100BD00054363C42484E545454545454545454542F
:100BE00054304F4A136843F00103136094E04C4AB9
:100BF000136843F0020313608EE0494A136843F020
:100C00000403136088E0464A136843F00803136046
:100C100082E0434A136843F4006313607CE0404A77
:100C2000136843F48043136076E03D4A136843F44D
:100C30000043136070E03A4A136843F400331360D2
:100C40006AE0374A136843F40013136064E0344ADF
:100C5000136843F4800313605EE0314A136843F481
:100C60000003136058E02E4A136843F0805313606A
:100C700052E0032201210020FFF754FD4CE0294AF5
:100C8000136843F00103136046E0264A136843F0FB
:100C90001003136040E0234A136843F020031360FD
:100CA0003AE0204A136843F48073136034E01D4A2D
:100CB000136843F4006313602EE01A4A136843F488
:100CC0008053136028E0174A136843F400531360FD
:100CD00022E0144A136843F4804313601CE0114A75
:100CE000136843F48033136016E00E4A136843F42C
:100CF0000033136010E00B4A136843F48023136041
:100D00000AE0032201210020FFF70CFD04E002228B
:100D100001210020FFF706FD08BD00BF303802406A
:100D20004038024044380240024B40F247321A60D9
:100D3000704700BF00300140034BD860024B9B68F6
:100D400013F0800FFAD1704700300140024B1A684F
:100D50006FF382021A60704710E000E0094B002236
:100D60001A609A6058601A6842F001021A60054BD6
:100D70001B6813F4803FFAD0024B1A686FF31042DD
:100D80001A60704710E000E008B50E4B1B680E4A71
:100D90001268934211D10D4B1B689847094B0122F1
:100DA0001A600B4B1B78DBB2934200D008BD094B95
:100DB00000221A605A609A60F8E70133014A136012
:100DC000F4E700BF3C00002044010020480100205F
:100DD0004001002010E000E010B50446002211465A
:100DE0001046FFF747FE2046FFF7A6FF10BD10B5DF
:100DF0000446012200210846FFF73CFE2046FFF78B
:100E00009BFF10BD08B5012211460020FFF732FEFE
:100E10006420FFF7A3FF002201211046FFF72AFEFE
:100E20000220FFF79BFF012211460020FFF722FE60
:100E30006420FFF793FF002201211046FFF71AFEFE
:100E40006420FFF78BFF012211460020FFF712FEFE
:100E50000948FFF783FF1120FFF7BEFF0748FFF7A0
:100E60007DFF3A20FFF7B8FF0520FFF7C0FF2920DC
:100E7000FFF7B2FF08BD00BFC0D40100F049020077
:100E800038B505462A20FFF7A7FF0020FFF7AFFF80
:100E90000020FFF7ACFF0020FFF7A9FF7F20FFF73E
:100EA000A6FF2B20FFF798FF0020FFF7A0FF0020F0
:100EB000FFF79DFF0020FFF79AFF9F20FFF797FFA6
:100EC0002C20FFF789FF00240AE035F81400000AFF
:100ED000FFF78DFF15F81400FFF789FF0134A4B266
:100EE000B4F5A04FF1D338BD08B5FFF7F9FD0021E7
:100EF0000120FFF707FE1A210420FFF703FEFFF78A
:100F000013FCFFF723FFFFF70FFFFFF77BFF0248FC
:100F1000FFF7B6FFFEE700BF60190008014B186835
:100F2000704700BF4000002030B5141E05469BB03E
:100F3000184605DA8B232B604FF0FF301BB030BD15
:100F40004FF40273ADF80C3014BF04F1FF332346A5
:100F5000029305934FF6FF7300910491ADF80E30A4
:100F600002461E9B6946284600F072F8431CBCBF2F
:100F70008B232B60002CE1D0009B00221A70DDE750
:100F800007B5009313460A46014603480068FFF779
:100F9000CBFF03B05DF804FB400000202DE9F047D3
:100FA0008E689E4282460C469046994637D88A897A
:100FB00012F4906F31D0256809696F1A65690223B0
:100FC00005EB450595FBF3F509F101033B449D4213
:100FD00038BF1D46530530D5294600F07BFB064639
:100FE00050B90C23CAF80030A38943F04003A38111
:100FF0004FF0FF30BDE8F0873A46216900F0F8FA7B
:10100000A38923F4906343F08003A3812661656183
:101010003E44ED1B2660A5604E464E4500D94E4627
:1010200032464146206800F0EEFAA3689B1BA3609D
:1010300023681E4426600020DCE72A4600F0A4FB5B
:1010400006460028E2D12169504600F0F5FAC8E7CB
:101050002DE9F04F9DB0804603938B891D060C4609
:1010600016460FD50B696BB9402100F033FB2060A9
:10107000206128B90C23C8F800304FF0FF30C7E0DA
:10108000402363610023099320238DF82930302306
:101090008DF82A304FF0010B37463D4615F8013BDD
:1010A0000BB1252B3ED1B7EB060A0BD05346324687
:1010B00021464046FFF772FF013000F0A480099BF3
:1010C000534409933B78002B00F09D8000234FF0A0
:1010D000FF32CDE90523049307938DF853301A931B
:1010E0002F46052217F8011B4F4800F031FA049BE8
:1010F000D0B9D90644BF20228DF853201A0744BF27
:101100002B228DF853202A782A2A15D0079A2F46A9
:1011100000200A25394611F8013B303B092B4DD9F7
:10112000B8B10FE02F46B8E73F4A801A0BFA00F03B
:10113000184304903D46D3E7039A111D12680391AA
:10114000002A01DB079204E0524243F002030792B7
:1011500004933B782E2B0CD17B782A2B33D1039B25
:101160001A1D1B680392002BB8BF4FF0FF330237E4
:1011700005932E4D39780322284600F0E9F938B15D
:101180004023401B03FA00F0049B03430137049300
:10119000397827488DF8281006227E1C00F0D8F9EF
:1011A000002838D0234B13BB039B073323F00703DE
:1011B00008330393099B4B4409936DE705FB023207
:1011C00001200F46A6E700230137059319460A259B
:1011D000384610F8012B303A092A03D9002BC8D021
:1011E0000591C6E705FB012101230746F0E703ABA4
:1011F00000932246104B04A94046AFF30080B0F1A3
:10120000FF3F8146D6D1A3895B063FF536AF0998EB
:101210001DB0BDE8F08F03AB00932246064B04A936
:10122000404600F081F8EAE760B9000866B90008B6
:101230006AB90008000000009D0F00082DE9F04782
:1012400091461F468A680B69DDF820809342B8BF3B
:101250001346C9F8003091F8432006460C4612B1F7
:101260000133C9F800302368990642BFD9F800302D
:101270000233C9F80030256815F0060507D104F1DE
:10128000190AE368D9F800209B1AAB4228DC94F8CD
:1012900043302268003318BF012392062DD404F195
:1012A000430239463046C047013020D02368E56804
:1012B000D9F8002003F00603042B08BFAD1AA36879
:1012C00022690CBF25EAE57500259342C4BF9B1A2D
:1012D000ED184FF000091A344D451AD1002008E0EE
:1012E0000123524639463046C047013003D14FF002
:1012F000FF30BDE8F0870135C3E7E1185A1C302004
:1013000081F84300224494F8451082F843100233D8
:10131000C5E70123224639463046C0470130E6D0B2
:1013200009F10109D8E700002DE9F04301F1430C70
:101330000C46097E85B06E291746064698460C9ADB
:1013400000F0B38022D8632936D00AD8002900F0F3
:10135000B980582900F0838004F1420584F84210D6
:1013600032E0642901D06929F6D1206813680506A6
:1013700003F104012AD51B681160002B03DA2D222A
:101380005B4284F843206F480A2239E0732900F059
:101390009D8008D86F2920D07029DDD1236843F0C3
:1013A0002003236003E0752917D07829D4D178234E
:1013B00084F84530644855E01368191D1B681160B6
:1013C00004F1420584F8423001238CE01B6811606F
:1013D00010F0400F18BF1BB2CFE713682568181D27
:1013E0001060280601D51B6802E06806FBD51B8843
:1013F00054486F2914BF0A220822002184F84310A0
:101400006568A560002DC0F29580216821F0040177
:101410002160002B3DD1002D40F08E806546082ACA
:101420000BD12368DB0708D5236962689A42DEBFC7
:10143000302305F8013C05F1FF35ACEB05032361D2
:10144000CDF800803B4603AA21463046FFF7F6FE62
:1014500001304DD14FF0FF3005B0BDE8F083394881
:1014600084F84510136821681D1D1B6815600A0665
:101470000BD5CA0744BF41F0200121601BB9226887
:1014800022F0200222601022B7E74D0648BF9BB22F
:10149000EFE76546B3FBF2F102FB1133C35C05F8DD
:1014A000013D0B460029F5D1B9E71368256861694C
:1014B000181D106028061B6801D5196002E06A0635
:1014C000FBD51980002323616546B9E71368191D10
:1014D00011601D6862680021284600F039F808B1E3
:1014E000401B606063682361002384F84330A7E7F2
:1014F00023692A4639463046C0470130AAD02368BE
:101500009B0713D4E068039B9842B8BF1846A3E733
:1015100001234A4639463046C04701309AD001354A
:10152000E368039A9B1AAB42F2DCEBE7002504F177
:101530001909F5E7002BACD1037884F8423004F1A7
:1015400042056CE771B9000882B90008000000008C
:1015500001F0FF01102A2BDB10F0070F08D010F864
:10156000013B013A8B422DD010F0070F42B3F6D168
:10157000F0B441EA012141EA014122F007047FF081
:1015800000070023F0E80256083C85EA010586EAD8
:10159000010685FA47F5A3FA87F586FA47F6A5FA14
:1015A00087F68EB9EED1F0BC01F0FF0102F0070220
:1015B00032B110F8013B013A83EA010313B1F8D1CB
:1015C0000020704701387047002D06BF35460338AC
:1015D000073815F0010F07D1013015F4807F02BFE5
:1015E000013015F4C03F0130F0BC0138704700BF36
:1015F00010B5431E0A44914200D110BD11F8014BB1
:1016000003F8014FF7E7884210B501EB020307D852
:10161000421E99420AD011F8014B02F8014FF8E737
:101620008342F5D98118D21AD34200D110BD13F8E4
:10163000014D01F8014DF7E738B50546002945D0C1
:1016400051F8043C0C1F002BB8BFE41800F0D2F88E
:101650001F4A1368104633B9636014602846BDE81A
:10166000384000F0C8B8A3420CD9216862189342F0
:1016700004BF1A685B68636004BF5218226004608C
:10168000ECE713465A680AB1A242FAD91968581809
:10169000A0420BD120680144581882421960DDD164
:1016A000106852685A6001441960D7E702D90C23C8
:1016B0002B60D3E7206821188A4204BF1168526862
:1016C000626004BF091821605C60C7E738BD00BFD5
:1016D0003401002070B5CD1C25F0030508350C2D14
:1016E00038BF0C25002D064601DBA94203D90C2387
:1016F0003360002070BD00F07DF8214A1468214657
:1017000091B9204C23681BB9304600F063F8206083
:101710002946304600F05EF8431C24D10C23336088
:10172000304600F068F8E4E70B685B1B18D40B2B1D
:101730000FD90B60CD50CC18304600F05CF804F1A6
:101740000B00231D20F00700C31AD3D05A42E250E9
:10175000D0E78C424B6816BF636013600C46EBE722
:101760000C464968CCE7C41C24F00304A04205D011
:10177000211A304600F02EF80130CFD02560DBE78B
:101780003401002038010020F8B5074614460E4603
:1017900021B91146BDE8F840FFF79CBF22B9FFF719
:1017A0004BFF25462846F8BD00F026F8A0420FD290
:1017B00021463846FFF78EFF05460028F2D0314615
:1017C0002246FFF715FF31463846FFF735FFE9E7B8
:1017D0003546E7E738B5064C002305460846236042
:1017E000FEF720FE431C02D1236803B12B6038BDF5
:1017F0003C0100207047704751F8043C181F002B33
:10180000BCBF0B58C0187047537461636B2066727D
:10181000616D653A0A000000205230203D202025ED
:101820003038580A00000000205231203D20202589
:101830003038580A00000000205232203D20202578
:101840003038580A00000000205233203D20202567
:101850003038580A0000000020523132203D202547
:101860003038580A00000000204C52203D2020252E
:101870003038580A00000000205043203D20202529
:101880003038580A0000000020505352203D2025D7
:101890003038580A000000004653522F4641523A51
:1018A0000A0000002043465352203D2020253038B6
:1018B000580A00002048465352203D202025303849
:1018C000580A00002044465352203D20202530383D
:1018D000580A00002041465352203D202025303830
:1018E000580A0000204D4D464152203D20253038F9
:1018F000580A00002042464152203D202025303821
:10190000580A00004D6973630A000000204C522FF2
:101910004558435F52455455524E3D202530385866
:101920000A0000005B486172644661756C745D0A70
:10193000000000005B4275734661756C745D0A00BF
:101940005B55736167654661756C745D0A000000E4
:10195000000000000000000001020304060708095F
:10196000B29434A58A520000200082104108410838
:10197000C318042100008210200041088210610871
:101980004108410820000000821041080000821038
:10199000A6316108A210000061084108610820001A
:1019A00041082100200020002000000028420842B9
:1019B0000000A2102000400061082000410000004B
:1019C0002000620820002000E73962082100410859
:1019D00041088210200020004108610861080000D1
:1019E000A2108629652944210000610820006108B1
:1019F00081082000200061086529C21061084108A3
:101A00004100200061082000410820006108E3181F
:101A1000A2100000200041080000210062104108CF
:101A20004108000020006108410820004108200012
:101A300020004108410800008210042120006108B4
:101A4000200061082000410800000000A2102000D2
:101A5000410820006108610820008A52D39CF39C51
:101A6000518C14A54D6B494A28424529694A863153
:101A7000AA52694A2842E739494AC73965292421C7
:101A8000C7396529694AE7394529E739494A652946
:101A90008631242104218A52863186318631494A91
:101AA0008631494AA631E739494A0421EC5ACB5AD2
:101AB000A631E318C739C731E739C7392842084288
:101AC000662965290842863165296529C739A63105
:101AD00086316529694A0842C739242107420742ED
:101AE0002842E7394529494AE739E739694AC3189D
:101AF0006529694A2842042186310421452965293E
:101B0000A6318A4A6529A6310842C73924210C63C7
:101B100028420842E7390842284208420421A631F7
:101B20008631494AC739242186318631C739E73998
:101B3000C739C739E73928428A520C636529A6316B
:101B4000E73945292842E739494A694A452928425F
:101B5000084208422842C73945296D6B55ADB294F9
:101B6000F39CF39C308428428A52E7398A52EF7BF7
:101B7000EB5A4D6B6D6B0C634D6BEB5A65298A52BA
:101B80008A52CB5A2C638E732C63AA524D6B284217
:101B90006529AA52694AAE73CB5AC7392842694AA5
:101BA000AF7B0842494A2C63CF7BAA524D6B8E73A0
:101BB000CB5AE739AE738E73CB522C638A520C63C7
:101BC0000C63EB5ACF7B494A4529E739F07B8E738A
:101BD0008A5208420842EF7BCB5AA631EB5A2C635B
:101BE0000C63CB5A6529AE73CB5A4D6B4D6BE739FD
:101BF000C7398A52108486314529494A08422C63E4
:101C0000AA528E734D6BEB5AAA526D6BA6312C63A0
:101C10004D6B4D6B0C634D6B2C630C63C7394D6B77
:101C2000EB5AEB5A4D6B2421CF7B6D6BCF7B2C6332
:101C30003084CB5A494A4D6BEB5A2C632C636D6B45
:101C4000EB5A4D6B2C634D6B084210848A52AA529A
:101C50002842AA520C634D6BEB5A108434A5718C48
:101C60009294B29CEF838A52CB5A0842AA5AAB5A3A
:101C70008A52494A294A8A520842EB62C739EB62C2
:101C8000E841CB5AE8410842694AE7416A52A7391C
:101C90004529694A6D730842CB5A6A52284A8A52CA
:101CA0000842284A6D73C739084269522842AA522D
:101CB000C739C7398E738A52AA528A52E739694A9C
:101CC0006A4AAB52494AE7396529694A4D6B8A52DB
:101CD00008428631E7390842AA5245294D6BE73957
:101CE000E739A6318631A631694A86310842A631E4
:101CF000C739E7392842E73904218A52694A28421C
:101D0000494AC7398A522842E739694A6529694AE6
:101D10008631C739494A0C636A52294A2429A739AE
:101D20002842494AEC62E739A631494AE739294A4B
:101D300028422421E7410842A6316A528A52494A80
:101D40008A526952494A0842E8412842CB5A08421D
:101D50002421284A284A494AAA528E73D39CB39C0C
:101D6000718C14A58A52E3202429A21886314108D7
:101D700000000000000020008210E3208210863165
:101D8000E3182108200041088210000000006110C3
:101D9000242145290421000061086108C318252970
:101DA00000006110C3180000610820080000000056
:101DB0004108E318C31882106108E31800004108C5
:101DC0000000210800000000E420C318252982102B
:101DD000000020088210000000008210C3180000DC
:101DE00020002000000000006108200000006108C1
:101DF0004108000020006108E318C318C7396108D2
:101E000000000000200000006108000020004108E0
:101E10004108200020006110000041084108000036
:101E2000E3182108C3184108000020080000000042
:101E3000000082104108000020002000410800003E
:101E40002008410800004108410841082000821094
:101E500041082000611061080000695276B5B29413
:101E6000518C14A54D6BA639E841C739A639C7393D
:101E7000E741A639284A284AA7396531A73986316A
:101E80008631A639E7418631A639C739C739863147
:101E9000863104218631C7396531A6396531452936
:101EA0006531A639A631863165292421A6396529EF
:101EB000042145290421452965296529863165299B
:101EC00086318631863186314529452904214529C7
:101ED000863165294529A6394529652904214529E1
:101EE0006529652945296529652986316529452999
:101EF00065296529863165292421863104216529D2
:101F00006529C739A6312421863186318631452994
:101F1000663186316529652966316531C739653194
:101F2000452986318631C739C739A631E739A63107
:101F3000A63186318631E739E741084286310842C9
:101F4000A639E741E741E741A739E841C739C73931
:101F5000C739E741C7398631E7414D6B14A5B39CBA
:101F6000B29CB39C14A5F3A4B39C929434AD14A575
:101F7000F4A4F3A492949294B29CB29CB39CB29CAD
:101F8000B29CD39C518C7194D39C518CB29CB39CC9
:101F90007194518C318CB29C308C308C9294EF8344
:101FA0001084518CEF83AE7BCF7BCF7B6D6BEF7B4F
:101FB000CF7BEF838E7310848E738E738E73AE73AC
:101FC000CF7B6E73CF7B8E73CF7B8E738E736E736E
:101FD0008E73AF732D6BAE7B8E734D6B4D6B6D6BD4
:101FE0008E736D6B8E73AE736E6B6E738E732D6BA3
:101FF0004D6B8E736D6B4D6B8E73AE734D6B8E73BD
:1020000010848E73AF738E736D6BCF7BCF7B3084F8
:10201000CF7BCF7BEF83EF831084EF83518C518C88
:10202000CF7B318C1084518C7194308C518C308CDE
:102030009294D39C518CB29C92949294F4A49294D6
:10204000F3A49294B29CF4A4D39CB29C35ADD39CDF
:1020500034AD34AD34AD14A534ADD39CF4A4B29CEE
:10206000B29C7194F3A472949294B29CB29C7194B9
:1020700072949294929471947294518C7194318C64
:10208000B29C518C518C1084518C308C1084EF8315
:10209000CF7BF083CF7BAF7BAE7BEF836E736E73B2
:1020A0006E736D736D73AE7B4D6BAF7B6E736D6BCB
:1020B0008E736E732D6B0C634D6B2C63EC622D6312
:1020C0002C634D6B0C63EB5A0C63CB5A2D6BAB5AE4
:1020D000CB5A8A52CB5AAB5ACB5ACB5AAB5A0C6317
:1020E000EB5AAA524D6BEC62EC620C63CB5AEB5A82
:1020F000CB5AEC62EB5AEC622D63CB5A4D6B0C63FE
:10210000EC5A8E734D6B2D632D634D6B6D6B4D6B68
:10211000CF7BEC622D6B8E736D73AE7BEF83EF83A1
:10212000EF838E731084CF7BEF83108410847194BF
:102130001084518C518C7194D39C308C518C92941E
:10214000B39CB29CB29C7194B39CB39CB29CB39C64
:102150009294B29CB29C7194B29C9294D39CD39C66
:10216000B29CB29C7294B29C9294B29CB29C7194B8
:1021700092949294B29C9294B29C7194518C518C92
:102180001084108410847294518C518CF0831084CC
:102190001084EF83CF7BCF7BEF831084CF7B6D7375
:1021A0006D738E738E734D6B4D6B6D736D6B0C63B6
:1021B000CB5ACB5ACB5ACB5ACB5ACB5ACB5AAB5A17
:1021C000AB52CB5ACB5AAB528B52AB5AAB5A8A5208
:1021D0008B528A528A526A4A6A4A6A52494A494A20
:1021E00029426A4A8A526A4A494A6A4A8A52494A8A
:1021F0008A528B528B528B52AB52AB52AB528A5299
:10220000AB52EC5AEC5ACB5ACB5AEB5AEC5A0C6301
:102210006E736D6B6D6B8E738E73AE73AE73AE7BC0
:10222000EF838E73CF7BEF831084CF7B1084108479
:102230001084308C1084518C308C518C518CB29C19
:10224000929492949294B39CD39CF3A4B39C729472
:102250009294B39CB29C14A5F4A471947294929439
:10226000B39CD39CB29CF3A4D39CF3A4D39CB29C08
:10227000729492949294B29C7194518C518C7194FA
:10228000518C719492947194308CEF83EF8310840D
:10229000F083EF83EF83CF7BCF7BAE7B6D732C6BB3
:1022A0002D6B2D6B2C6B0C63EC62EC62EC5ACB5AF1
:1022B000CB5A8A526A528A528A526A4A494A4A4ACE
:1022C000494A4A4A494A294209422942294A294255
:1022D000294A2942294A094208420942E841E8417B
:1022E000E839E8390842E841C739E839E839E839D6
:1022F00008420842084209422942494A494A494A91
:1023000029424A4A6A4A4A4A6A528A52AB52EB5AAC
:10231000EC5AEB5AEC5A0C632D6B4D6B4D6B4D6BBD
:102320008E736D73AF7BCF7BCF7BAF7B1084308C94
:1023300010841084308C10849294719492949294AE
:1023400071947194719472949294B29CB29C929490
:1023500092949294B29CB29C929471947194B29C17
:10236000B29CB29C9294D39C9294B29CB29C929454
:102370009294B29CB29CD39C7294929471949294D5
:102380009294518C318CF083308CEF831084CF7B0E
:10239000CF7BAF7BAE7B8E736D736D736D734D6B47
:1023A0002C6BEB62CB5ACB5AAB5A8A526A4A6A52AE
:1023B000AB52494A294229422942E841E8390842B8
:1023C000E839E839E839C839C739C739C739C839A8
:1023D000A739A739C839A739A731C839A731A731D3
:1023E000A7318731A731A7318731863187318731CE
:1023F000A731A731A731A731A731C739C839E83983
:10240000E839E839E839E8390942094229426A4A93
:10241000494A4A4A8A52AA52CB5ACB5AEC620C63B6
:102420002C634D6B6E736E73AF7BAE7BEF7BF08373
:10243000AF7BCF7B1084F083718C518C718C518C6D
:1024400092947194929492947294B29CB39C92944C
:10245000729471949294518C518C7194318C9294A9
:10246000B29C9294518C7294318C318C518C518CE1
:10247000729472947194929471947194318C318CA1
:10248000308C308C308CEF83EF83EF83108410849A
:10249000F083CF7B8E736D736D736D734D6B0C63B7
:1024A000EC62AB5A8A528A526A4A2942084208426E
:1024B0002942E839C739C839E839C739A731A731BE
:1024C000A73187318731A731A7318731663187310D
:1024D0004629662987316629662966314629662993
:1024E000662966296629662966296629873166294B
:1024F00066298731873166296629662987318731C0
:10250000A731873187318731A731A731A731E83922
:10251000E83908422942494A6A4A6A52AA52CB5AC1
:102520000C632C6B4D6B4D6BAE7BCF7BAE7BAE7378
:102530006E73CF7BCF7B10841084518C3084518C90
:10254000929471949294B29C719471947294518CFF
:10255000729471947194308C518C7194318C518C33
:10256000D39CB29C518C9294518C518C518C518C37
:102570007194518C518C518C518C308C308C308CAE
:10258000518C518C308C308CF083108410841084EA
:10259000CF7BCF7BAE7BAE7B8E736D732C6BCB5AB8
:1025A000AB526A52494A28420842E839C739A73132
:1025B000A7318731863186318731873166314629A7
:1025C000462946294629462946292521252126210D
:1025D000052105212621252105212521052105216A
:1025E00005210521252125212521462946290521C9
:1025F0002521262126212621262126214629462954
:1026000046292621262146296629662966298631FA
:10261000A731C731E8390842084229424A4A8A525A
:10262000CB5A0C630C632C6B8E73CF7BAE73AE7383
:10263000CF7BF083EF7B10841084518C318C718CB4
:1026400092949294B29CB29C92947194518C308CDE
:10265000518C7294318C518C9294D39CD39CB29CAB
:10266000D39C92947194D39CB29C929472947194E2
:10267000729471949294518C518C308C7194929488
:102680009294518C1084308C308C518CF083CF7BA1
:10269000AE7BAE7BAE7B8E734D6B2C6BEB62AB5A1D
:1026A0006A52494A2842E839C839C739A7316629E8
:1026B000662966296629462946294629462905218B
:1026C00025210521052105210521E518E51805210C
:1026D000C418C418E518E518E518E518C418C41896
:1026E000C418C418E418E418C418E518E518C41888
:1026F000E418E418E5180521052105210521052127
:1027000005190519051925214621262125214629C6
:1027100066298629A731C739C839E83929424A4A82
:10272000694ACB5ACB5A0C630C636D6B8E73CF7BAB
:10273000EF7BEF7BEF7BCF7B518C518C718C929434
:10274000929492949294929492947194518C518C0C
:10275000308C7194318C7294B39C92947194F08308
:10276000B29C7294518CB29C929492947294719493
:102770007294718C518C518C518C318C518C718C28
:10278000308C318C318C318CF083CF7BCF7BF083DC
:10279000EF7BCF7B8E734D6B0C63CB5A8A52494AC9
:1027A000494A2942E839C739C739A731863146290C
:1027B0004629462925210521052105210521E51860
:1027C0000521E518E418C418C418C418C418C4189E
:1027D000A410A410C418A410A410C4188410841049
:1027E000A410A410A410A410A410A410A410A41049
:1027F000C410A410A410C410C418C410C410C41071
:10280000C418E518E518E518051905190519052175
:102810002521462966298631A731C731E839294261
:102820002842694A8A52EB5ACB5A4D6B6D6BAE7394
:10283000AE73AE73CF7BAE73EF7BCF7B1084718CA6
:10284000518C518C30843084518C318C1084518C5B
:102850003084518C518C718C72943084AE732C6B9B
:10286000D39C7294308492947294718C718C718C1C
:10287000929471943084718C718C9294308C108409
:10288000518C10841084F0831084AE73AF7BAF7BC7
:10289000EF7BAE7B6E734D6B2C63EB628A52284AE2
:1028A0000842C839A731A731873166294529252132
:1028B00025210521E418E418C418C418C418E51823
:1028C000C418C410C410A310A310A3108308630875
:1028D00083086308831063088308A41063086308EF
:1028E0008308630863088308630863086308830830
:1028F0008310830863088310A410A410A410A410EC
:102900008308A410A410A410C410E418E418051936
:10291000052105212521452966298631C731E83958
:10292000494A494A8A520C63EB5A4D6B6D6B6D6B89
:102930006D6BAE73AE73CF7B4D6B4D6B6D6B308437
:102940003084518C10841084518C318C1084518CC3
:10295000EF83F083518C718CB294D39C72949294D7
:10296000B29C7194518C518C72949294518C518C74
:1029700071947194518C518C7194518C518C308C18
:10298000318C318C108410841084EF7BEF7BAE7B14
:102990006D736E736D736E730C638A5208420942D5
:1029A000C831A7318729462926210521E52005219F
:1029B000C418C418A418A410A31083108308830893
:1029C00062086208620862086208620862086208B7
:1029D0006208620842084208420842084208420867
:1029E000420042004200420042004208420862089F
:1029F0006208620862086208620863088308830844
:102A0000630883088308830883108310A310A3102E
:102A1000C418A410C41805210521052146218731B9
:102A2000A739E841294A6A4ACB5A0C63AE734D6B09
:102A30006D6BAE738D733084AE731084EF7B308416
:102A40003084308410841084518C108C1084318C2C
:102A50009294118C118C729451945194729472943A
:102A6000929471947194518C518C7194518C719495
:102A700092947194518C92947194F0831084518C3F
:102A80007294F083CF7BCF7BCF7BCF7BCE7BAE7B33
:102A90006D736E734D732D6BCB5A084286292521B9
:102AA000051905190519E518C418A4108310831019
:102AB00083108310831083108308630863086308FE
:102AC0006208620842084208420842084208420876
:102AD0004208420822002200220022002200220096
:102AE0002200220021002200220022004200420097
:102AF0004200420042004200420842086208620866
:102B00006208620862086208620862086208620875
:102B1000831063088310A410C418A410C4180521DE
:102B20002521042187316A4A2D636E6B4D6B6D6BD5
:102B30008E73AE73EF7BCE7BCF7BEF7B30841084C4
:102B40008E734D6B2C638E73518C7294529472946D
:102B5000939C9294939C9394729472949294729492
:102B6000518C518C7194719471947194518C518CDD
:102B7000729492947194518C318C308C308CEF83A0
:102B80001084AF7BF083EF83CF7BAE738D73AE7B0E
:102B90004D6B6D736E734D73AB522529A3102100DD
:102BA00062084208420042084208220822084208FD
:102BB0002208220842084208420042004200420025
:102BC000220021002100010001000100010021007C
:102BD00021002100210021002100210021002100ED
:102BE00021002100210021002100210021002100DD
:102BF00021002100210021002100210021002100CD
:102C000022002200220021002100210022002200B7
:102C10002100210022004208220022002200420856
:102C200062104108C418494A8F738E734D6BCF7B75
:102C3000AE738E73EF7B8D73EF7BAE733084EF7B5F
:102C4000308430843084718CB39C9294518C518C3C
:102C50002D6B8F7B318C929492949294B39C92942E
:102C6000518C308C518C518C7194719410841084DF
:102C7000518C7294518C10841084308C308CCF7BAA
:102C8000F083AF7B318C1084CF7BCE7B8D73AE7B9A
:102C90006D736D738E73AF7B494A820821002100EA
:102CA00022002100010001000100010001002208B2
:102CB000010001000100210021002100210021006C
:102CC000210021002100010001000100210021005C
:102CD00001000100010001000100010001000100EC
:102CE00001000100010001000100010001000100DC
:102CF000010001000100210021002100210021002C
:102D0000010001000100010001002100210021005B
:102D100001000100010001000100010001000100AB
:102D20000100010000008631EC626A4ACB5A0C6354
:102D3000AE738D73AE73CE7BCF7BCE7BEF7B108477
:102D4000CF7B1084518C92947294318C318C52943C
:102D5000F083F083318C5294518C318C518C92944D
:102D6000518C318C518C518C318C318CF083EF83B0
:102D70001084308C1084308C1084CF7B10841084AD
:102D8000318CF0831084AE7BAE73EF7B8E738D73CA
:102D9000AE7B8E7B4D734D6B46294100210083082D
:102DA0004208420822002200210001000100010027
:102DB00001000100010001000100010001002100EB
:102DC00001000100010001000100010001000100FB
:102DD00001000100010001000100010001000100EB
:102DE00001000100010001000100010001000100DB
:102DF00001000100010001000100010001000100CB
:102E000001000100010001000100010001000100BA
:102E10000100010001000100010021002200220048
:102E2000420862082108E418AB528A520C630C6312
:102E30008E736D6B8E73EF7BCE7BEF7BEF7B30847D
:102E400030843084308C318C318C108C118C118C0E
:102E500072945294518C518C518C518C7294B39CBD
:102E6000EF83308C929492947194518C10841084DE
:102E7000EF831084108410841084EF8310841084F6
:102E8000CF83AF7BF0838E736D73AE7B8D734D6B91
:102E90008E7B8E732D6BAB5AA31883106208620869
:102EA0004208220021002100010001000100010070
:102EB000010001000100010001000100010001000A
:102EC000010001000100210021002100210021005A
:102ED00042004200420042004200420042004208DA
:102EE0004200420042002200220021002100210075
:102EF000210021002100210001000100010001004A
:102F000001000100010001000100010001000100B9
:102F10000100010001000100010001002100210069
:102F20002100210042084108494A2D634D6B4D6B39
:102F30002C636D6BAE738E73AE73CF7B1084108475
:102F4000EF7BEF7B108410841084318C518C318C9A
:102F5000518C72945294318C518C7294518C318C6E
:102F6000CF7B10849294929472947194318C518C92
:102F7000EF831084F083F0831084308C308CCF7B0F
:102F80006E738E7BCF7BAE736D6B6D6B6D734D6BA4
:102F90004D732D6B2D6B6A4A8210C410830821007B
:102FA0004208210001000100010022002200420825
:102FB0002200220021002100210021002100210007
:102FC00042004200420062086208830883088308C6
:102FD000630863086308620863086308630863089A
:102FE0006208620862086208420042004200420031
:102FF0006208620862086208420042004200420021
:103000002200220022002200220022004200420070
:1030100042002200210021002100010001000100E6
:103020006208420082082100E8396E6B0C632C6351
:103030002C634D6B8E738E738E73AE7310841084FD
:103040003084308471947294518C518C5294318CB0
:10305000318C7294518C118C518C92949294929CDC
:10306000308C308C518C308C1084318C308C308C86
:10307000EF83EF83F083318C1084CF7BEF83108458
:10308000CF7BCF7BAF7BAE736D6B4D6B6D736D7311
:103090004D73EC622D6B294A6210C310A3086200C5
:1030A000420822004200420863086308630883085C
:1030B000830883086208620862086208820882083E
:1030C00062086208420042004200420042004200A0
:1030D00042004200420042004200420042004200E0
:1030E0006208620862086208420042004200420030
:1030F00022002200220022002200220022002200C0
:1031000042004200420062086300630883088308AB
:10311000830863086308830883086208420842083A
:10312000210083084200620887312D632D632C63E0
:103130004D6B6D6B6D6BCF7B8E73AE73EF7B30849D
:10314000518C518C718C718C318C518C7294318C6E
:10315000318C72949294B39CD39C929C9294B39C25
:10316000719472947194518C318C518C518C518C1E
:103170001084308C318C518C308C1084CF7BCF7B81
:10318000CF836E736E738E738E734D6B2C6B4D6B22
:103190002D6B2D6B8E73A731831083106200C308D3
:1031A0008310A410A41083088308A408830863086C
:1031B000830862006200420083086208C410A31002
:1031C000E41805190519252146214621252105194F
:1031D00066292521462125214621252166292521EB
:1031E0006629462166294621262146212521462198
:1031F00026214621462126212521252105190519AB
:103200000519A4108308830842006300420063008C
:1032100083086300A40883086308A3108308A3102D
:10322000C410C410C410620887290C638B526D6BE4
:103230004D6B4D6B6D73AE73AE73AE73CF7B1084FD
:103240008E7330847294718C518C518C528C529448
:1032500072945294939C92949294518C729472941E
:1032600092949294929471947194719472947194D2
:10327000518C308C308C308C308C1084EF83AF7B51
:10328000CF7B6E734D6B6D738E736D6B6D738E73C1
:103290004D732D6B2D6BA739A310A7312619A308E9
:1032A000A4108308A310C410830822004200A408BD
:1032B000E51005198721E831A729A73146294629B4
:1032C000251925210419E418E418A31062086200E6
:1032D00041002100210021002100210041002100A6
:1032E0000100000001000000010021000100210098
:1032F00042004208620862088208A310C418E41859
:1033000025214621A831A831C8310519C831A8297D
:10331000C4106300420042006200830883088308EF
:10332000E4100519A831630825212D630C5B4D6B52
:103330004D6B0C632D6B6E738E73CF7BEF7BAE7317
:10334000CF7B3084718C718C518C318C1184118CB9
:10335000318C118C318C518C318C318C72947294F3
:103360009294929471947194518C518C518C308CB4
:10337000518C518C518C518C308CF083EF83EF83C6
:10338000F083AF7B8E7BAE738E736D734D6B2C6B46
:10339000EC624D730D6B4529C4188729E510E410C4
:1033A000830863086300A4082619E931CC4A6F63D7
:1033B0007384D073E510A3084200220001002100AD
:1033C00021002100000000000000000000000000BB
:1033D00001002100010001000100010000000000C7
:1033E00001000000010000000100210001000100B7
:1033F00000000000000001000100010001000000C9
:1034000001000100420001002200C831369D738492
:1034100012748F630D532A3A4619A40862006300A0
:103420006300051946210519E4180D632D630D632A
:103430000C636E736D734D6B6D6B8E73CF7B1084ED
:1034400010843084518C718C7294318C318C318C1D
:10345000118C318C318C518C318C72949294929469
:103460009294929492947294518C518C308C1084DA
:10347000308C518C518C518C1084EF83CF7BCF7B5F
:10348000AF7BAF7BAE73AE738E738E736D734D6B0C
:103490006D734D734E734629462146218308830878
:1034A00026192A3A4E5BD06B527CD48CF594F58C5D
:1034B0001595D58CE9310100630821002100010038
:1034C0000000000001002100410021000000010077
:1034D00000000100010000002100010001002100A6
:1034E00001000100010000000000010000000100D7
:1034F0002100210021000100000001002100210025
:1035000021006208420063004200F173F594369591
:10351000369DD58C9384527C327CD06B0D5B4A3ABD
:10352000461983088729E41025210D5BEC5A4D6B61
:103530002D6B0C636E6BAE738E73CF7BEF7B6D6BFD
:10354000AE73EF7BEF7BEF7BF0831084F08310840E
:10355000F083118C118C318C1084518C518C108C17
:103560007194929492947194518C308C308C308CF4
:10357000308C1084EF83EF831084F083AF7B8E73E5
:103580008E738E7B8E736D6B6D6B6D738E736E73BE
:10359000AF7BCB624D6B6631E4184621AB4AD06BF2
:1035A0005284B48CF5941595579DF9AD5AB65BBE0F
:1035B000D9AD97A5B48C63002200420042002200DE
:1035C0000100210021000100210000000000000096
:1035D0000100210021000000210000000000000087
:1035E0000000000001002100210000002100210056
:1035F0000000000001002100210001000100000086
:10360000830842004621C4102A3AB8AD98A5D8AD27
:103610001AB67BBE9CC6F9AD569DF594D48C737CCE
:1036200093848F63C8312621C4102D632D632D63CD
:103630000C632D6B2D634D6BAE738E736D6B8E7340
:10364000CF7B1084EF83CF7BCF7B10841084118CD1
:10365000118C318C118C318C1084518C318CF08315
:103660001084318C518C518C308C10841084308CAF
:10367000308CF083CF7BCF7BCF7BCF7BAF7B8E73C8
:10368000AF7BAF7BAE736E734D6B4D6B2D6B0C6B65
:103690002D6B6E734E6BC4186629D073D4949384CB
:1036A0001595B8AD5BBEBCC6DCC67BBEB8A5158D96
:1036B000579D569D77A5ED522200010001000100A3
:1036C00000000000000000000000000000000000FA
:1036D00000000000000000002100000000000000C9
:1036E00000002100000000000000000000000000B9
:1036F00000000000000000000000000000002100A9
:10370000010083086200E51015951695F594F58C77
:103710001695989DF9AD7BBEBCC69CC65BBEB8A590
:10372000F5947384327CE831A410EC5AEC5A2D6382
:103730002D63EC624D6B8E732C6B4D6BAE73AE7361
:103740008E73CF7BAF7B8E738E73CF7BF083D083F2
:10375000F083F083F083F083CF7B10841084CF7BE1
:103760001084308C318C308C308C318C318C308C9E
:10377000108410841084EF83CF7BCF7BCF7BCF7BF3
:103780008E738E738E73AE73AE738E734D6B2C6BA4
:103790000C6B2D6BAB5A05212D63159DB7AD9BC6E8
:1037A000DCCEDCCEBCC65BBED9A5779D3695169522
:1037B000D58456953695369D6721010042008310C9
:1037C0008210E4182521452145210419A310A310D6
:1037D00004190421252166296629A731A731A731BB
:1037E0008631863145294529452905212521E418B9
:1037F000A310E4186629C839E839A73145290421FE
:10380000051925212100D073B8ADD58C16951695D4
:10381000F68CF58C36951AAE5BB63AB6BCC6DDCEE4
:10382000BCCE5AC6359D2E63C4100D5BEC5AAB520C
:10383000EC5AEC620C634D6BAE73AE736D6B4D6BFB
:103840008E73AE73AF7BAE7BCF7BF083F083F08360
:10385000318C1084F083F083F0831084108CF0831B
:10386000318C308C308C308C308C318C308C10849E
:10387000308C1084F083EF83F083EF83CF7BAE7BBB
:10388000AF7B8E738E73AE73CF7BAF7B8E734D73B6
:103890006E732D6B0D6B8731938C7AC6BCCEBBC615
:1038A00019B6D48C5274168DB8A55695F58C3695EC
:1038B0003695F58CF594369D5284ED5AF17B118442
:1038C0005184728C92949294929492949294B39420
:1038D000B394B394929414A59294F49C9294928C81
:1038E00035A514A5B394D39CD39CB394D39C929444
:1038F000D39CB3949294929492949294B394D39CC4
:10390000B394117C117C77A5D494D58C1695F58C45
:10391000168D168D36953695F16BCD42F16B98A5C7
:103920007BC619BE5AC6B38C46218B4A8B52CB5AE2
:10393000EC62EC5AEC62EB5ACB5A2C636D6B6D6BFC
:103940006D6B8E73AE73AF7BCF83CF7BAF7BAF7B63
:10395000318CF083F083D07BF083CF83F083CF7BF7
:10396000518C318CF0831084518C308CEF83108417
:10397000108410841084EF83CF7BCF7BCF7BAE7B12
:10398000CF838E7B6D738E736D736D734D6B0C6B0C
:103990004D6B2D634E6BC83156A5F9B5F9B516952B
:1039A0004E638B4A63002E5B97A53695168D168D58
:1039B0003795168DF58C3695579D94841174327C0D
:1039C000537C12743274327CB06B77A5B073F07B89
:1039D0008F738B52C839D07B66316E6BAC5A6731AE
:1039E000B38C518445212D632C63694AF07BC73128
:1039F000EC5A76AD117CF06B327C127432743274F6
:103A0000D16B948436953695168D168D368D168D20
:103A1000168D3695169598A5093202008B4AAB5241
:103A2000D58CB8A5B8AD569D87296B4A8B4ACC5A20
:103A3000CC5ACC5A8B524A4A8A522D63AF73AF7B11
:103A4000AE73AE73AF7BEF7BCF7BAE7B8E738E732B
:103A5000EF83EF83EF83EF831084308C1084CF7B70
:103A6000308C518C318CF083EF83EF83CF7BF083EC
:103A70001084EF83EF83EF83EF83CF7BCF7BCF7B0C
:103A8000AE7B8E736D738E734D732D6B2C6BEC62EE
:103A90000C630D63AB52093A97AD77A577A52E530A
:103AA000293A093A0100F17336955695579D369596
:103AB000F68C57953795F58C3695779D15959384AB
:103AC000B484B584B484B48C938C159D6F6B6629D3
:103AD0006A4AAB5AD49C4E6B0D636B52ED62CC5A62
:103AE000F073AF6B6E6B149D294204194D630C5B30
:103AF0004A42F494B38CF5943695F58CD58CF58CBC
:103B00003695369556953695168DF68C168D3795D5
:103B10003795168DD58CD58C8C4A0100C831093A61
:103B20000E53779D569D56A5E9314A42EC5AAB5249
:103B3000CB5AAB52CB5A2D6B6E6B4D6B4D6B6E737C
:103B40006E736E738E73AF7BCF7BAF7BCF7B108436
:103B5000CF7BCF7BCF7BCF7B1084308C318C108C94
:103B6000AE7BEF831084308C518C308CEF83EF83ED
:103B70001084CF7BAE7BAF7BAE7B8E738E738E73E8
:103B80006E736D736D736D732C6B0C63EC62EC6212
:103B9000CC5AAB52AB524A4277A556A5B48C6B4275
:103BA0008B4A26196300D06BB48C369536953695C2
:103BB0003695168D168D5695369516951695369D15
:103BC0005795779D369516951595D4946F6B420051
:103BD000C8394E6B97B5B073E5186F6B2A428731C1
:103BE000F49C8E6B117CD7B5083AC310AB52AF73FF
:103BF0008E6B159DD494369D1595579D3695779D62
:103C00003695159516953695168D168D368D5795D4
:103C10001695579D579D94846F63E51887298B4AA5
:103C2000E929F58C369D56A54A424A42AB528B5241
:103C30006A4A6A52AB5A0C632D6B4D6B4D6B6E6BBF
:103C40006D6B8E73AE7BCF7BAF7BAE7BAE7BCF7B62
:103C5000AF7BCF7B10841084308C308CF083AF7BB3
:103C6000308CEF83CF7B1084308CCF7BAF7BEF83A6
:103C70001084CF7BAF7BAE7BAE7B8E736D734D6B51
:103C80004D732C6B2C6B2C6BEB62CB62CB62CB5AE3
:103C9000AB52AB52CB5A8B4A56A577A5F1738B4AE0
:103CA0004A42093A117CF594369D579D579D579588
:103CB000579536953695168DF58C1695579D779DAB
:103CC000989DB9A5D9ADF9AD579D369D4E63462156
:103CD0002942CC5215A50D5BB073938C8B4A52844C
:103CE000359DCF6B8F6BB3944942E8398A4AAF6BED
:103CF00056A5D494B48C5ABED9ADF9ADD9AD779D43
:103D0000779D5695158DF58C168D36953795F68CD5
:103D1000579D3695579D569D97AD327C29426A4AEC
:103D20000932327C56A556A58B4A6B4A4A4AAB5299
:103D3000AB52CC5A0C630C632C632D632D630C6364
:103D40006D738E73AF7BCF7BAF7B8E738E738E73F1
:103D5000CF7BCF7BCF7BCF7BEF831084108C108405
:103D6000EF83AE7BCF7BF083CF7B8E738E73EF833D
:103D7000AE7BAE7B8E736E738E738E738E734D6B54
:103D80004D6B2C6B0C630C6BEB62EB62CB62CB5A12
:103D90008A520C636A4AEC5A97AD76A54E634A3A4A
:103DA0008729AC5297AD97AD579DF594579D168DC9
:103DB00057953695168DF68C5795D9AD1AB6D9AD5F
:103DC0001AAE1AB63AB65BBE98A5F5944E5BED52A4
:103DD000EC52AC4AE831B06B87296F63CC52672153
:103DE000D48C728446212D5B8F638F6BAF6BA829B7
:103DF000AB4A1595369DD9AD1AB63AB61AAE5BB632
:103E000019B619AED8A55795F58CF58C368D579502
:103E10003695F58CB48C369D77A597AD093A8729F0
:103E2000293A8F6B77A597ADAC52AB528A52AB5AF9
:103E30006A4A6A528A52CB5AEB5AEB5A0C634D6B60
:103E40004D6B6D6B8E738E73AE73CF7BEF83F08390
:103E5000EF83CF7BCF7BCF7BEF8310841084EF8306
:103E60002D6B4D6B8E73CF7BEF83EF83EF83CF7B17
:103E70006D738E736E734D6B4D6B8E738E734D6B56
:103E80006D732C6B2C6B4D6B2C6B2C6B0C63EB6282
:103E9000CB5A2C638A4A0C5B97AD76A56B422A3AC3
:103EA00026216B4A77A57384537C327C1695779DC7
:103EB0001695F58C3695D9A53AB63AB63AB65BBEA4
:103EC0007CBE7BBE3BB63AB6D9AD9484F173527CCE
:103ED0005284317CF173D494AF6B527C527C117458
:103EE000948CD594117C7384117C7384327CF1732F
:103EF000327CF59436955BBE3AB6F9AD3AB61AB651
:103F00001AB63AB65AB61AB6989D168DF68C3695EC
:103F1000779D3695537C327C327C159D093AA310EF
:103F2000A8292E5B56A5B7ADEC5A8B4AEC5A8B529A
:103F3000EC5A0C63EC62CB5ACB5AEB5A2C632C63D1
:103F40002C6B4D6B6D6B6E73AE73CF7BEF83EF831A
:103F5000EF83EF83F0831084308C1084CF7B8E7BD3
:103F6000CF7B8E738E73AE7BAE7BCF7BEF83AF7BCD
:103F7000CF7BCF7BAE7B6D736D738E738E736D73E2
:103F80006E734D6B4D6B4D6B4D6B2C6B2C6B0C63D3
:103F90000C63EC62CC5A4E6B96AD159D093A4A42C1
:103FA000E8394A42117C327CD59477A5779DF58C0F
:103FB000F58C989D1AAE3BB65BBE3BB61AB61AB6E8
:103FC0001AB61AAE3AB61AB63AB616951595F594CB
:103FD000369DF594369D1595569DF594369D3695EE
:103FE000369DF594369D579D169D57A5369D97A5F0
:103FF0001695369D98A51AB61AAE1AB65BB63AB69D
:104000003AB61AB61AB65AB65BB6F9AD5795B48435
:10401000F58C779D77A5159D5284EC52093A862937
:10402000A829ED52159DB7AD2D636A4AEC5AAB52E3
:104030006A4ACB5A0C630C630C634C6B4C6B2C635D
:104040004D6B8E738E738E738E73AF7BCF7BAE7B17
:10405000CF7BCF7BEF83EF83F0831084108C308C89
:10406000EF83AF7BEF83F083AE7B6D738E73AE7B9C
:10407000EF83CF7B8E736D734D6B4D6B6D736D7373
:104080006D732D6B2C6B2C6B0C630C630C630C63CE
:104090000C632C63AB52AF73D8B5938C4A42C831D2
:1040A000E9396729672177A577A51695B484B48483
:1040B000B8A55BB67BBE3BB65BB63AB6FAAD1AB6F0
:1040C0001AB6D9A51AAEB8A5D9ADD9ADD9ADD8AD66
:1040D000D8ADD8ADF9B5D8ADD8ADF9ADB8A5B8A5BE
:1040E00098A5D9ADB8AD98A5B8ADB8ADD9AD98A5DE
:1040F000F9B598A5F9ADD9ADB8A5D9ADD9ADF9AD9A
:10410000F9AD1AB63AB61AB63AB67BBE3AB6B8A503
:10411000B484737CD48C77A5D494830866294A42EE
:104120002A3ACC52D494B7B58F6B8A52CB5A2C63AF
:104130002D630C632C636D6B4D6B2C636D6BCE73B9
:104140008E73AF7BCF7B8E738E73AE7BCF7BEF8313
:10415000CF7BEF831084308C1084F083F083108C3D
:104160008E73CF7BCF7BCF7B8E736E738E738E738C
:10417000CF7BAE7B8E738E738E736D734D6B4D6B79
:104180004D6B4D6B4D6B2C6B2C6B2C6B2C6B0C633C
:104190002C630C63AB52CF73D7B572844A424A3A50
:1041A000E51822004721159D127C537C36953AB6BE
:1041B0007BBE5BBE3AB61AAEF9ADD9ADB8A598A52F
:1041C000789D789D779D579D3695369516951695D1
:1041D0001695159515951695169516951695169589
:1041E00016951695F694F694F594F694F69416951D
:1041F000F6941695169536953795579D779D779D2C
:10420000979DB8A5B8A5D9ADD9AD19AE3AB65BBEE4
:104210005BBE569D737C1174327CA30883086629AB
:104220008B4A4A42D494B7ADD073CB520C632D6302
:104230004D6B4D6B4D6B4D6B6D6B8E73AE73AE7383
:104240008E738E738E73AF7BAE73CF7BCF7BEF831A
:104250001084CF7BEF83F083EF83EF83EF83CF83F3
:104260008E73AE7BAE7BAE7BAE7BAE7BAF7BAF7B2C
:104270006E736D736D736E738E736D734D6B4D6B6B
:104280002D6B2D6B4D6B4D6B4D6B4D6B2D6B2C63F7
:104290000C632C63AB52728CB7ADD073293AE83102
:1042A0004300630067217384369D1AB65BBE1AB65D
:1042B000F9ADF9ADB9A5989D789D579D379536957F
:1042C000168D168D168DF58CD58CD58CD58CD48C01
:1042D000D48CD48CD48CB484D484D484D484D58C1D
:1042E000B58CB584B584B584B584B484B484B48401
:1042F000B484B484D58CD58CD58CF58CF68C168D85
:10430000169536955795579D779D98A5B8A5F9AD03
:104310001AB63AB63ABEB8AD73842519C408051961
:104320002A3A2A3A938C56A5D073AB522D630D636B
:104330002C632C632C632C634C6B6D6B6D6B6D6B02
:104340006D6BAE73AE7BAE738E73AE7BAF7BAF7BAC
:10435000CF7BAE7BCF7BCF7BAF7BAE7BAF7BCF7B8F
:104360008E73AE7BCF7BCF7BEF83EF83CF7BAE7B38
:104370008E736D736D738E738E736D734D6B4D6B2A
:104380004D6B8E73AE734D6B4D6B8E738E734D6B29
:104390004D6B2D632D633184F8B5F07309322A3AE1
:1043A000A8316F63F5941AB63ABEF9B5D9AD779DC9
:1043B000779D779D3695168DF58CD58CD58CD584CB
:1043C000B484B484B484B4849484948494849484AD
:1043D000948494849484948494849484B484B484DD
:1043E0009484948494849484948494849484737C36
:1043F00094849484948494849484948494849484FD
:10440000B484B484D58CD58CF58C168D3695579D97
:10441000989DD9AD19B63AB63ABE97A51174E9314F
:104420002A3AC8311174F9B5D0730D5B6E6B0C6309
:104430000C636D6B4D6B0C630C638D6B8D6B2C6320
:104440002D6B6D738E736D6B6D738E738E734D6B81
:10445000AE7BAE7BCF7BCF7BAE7BAE7BCF7BCF8388
:10446000AE7BCF7B10841084EF83CF7BAE7B8E73CB
:104470008E738E736E738E738E738E736E736D7395
:10448000CF7B4D6B0C636E73AF7B6E734D6B6E6B3E
:10449000D07B8E6B29425284B8AD6F63471932745A
:1044A00077A51AB6F9B5D9ADB8AD779D579D3695B4
:1044B0001695168DF58CD584B584B584B484B484F2
:1044C000948494849484948494849484948494842C
:1044D000B484B484B484B484B484B484B484B4841C
:1044E000B584B484B48494849484B484948494848B
:1044F0009484948494849484947C947C947C947C1C
:1045000094849484B484B484B484B484F58C168D77
:1045100036953695779D98A598A519B6F9B5B8AD95
:10452000537C2A3A906B97AD117CC4102A424D6B94
:104530006E6B0C63EC5A2C634D6B4C634D6B8E733E
:104540002C6B6D6BAE736D6B8E736E73AE7B8E73F7
:10455000AE7BAE7BCF7BCF7BAE7BAE7BCF83EF835F
:10456000EF83EF83EF83CF7BAE7BAE7BCF7BCF7BC5
:104570008E738E738E738E73AE7BAE7BAF7BAE7B92
:104580008E73AF7BAF7B8E738E73AF7B8E732D6319
:104590002942C4102200317C97A5327C579D3AB63F
:1045A000D9ADB9AD78A598A5779D36951695369570
:1045B000158DF58CD584D484B484B484B484948467
:1045C00094849484B4849484948494849484B484EB
:1045D000B484B484B484B484B484B484B48CB58C0A
:1045E000D58CB484B484B484B484B484B484B484E2
:1045F00094849484948494849484948494849484FB
:104600009484B484B484B484B484B484D58CF68C97
:1046100016951695579D579D779D779D779DB8A5C3
:104620001AB6579DD58C98AD127C83080100C41032
:10463000C731AB5A6E736E6B4D6B6D6B6D6B4D63AB
:104640002C634D6BAE736E736D734D6B8E73AF7B5E
:104650008E738E73AE7BAE7B8E738E73AE7B8E7BD2
:10466000EF83CF7BCF7BCF7BCF7BEF83EF83CF7B82
:10467000CF7BCF7BCF7BAF7BAF7BAF7BAE7B8E73B4
:104680008E738E738F73AF7B8E73AB5266298210DD
:104690002100830883085284569DD9ADF9AD98A5B1
:1046A000D9AD779D579D779D779D779D5795168DB1
:1046B000168D158DF58CD584B484B484B48494841B
:1046C000B484B484B484B484B484B484B484B4842A
:1046D000B484B484B484B48CB48CB58CB58CB58CEF
:1046E000D58CD48CB484B484B484B484B484B484B9
:1046F000B484B484B484B484B484B484B484B484FA
:104700009484B484B484B484B484D58CF68C168D2B
:104710003695779D779D3695779D98A5779D779D62
:1047200098A5B8A598A51695327CA41063086208D0
:104730004208A31066294A4A2D638E736E6B4D6B37
:104740004D6B4D6B6D736D738E736D736E738E7376
:104750008E738E738E738E736D736E736E734D73F3
:10476000CF7BCF7BCF7BCF7BF0831084EF83AF7B7E
:10477000CF7BCF7BAF7BAE7B8E738E736E736D738F
:104780008E73AF7B6E6B494A042162086208831006
:1047900063084621CC52B48C77A598A598A5B9A5F5
:1047A00098A598A5D9A598A5779D579D57955795F4
:1047B00036953695F58CD58CD584B484B484B48480
:1047C000D484D484D484D484D484B484D58CD58C37
:1047D000D58CD58CD58CD58CD58CD58CD58CB58CF1
:1047E000D58CD58CD58CD58CD58CD58CD58CD584C9
:1047F000B484B484B484B484B484B484B484B484F9
:10480000B484B484B484B484D58CF58C169537956F
:10481000579557955795989D98A5779D779DB8A5DD
:10482000789DB9A5779D77A553848F6BED52E518D8
:104830002200420862086208E418C739CB5A8E6B1E
:104840004D6B6D6B6E738E738E73AE7B8E734D6B13
:104850006D736D736E736D734D6B6D736D734D6BA7
:10486000AF7BCF7BCF7BAF7BAE7BAF7BAF7BAE7BBA
:104870006D736D734D6B4D6B4D6B6E738E738E736D
:104880008A528631A310821042084108E418C839C0
:104890008F6BD494938CD58C98A578A5989DB9A549
:1048A000B8A598A5D9A5779DB8A5779D779D989D22
:1048B000579D3695168DF58CD58CD58CD584D584A1
:1048C000D58CD58CD58CD58CD58CD58CD58CD58CE0
:1048D000D58CD58CD58CD58CD58CD58CD58CD58CD0
:1048E000D58CD58CD58CF58CF58CF58CD58CD58C60
:1048F000D58CD58CD58CD58CD58CB58CB48CB48C12
:10490000B484B484B484D584D58C168D36955795EB
:10491000579D989D779DB8A55795789D989D779DB3
:1049200098A5989D579D77A55384117CD494938C1A
:104930006F6BC8398310620862104108A3106629A2
:104940008A524D6BAE73AE732C6B4D6B2C6B4D6BF3
:104950002C6B2D6B4D6B4D6B2C6B4D6B4D732D6B11
:104960002F8CEE83CE7BEF83EF7BAF7BAE7BCE7B5A
:10497000CE7BAD7BAE7B8D73AE7BEF7BAB5266297E
:10498000630863086300430005198B421174159591
:10499000F594B4849384D48C779D779DB8A5B8A5FD
:1049A000B8A5B8A5B8A598A598A598A5779D579D31
:1049B000779D779D36951695B484D584D58CF58CE6
:1049C000F584F584F58CF58CF58CF584F58CF58CF7
:1049D000F58CF68CD58C168DF58CF58C1695ED4AEC
:1049E00032741695F58CD58CF58CF58CF58CD58CB0
:1049F000F58CD58CF68CF68CD584D58CF68CD5843C
:104A0000D48CD58CD58CB484F58C579D579D579DEF
:104A1000779D789D98A598A5779D779D979D98A55A
:104A200098A5779D779D979D737C3274D48C9384E1
:104A3000F58CF48C11746A420511830883006300BD
:104A4000820845216A4A4D6B6E730D6BEC6AED6A04
:104A50002E6B4E730D6B2D6B6E73AF7B4D6B4D6B71
:104A60008D738D738E738E73AF7BAF7BAF7B8E73C5
:104A7000AF7B8E7BCF83CF83F083094242088310C4
:104A80006308630046210E5B7384B48CB48CD48CB1
:104A9000F594779D779D1695779D779DB8A5779D21
:104AA000B8A5B8A598A5989D98A598A598A598A5E6
:104AB000B8A5779D579DF58CD58C1695D58CD58C42
:104AC000F58CF58CF58CF58CF58CF68C1695169589
:104AD000F58C16951695F58CF5941695B16B2611F7
:104AE000C9291695F5941695F58C15951695D58CBE
:104AF0001695D58CF58CF58CD584D58CF68CD58C0B
:104B0000B484D58CB484D58C169537953795B9A5D2
:104B1000B8A5789D579D579D989DB8A5B8A598A50F
:104B2000779D98A5779D3695737C3695D9AD15956B
:104B3000B4849384B48C159593840D5B6721A40889
:104B4000A30821006208E8394D6BCB62AA5A0C6BAE
:104B50000D6B2D6B2D6B4D6B4D6BAE7BAE7B6D730B
:104B6000AE7B8E7B8F7BAF7BB07B8F7B8F7B8F7B96
:104B70008F7BF083AF7B6E738F736729230084086C
:104B8000C9316F63D494F594938C9384F594579DB5
:104B9000D9AD3AB697A5B484369598A5D9ADD8AD18
:104BA000B8A5B8A5B8A5B8A5B8A5B8A5B8A598A53D
:104BB000579D98A598A5579D1695D58CD58CF58CA5
:104BC000D58CF58CF58CD58CF58CF58CF594D58C35
:104BD000F594F594D58CF594369DF694E5108721DF
:104BE000A408AC4A569DD48C1595F594D58C579D48
:104BF0001695F58CF58CF58CD58CD58CD58CB5842B
:104C0000D58CD48CB4843695579D789D789DB9A564
:104C1000D9ADF9AD1AAEF9ADB8A5779D979D98A518
:104C2000D9AD98A536953695737CD58CF9AD3AB645
:104C3000D9AD779DB484527CB48C369D938C8F6BA8
:104C400008322419A20865294C6B4C6B2C6B2C6B19
:104C50000C6B4C6B6D738D738D738D734C6B2B6BF9
:104C60008E7BAF7BAF7BAF7B8F738F736F736F73F5
:104C70006E73AF7B6E73D07BED62E5184B4233846D
:104C800036A5F594948C948C1595D8AD3AB63AB671
:104C900019B6D9AD1595B484779D98A598A5B8A5F2
:104CA00098A5B9A5D9ADF9AD1AAEF9ADD9ADB8A5EC
:104CB00098A5B8A5579D98A5779DF58CB484D58403
:104CC000B48CD58CF5941695569D77A577A5369D11
:104CD00077A536A5169D369D738487290100093A6C
:104CE000C40842006F63369DF59477A577A51695A5
:104CF000579D569D579D579D369D1695F594D58C7D
:104D0000D48CB484F58C779D779D579D98A598A5F4
:104D1000B9A5B9ADD9AD1AB61AB6F9ADB8A598A569
:104D2000779D97A5779D579D737C938497A5D9AD63
:104D3000F9AD3AB63AB697A5D48C9384D48C159530
:104D40003595317C6A424521E739284A6952E74165
:104D50000742484A0742274A484AC6394329853903
:104D6000308CEF836E734D6B8F7B1184F0838E7B61
:104D7000AF7BEF836D734D6BD07B738C169DB58CC1
:104D8000738494841595D9AD5BBE3ABEF9ADD8ADA8
:104D9000779D579DB484B484779D579D779DD9ADF9
:104DA0003BB65BBE5BBE5BBE3AB61AB6D9AD98A544
:104DB000779DD9AD779DD8A5779D36953695D58CBD
:104DC000948C93845384F173906B4F630D5BCC523E
:104DD0002A422A42A8290519051901006308A831A9
:104DE000051101006200A40805198721A8292A3AA3
:104DF0006B42AC4AED524E5B9063D06BF173327CE8
:104E0000B4841595579D98A5779D779DD9AD98A5A4
:104E1000B9ADD9ADF9AD3AB65BBE5BBE5BBE5BBEAC
:104E2000D9AD98A5569D569D737C737C3695579D3C
:104E3000D8A5D8AD1AB69BC67BBEB8ADF58C938409
:104E4000B58C1695159D738C0C6308426952AA5A4D
:104E50008952A95A89528952895A484AE641C6411B
:104E6000919C90947094308CAE7B4C6B4D6BAE7B70
:104E70006D736D736D734D6B718C56A5B48CB48C62
:104E8000579D1AB6BCCE7BC61AB6D9ADB8A598A5A3
:104E900056955695B484737C579DB8A55BBEBCC629
:104EA0009CC69CC65BBE1AB6FAAD1AB61AB61AB63E
:104EB000D9AD779DB8A5D8ADF9ADF9AD4E53461132
:104EC0002619E510A4086300420022000200010038
:104ED00022000200220042000100220042002A4279
:104EE0000519420042000100620001006200010059
:104EF0000100220022002200220042006300C510AF
:104F0000C508537CD9AD98A5D9AD98A598A5D9ADBC
:104F1000D9ADF9AD1AB61AB61AB63AB67BBEBCC64A
:104F2000DDCE5BBE98A53695537C3274F58C3695F4
:104F30005695779DB8A5D8A51AB67BBE7BBE1AB686
:104F4000F794B684958C169DD0736A52AA5ACA5AA1
:104F50006952484A274AC639A639284AA95A284ACE
:104F60002F8CEE83EE83508C508CEF83CE7BEE83C0
:104F7000AD7BAD7BCD7B8D6B928C359D569D7BBE85
:104F80009CC67BBE3AB6F9ADD8A5B8A5779D369537
:104F9000F58C3695B484948498A57BC6FDD6BCCE9A
:104FA0005BBE7BBE7CBE3BBED9AD36957384F173D0
:104FB00036951AB697A51AB6F9ADD58C158D8B42D4
:104FC000A408430002000200010022002200220087
:104FD0004200220042000100010005196F6BAC5233
:104FE0004E63AB4A010063004200210063002200CF
:104FF00022004200220002000200020063000511AC
:105000009063B484579DF9AD579DD9AD98A532747E
:105010004F5BB0637384779D3AB67BC67BBE3ABE66
:105020007BC6FDD67BBE579D3274737CF58C948411
:10503000F58C3695779DB8A5D9ADF9AD3AB65BBE7E
:105040009EC61CB678A5169DB073E739C639853162
:1050500084310642474A27428852895268520742A1
:105060008D7BEE83AD7B8952E741284AEA622B6B48
:105070002B6B2B6BA9522C6355A55AC6FDCE9CBE3B
:105080005BB63AB6F9ADB8A5779D579D3695F58CC8
:10509000D58C1695D58C948498A57BBEDDCE7BC629
:1050A0009CC61AB61695337CD16BD16B1274537CA7
:1050B000B063537C5ABEF9AD98A536953AB65AB648
:1050C00097A5D48CF1736F630E53AC4A4A3A0A3AEF
:1050D000C931A82987298721461967210D53CC4A50
:1050E0000D530932461926198721C829A8290A32E1
:1050F0004A3AAC4AED522E5BB06B327CF594F9B56E
:105100001AB63AB6B484D9AD3AB636954F5B7063E9
:105110009484127490634F5B9063738498A57BC6EC
:105120007BC6BCCE3ABE779D537C537CF58CF58C08
:10513000F58CF58C168D5795989DB9A5F9AD1AB6D5
:105140005CB69DC6BCC65AC655A52B632A632A63A6
:105150008B734D84EC7B8B6B8F942E8CCC7B6F94FC
:10516000274AC641C64107420842484A4852C641FA
:10517000074A284AE739A731F9B5DDCE5BBE5CB6F0
:105180001AB6D9AD98A5779D5695168D158D158DA6
:105190001695F58CD58C948477A51AB6BDCE98A5B6
:1051A000B58C12741274B48C1695F6949484327C77
:1051B000B48C537CD16BB8A5F58C3AB65AB619B6F7
:1051C0005BBE7BBE7BBE9CC69CC67BBE7BBE5BBE05
:1051D0003ABE3ABE1AB619B6F9B5F9ADF9ADF9ADA0
:1051E000D8ADD8ADF9ADF9B519B63AB63ABE5BBE91
:1051F0005BBE7BBE7BC67BC67BC67BBE5BBE3ABE50
:10520000F9AD1AB698A5F58CB4842E537384D58C59
:10521000737CB48C1695369DD58C1274D16BF27359
:10522000369D7BC6F9B598A5537C737C1695D584BD
:10523000F58CF58CF58C168D3695579D989DD9A5D6
:105240001AAE1AAE9BC6BACED5ADAB6B0C7C896BD1
:10525000A973886BA96BEA7B896B0C84EB7BEB7B76
:10526000E741074A495269528A5A6952495248529B
:10527000484A6952284A2942159D7CC61BB6FBAD97
:10528000B8A598A5779D57953695168D168D168DD0
:10529000168D168DD58C537CD9ADB8A594847384A6
:1052A000D58C579D579DB48CB16BED52AC4ACD4A0D
:1052B0002E5B537CF58CED4A569D9CC61AB69BBE60
:1052C0005BB65BB65BB65BB65BB65BB63AB63AB698
:1052D0005BBE5BBE5BBE5BBE5BBE7BBE7BBE7BBEA6
:1052E0007BBE7BBE7BBE5BBE5BB63AB63AB63AB619
:1052F0005BB63AB65BBE5BBE5BBE5BBE3AB63AB669
:105300007BBE3AB65BBE3274AC4AF594327C0E5327
:10531000AC422E536F63D16BB48C1695F6941695F0
:10532000F173538477A5D9AD537C9484F58CF58CB7
:10533000F58CF58CF68C168D16953695579D789DC7
:10534000989DF8ADF7ADB9C6329DA64ACA73E6522C
:10535000876BC873876B8C8CE973EA73686B686BB7
:10536000474A474A274A0642895A274A074A885ADB
:10537000E641274A89522C63D4943ABEDAAD799D2E
:10538000779D579D369536951695168D168D1695E3
:1053900036951695F58C9484D9AD7384F173B8ADB8
:1053A0001695537C2E5BAC4AED52ED528C4A8C4ADA
:1053B000AC4AED520E53D16BBCC63AB69CC67BBE0E
:1053C0009CBE9CBE7CBE7BBE7BBE7BBE7BBE7CBED1
:1053D0007BBE7BBE7BBE7BBE7BBE7BBE7BBE7BBE05
:1053E0007BBE7BBE7BBE7BBE7BBE7BBE7BBE7CBEF4
:1053F0007CBE7BBE7BBE7BBE7BBE7CBE7CBE7CBEE1
:105400003AB67BBE5BBEF9AD2E532E5BCD4AAC4A9D
:10541000CD4ACD4ACD4AED522E5B6F63327C169D4C
:1054200077A5337C7384B8AD537CD58C1695F58CF9
:10543000168DF58CF58C168D168D168D3695379547
:10544000979DB7A5D7AD17B6D08C495BCA73065BDD
:10545000097409748863A86B265BC552065B4863B0
:10546000E85AE85A09632A6B0E8C8C7BAC7B2D8C36
:105470004E940E8CEE832F841395F8AD779D57953F
:10548000579D5795369536953695169516953695BA
:10549000169536951695948498A51274D58CD58C4E
:1054A0004F5BCD4ACD4A0E53CD4AAC4A4F63127C76
:1054B00012749063AC4A3ABE5BBE7BBEBCC6BCC62F
:1054C0009CBE9CBE9CBE9CBE9CBE9CBE9CBE9CBE0C
:1054D0009CBE9CBE9BBE9BBE9BBE9BBE9BBE9BBE02
:1054E0007CBE7CBE7CBE7CBE7CBE9CBE9CBE9CBE8C
:1054F0009CBE9CBE7CBE7CBE9CBE9CC69CC69CC604
:10550000BCC67BBE5BBE5BBE579D4B3AB06B327C6C
:1055100012746F63ED52AC4AAC4AAD4AEE522F5B47
:105520001695D594F173F9B5537C94843695F58C22
:10553000F58CF58C168D169516951695169536954F
:1055400037953695769DD7ADEE73A74AEB73A96B69
:10555000A96BA96BEA736442A54A69630753085BA8
:105560004D8C4D8C6E8C0C842D8CCB7B0C8C4D9487
:105570004D944D8C2D84ED7BD29496A5769D979D70
:10558000579D579D36955795369536951695169590
:10559000369516951695948498A5F173F5944F5BFE
:1055A0006F5BED52CC4A2E5BD06B527C948CD58CC9
:1055B00053844B42B8AD7CC67BBEBCC69CC69CC661
:1055C0009CBE9CBE9CBE9CBE9CBE9CBE9CC69CC6FB
:1055D0009CC69CC69CBE9CBE9CBE9CC69CC69CC6D3
:1055E0009CBE9CBE9CBE9CBE9CBE9CBE9CBE9CBEEB
:1055F0009CBE9CC69CC69CC69CC69CC69CC69CC6A3
:105600007BBE9CC69CC63ABEBCCE537CAC4A527C88
:105610009484537C7384327C4F63AD4ACD52EE52F6
:105620004F5BD594B06BF9B57384B48CF58C15953C
:10563000F58CF58C16951695169516951695369546
:1056400037953795579D559D718468420119E3310F
:10565000A229043A822108538A63A74A453AC331F2
:10566000EB7B2D84AF9C8E94AE9C8E9CAE9C2C8C40
:10567000CB832D8C6E94ED7B339D96A5569D5695D0
:10568000579D36953695579D57953695169536956F
:105690003695F58C36959484B8ADD16B7384B06B28
:1056A000CC4A4E5B527CB48C5384948C53844F63AD
:1056B0006B4277A5BDCE9CC69CC67BBEBCC6BCC695
:1056C000BDC6BDC6BDC6BDC6BDC6BCC6BCC6BCC6C5
:1056D0009CC69CC69CC69CC69CC69CC69CC69CC6BA
:1056E0009CBE9CBE9CBE9CBEBCC6BCC6BCC6BCC64A
:1056F0009CC69CC69CC6BCC6BCC6BCC6BCC69CC61A
:105700009CC69CC69CC6BCCE3ABEDCCE73844B3ACB
:10571000B06B327CD1731274B58C53840E5BAD5276
:105720002E5BB58CB06B98A573843695D58C169589
:1057300015951595169516951695169516953695F3
:10574000F78C3795169596A5AE6BE631674A053A04
:105750000432E429E4290432664266420432664295
:10576000D09CAF9CAF948F948F9C8F9C8E9C4D94BB
:105770004D94EC8B0D848C7334A576A5579D57956D
:10578000579D369536953695369536953695369598
:10579000F58C369536959384B8AD73841274906306
:1057A0004E5B9384527C1174948CF173CD524F6391
:1057B0003BBEDDD65BBE7BC6DDCEDDCEBCC6DDC668
:1057C000BCCEBCCEBCCEBCCEBCCEBCCEBCC6BCC699
:1057D000DDCEBCCEBCCEBCCEBCC6BCC6BCC6BCC678
:1057E000BCC6BCC6BCC69CC69CC69CC69CBE9CBE59
:1057F0009CBE9BC69BC69CC69CC69CC69CC69CC6A3
:10580000DDCE9CC69CC6BCC69CC65ABEDDCE77A566
:10581000AC4ACD52127C337C6F63F27B748C4F6345
:1058200070635384F27398AD73841695D58C169576
:1058300015951595169516951695169516953695F2
:10584000579D3695569D56A55084EA52A74A464222
:105850006642453AA642663A663AC429C429864257
:10586000A852674A675209636B736B73AC838F9C52
:10587000ED8BC862A95A0B63F49C569D379D589DC9
:10588000579D379D369536953695369516951695CE
:1058900016953695D48CB48C98A57384327C537C41
:1058A0007384F17393849384ED52CD52F594DDD6D5
:1058B0009CCE3BBE7CC6FDD69CC6BCC6FDCEBCC63F
:1058C000BCCEBCCEBCCEBCCEBCCEBCCEBCCEBCCE88
:1058D000BCCEBCCEBCCEBCCEBCCEBCC6BCC6BCC690
:1058E000BCC6BCC69CC69CC69CC69CC69CC69CC668
:1058F0009CC69CC69CC69CC6BCC6BCCEBCCEBCCE00
:105900009CC6DDCEBCCE9CC69CC6BCCE5ABEBCCE10
:10591000BCCE53848C4A0E5B327C127CB16B327CE1
:105920005384127CF173B8AD9484D58C1695D58CC4
:105930001595159516951695369516953695369DA9
:1059400036953695359D559DD294884A4221453AE3
:10595000453A8642653AC74A4532042AC321043291
:10596000A231453A8A63EC73E7522963E962E96A36
:10597000675AA962484A894A759D3595579D579D32
:10598000579D579D579D3795369537951695169582
:10599000F68C1695F68CF58C98A5D48C327C527CBE
:1059A000938493846F638C4273849CC6DDCEBCCE9B
:1059B0009CC69CC6BCC6BCC6BCC6BCC6BCC6BCC617
:1059C000BCC6BCC6BCC6BCC6BCC6BCC6BCC6BCC6C7
:1059D000BCC6BCC6BCC6BCC6BCC6BCC6BCC6BCC6B7
:1059E000BCC6BCC6BCC6BCC6BCC6BCC6BCC6BCC6A7
:1059F000BCC6BCC6BCC6BCC6BCC6BCC6BCC6BCC697
:105A0000BCC6DDCEBCC6BDC6BDCE9CC67CBEBDCEB2
:105A10009CC6FDD65BBEF1738C424E5B1174527C0A
:105A2000527CD06B9384D8ADB484F58CF58C1695EC
:105A3000168D1695169516951695169536953695D6
:105A4000369D1695579D3695D48CC7316531844166
:105A5000C549C972475A64398539074A685A265276
:105A6000A331295B4D848B6BE85A6752C862475A51
:105A70006862485AC639694A759D569D779D379523
:105A8000569D369536953695169516951695169516
:105A90003795F68CF694B48498A597A5F173D48CB9
:105AA0004E5B8B4211745BBEFDCEBCCEBCC67BC6CA
:105AB0009CC6BCC6DDCEDDCEDDCEBCC6BCC6BCC67B
:105AC000BCC6BCC6BCC6BCC6BCC6BCC6BCC6BCC6C6
:105AD000BCC6BCC6BCC6BCC6BCC6BCC6BCC6BCC6B6
