:020000040800F2
:1000000000000120C5020008CB020008CF02000852
:1000100041030008450300088D03000800000000AC
:10002000000000000000000000000000D5030008F0
:10003000D903000800000000DD030008790A000869
:10004000F1030008F1030008F1030008F1030008C0
:10005000F1030008F1030008F1030008F1030008B0
:10006000F1030008F1030008F1030008F1030008A0
:10007000F1030008F1030008F1030008F103000890
:10008000F1030008F1030008F1030008000000007C
:10009000000000000000000000000000F103000864
:1000A000F1030008F1030008F1030008F103000860
:1000B000F1030008F1030008F1030008F103000850
:1000C000F1030008F1030008F1030008F103000840
:1000D000F1030008F1030008F1030008000000002C
:1000E000F1030008F1030008F1030008000000001C
:1000F000000000000000000000000000F103000804
:1001000000000000F1030008F1030008F1030008FB
:1001100000000000000000000000000000000000DF
:10012000F1030008F1030008F1030008F1030008DF
:10013000F1030008000000000000000000000000C3
:10014000000000000000000000000000F1030008B3
:10015000F1030008F1030008F1030008F1030008AF
:10016000F1030008F1030008000000000000000097
:10017000000000000000000000000000000000007F
:1001800000000000F1030008000000000000000073
:10019000F103000800B583B000F0BAF9384B394AD2
:1001A0001360394A1360394900E02146384B9942BF
:1001B0000BD20A684B6801F10C0488689842F4D9A4
:1001C0001168196004330432F8E72E4B1A68314B7A
:1001D0009A4200D0FEE72C4B1A682F4B9A42F9D175
:1001E000274B2E4A13602E4A13602E4B05E0002049
:1001F000106004329342FAD80B462B4A934204D241
:10020000194651F8082B5B68F4E7244B1B6813B9B7
:10021000234B1B6803B1FEE700F086F9694601A88D
:1002200000F022F9214C224BE41AA4100025AC4224
:1002300014DC204C204BE41AA4100025AC4213DC43
:100240000099019800F040FC05461C4C1C4BE41A38
:10025000A410002C0EDC284600F0E2F8144B53F8F2
:10026000253098470135E2E7134B53F8253098477E
:100270000135E3E7013C124B53F824309847E8E797
:10028000BABADECA00000020A8000020F40300086B
:100290000C0400087856341232547698AC000020D2
:1002A000500100200C0400081C0400081C04000875
:1002B0001C0400081C0400081C0400081C0400089E
:1002C0001C04000808B5FFF765FF00BEFEE71EF03E
:1002D000040F0CBFEFF30880EFF309807146414A29
:1002E00010472DE9F04182B004468846124B5E6B00
:1002F0009F6B9D6A1B6B13F0020F03D00E4BDB6AE2
:10030000002B0CDB0D4800F0B7F8CDF800803B4621
:1003100032462946204600F00BF900BEFEE74BF6B8
:10032000AB6100F07FF90028ECD0034B4FF00042A6
:10033000DA6202B0BDE8F08100ED00E014150008BB
:1003400000BEFEE71EF0040F0CBFEFF30880EFF3D2
:1003500009807146244A10472DE9F04182B00446D5
:100360008846084B5E6B9F6B9D6A074800F084F8D7
:10037000CDF800803B4632462946204600F0D8F8AA
:1003800000BEFEE700ED00E0241500081EF0040F9B
:100390000CBFEFF30880EFF309807146134A104752
:1003A0002DE9F04182B004468846084B5E6B9F6B96
:1003B0009D6A074800F060F8CDF800803B46324661
:1003C0002946204600F0B4F800BEFEE700ED00E04C
:1003D0003015000800BEFEE700BEFEE700BEFEE7E7
:1003E00070470000E302000859030008A103000859
:0403F00000BEFEE766
:1003F400E84D010800000020AC000020E84D010891
:100404000000001000000010AC0000205401002087
:080414000000001000000010C0
:10042000FEE7000008B503460C4A12685AB10B4AB1
:100430001068033323F003030344094A934206D8A8
:10044000064A136008BD054A06491160EFE700F04F
:100450005BFB0C2303604FF0FF30F3E7B00000209C
:1004600000FC00205401002001230360014B0B60BD
:10047000704700BF040000200FB400B583B004AB88
:1004800053F8042B01938021064800F06FFB0028ED
:1004900003DD0146034800F037F803B05DF804EBD4
:1004A00004B07047B80000202DE9F04385B0044641
:1004B0000F4643560BB10E461EE004252846214642
:1004C000ABBE0446384605B0BDE8F08314F9011B05
:1004D00004AA1A4402F8101C0133AB42F6D304AA52
:1004E0001344002203F8102C4FF00408E94640465C
:1004F0004946ABBE8046761B002EE3D03546102E13
:1005000028BF10250023E8E708B5FFF7CDFF08BD99
:1005100008B500F097F8024A024B9A6008BD00BF88
:100520000000000800ED00E008B500F0ABF808BDE1
:10053000F8B504460D4617461E462748FFF79CFFB0
:1005400021682648FFF798FF61682548FFF794FF68
:10055000A1682448FFF790FFE1682348FFF78CFF6C
:1005600021692248FFF788FF61692148FFF784FF6E
:10057000A1692048FFF780FFE1691F48FFF77CFF72
:100580001E48FFF779FF29461D48FFF775FF1D4CF0
:10059000E16A1D48FFF770FF216B1C48FFF76CFFF5
:1005A000E16B1B48FFF768FF15F0800F0AD115F4C7
:1005B000004F0CD11748FFF75FFF06991648FFF769
:1005C0005BFFF8BD39461548FFF756FFEFE73146A8
:1005D0001348FFF751FFEDE7F8130008081400086F
:1005E00018140008281400083814000848140008DB
:1005F00058140008681400087814000888140008CB
:100600009414000800ED00E0A4140008B4140008DD
:10061000C4140008F4140008FC140008D4140008E2
:10062000E414000883691A888A4201D000207047C8
:100630000268033A012A03D802338361012070471C
:10064000002070470C4B1A6842F001021A6000212A
:1006500099601A6822F0847222F480321A60074A84
:100660005A601A6822F480221A60D960044B4FF055
:1006700000629A60704700BF0038024010300024CA
:1006800000ED00E0224B9B6803F00C03042B14D018
:10069000082B16D01BB11F4B1F4A1A6002E01D4BDE
:1006A0001D4A1A601A4B9B68C3F303131B4AD15CA3
:1006B000184A1368CB4013607047164B184A1A60EB
:1006C000F0E7134B5A685B6803F03F0312F4800FA6
:1006D00013D0134AB2FBF3F20D4B5B68C3F38813DC
:1006E00003FB02F30A4A5268C2F30142013252008C
:1006F000B3FBF2F3074A1360D4E7074AB2FBF3F205
:10070000034B5B68C3F3881303FB02F3EAE700BF04
:10071000003802400C0000200024F40040150008BE
:1007200040787D010023072B00F23581F0B437E0DB
:1007300099490D685C001C446200984C224454782E
:1007400066000324B44025EA04040C600C68957824
:1007500056787600B5402C430C609278012A60D020
:100760008D4CE6688D4D5A00D718790029444F7892
:100770004FEA470C032707FA0CF726EA0706E6605C
:10078000E66849791044420015446A78520001FA3B
:1007900002F23243E2600133DBB2072B00F2F98050
:1007A000184603EB43014A007C498A5C012A64D065
:1007B000002ABDD0022AEED179490D685C001C44A4
:1007C0006200764C2244547866000324B44025EA43
:1007D00004040C600C68957856787600B5402C437C
:1007E0000C609278012A00F0A8806D4CE6686B4D91
:1007F0005A00D718790029444F784FEA470C03274D
:1008000007FA0CF726EA0706E660E668497910441D
:10081000420015446A78520001FA02F23243E26063
:10082000B9E70A464E685D4D5C00E7187900294437
:1008300091F801C0012707FA0CF726EA070656606F
:100840005668CF7891F801C007FA0CF73E4356601E
:1008500096684F784FEA470C032707FA0CF726EA09
:100860000706966096680979204444002544687814
:1008700040008140314391608DE74A490D685C003A
:100880001C446200454C2244547866000324B44062
:1008900025EA04040C600C68957856787600B5401B
:1008A0002C430C609278012A1BD03E4CE6683B4DED
:1008B0005A00D718790029444F784FEA470C03278C
:1008C00007FA0CF726EA0706E660E668497910445D
:1008D000420015446A78520001FA02F23243E260A3
:1008E00059E70A464E682D4D5C00E7187900294407
:1008F00091F801C0012707FA0CF726EA07065660AF
:100900005668CF7891F801C007FA0CF73E4356605D
:1009100096684F784FEA470C032707FA0CF726EA48
:100920000706966096680979204444002544687853
:1009300040008140314391602DE70A464E68174DD3
:100940005C00E7187900294491F801C0012707FAF3
:100950000CF726EA070656605668CF7891F801C072
:1009600007FA0CF73E43566096684F784FEA470CFB
:10097000032707FA0CF726EA0706966096680979B6
:100980002044440025446878400081403143916010
:1009900001E7F0BC704770470000024010000020E3
:1009A0000008024000040240012806D010B10228CD
:1009B00006D07047044B59617047044B596170472A
:1009C000034B5961704700BF000002400004024021
:1009D00000080240074A136843F001031360054B07
:1009E0001B6813F0020FFAD0024A936843F08003A9
:1009F00093607047003802401F291CD801280BD093
:100A000010B1022810D070470B48036B012202FA84
:100A100001F11943016370470748036C012202FA90
:100A200001F11943016470470348436C012202FA43
:100A300001F119434164704700380240024B1A68C3
:100A40006FF382021A60704710E000E0094B002249
:100A50001A609A6058601A6842F001021A60054BE9
:100A60001B6813F4803FFAD0024B1A686FF31042F0
:100A70001A60704710E000E008B50E4B1B680E4A84
:100A80001268934211D10D4B1B689847094B012204
:100A90001A600B4B1B78DBB2934200D008BD094BA8
:100AA00000221A605A609A60F8E70133014A136025
:100AB000F4E700BF40000020480100204C01002066
:100AC0004401002010E000E010B5FFF783FF002193
:100AD0000846FFF791FFFFF7B1FFFFF723FE002461
:100AE00000E00024064B195D0020FFF75DFF013494
:100AF0007A20FFF7ABFF034B9C42F3D1F1E700BF35
:100B00005015000862380100014B1868704700BF9B
:100B10004400002030B5141E05469BB0184605DA87
:100B20008B232B604FF0FF301BB030BD4FF40273AE
:100B3000ADF80C3014BF04F1FF3323460293059344
:100B40004FF6FF7300910491ADF80E3002461E9BE4
:100B50006946284600F072F8431CBCBF8B232B600B
:100B6000002CE1D0009B00221A70DDE707B500934E
:100B700013460A46014603480068FFF7CBFF03B05F
:100B80005DF804FB440000202DE9F0478E689E428A
:100B900082460C469046994637D88A8912F4906F5F
:100BA00031D0256809696F1A6569022305EB45058F
:100BB00095FBF3F509F101033B449D4238BF1D4607
:100BC000530530D5294600F07DFB064650B90C236D
:100BD000CAF80030A38943F04003A3814FF0FF30EF
:100BE000BDE8F0873A46216900F0FAFAA38923F4B8
:100BF000906343F08003A381266165613E44ED1B51
:100C00002660A5604E464E4500D94E4632464146C6
:100C1000206800F0F0FAA3689B1BA36023681E44C1
:100C200026600020DCE72A4600F0A6FB06460028E6
:100C3000E2D12169504600F0F7FAC8E72DE9F04FFC
:100C40009DB0804603938B891D060C4616460FD532
:100C50000B696BB9402100F035FB2060206128B999
:100C60000C23C8F800304FF0FF30C7E04023636129
:100C70000023099320238DF8293030238DF82A3062
:100C80004FF0010B37463D4615F8013B0BB1252BC4
:100C90003ED1B7EB060A0BD05346324621464046BA
:100CA000FFF772FF013000F0A480099B53440993C1
:100CB0003B78002B00F09D8000234FF0FF32CDE900
:100CC0000523049307938DF853301A932F4605227A
:100CD00017F8011B4F4800F033FA049BD0B9D9062E
:100CE00044BF20228DF853201A0744BF2B228DF8D1
:100CF00053202A782A2A15D0079A2F4600200A2541
:100D0000394611F8013B303B092B4DD9B8B10FE002
:100D10002F46B8E73F4A801A0BFA00F018430490B8
:100D20003D46D3E7039A111D12680391002A01DBA7
:100D3000079204E0524243F00203079204933B7887
:100D40002E2B0CD17B782A2B33D1039B1A1D1B68C9
:100D50000392002BB8BF4FF0FF33023705932E4D9F
:100D600039780322284600F0EBF938B14023401BC4
:100D700003FA00F0049B03430137049339782748B2
:100D80008DF8281006227E1C00F0DAF9002838D0F1
:100D9000234B13BB039B073323F007030833039351
:100DA000099B4B4409936DE705FB023201200F4676
:100DB000A6E700230137059319460A25384610F89F
:100DC000012B303A092A03D9002BC8D00591C6E778
:100DD00005FB012101230746F0E703AB0093224600
:100DE000104B04A94046AFF30080B0F1FF3F8146AD
:100DF000D6D1A3895B063FF536AF09981DB0BDE893
:100E0000F08F03AB00932246064B04A9404600F046
:100E100081F8EAE7B24D0108B84D0108BC4D010860
:100E200000000000890B00082DE9F04791461F469D
:100E30008A680B69DDF820809342B8BF1346C9F871
:100E4000003091F8432006460C4612B10133C9F830
:100E500000302368990642BFD9F800300233C9F840
:100E60000030256815F0060507D104F1190AE3687A
:100E7000D9F800209B1AAB4228DC94F84330226852
:100E8000003318BF012392062DD404F143023946E2
:100E90003046C047013020D02368E568D9F80020EB
:100EA00003F00603042B08BFAD1AA36822690CBF28
:100EB00025EAE57500259342C4BF9B1AED184FF053
:100EC00000091A344D451AD1002008E0012352468A
:100ED00039463046C047013003D14FF0FF30BDE8FE
:100EE000F0870135C3E7E1185A1C302081F8430030
:100EF000224494F8451082F843100233C5E70123D9
:100F0000224639463046C0470130E6D009F1010992
:100F1000D8E700002DE9F04301F1430C0C46097EAF
:100F200085B06E291746064698460C9A00F0B380A5
:100F300022D8632936D00AD8002900F0B980582970
:100F400000F0838004F1420584F8421032E0642905
:100F500001D06929F6D120681368050603F1040160
:100F60002AD51B681160002B03DA2D225B4284F81E
:100F700043206F480A2239E0732900F09D8008D889
:100F80006F2920D07029DDD1236843F0200323602E
:100F900003E0752917D07829D4D1782384F8453017
:100FA000644855E01368191D1B68116004F142057F
:100FB00084F8423001238CE01B68116010F0400F70
:100FC00018BF1BB2CFE713682568181D10602806EC
:100FD00001D51B6802E06806FBD51B8854486F29C1
:100FE00014BF0A220822002184F843106568A56016
:100FF000002DC0F29580216821F004012160002BB2
:101000003DD1002D40F08E806546082A0BD1236823
:10101000DB0708D5236962689A42DEBF302305F8F2
:10102000013C05F1FF35ACEB05032361CDF80080F1
:101030003B4603AA21463046FFF7F6FE01304DD16C
:101040004FF0FF3005B0BDE8F083394884F8451013
:10105000136821681D1D1B6815600A060BD5CA0799
:1010600044BF41F0200121601BB9226822F0200218
:1010700022601022B7E74D0648BF9BB2EFE76546F6
:10108000B3FBF2F102FB1133C35C05F8013D0B46E3
:101090000029F5D1B9E7136825686169181D10604A
:1010A00028061B6801D5196002E06A06FBD5198085
:1010B000002323616546B9E71368191D11601D6897
:1010C00062680021284600F03BF808B1401B6060D0
:1010D00063682361002384F84330A7E723692A4625
:1010E00039463046C0470130AAD023689B0713D445
:1010F000E068039B9842B8BF1846A3E701234A461D
:1011000039463046C04701309AD00135E368039A2A
:101110009B1AAB42F2DCEBE7002504F11909F5E775
:10112000002BACD1037884F8423004F142056CE71F
:10113000C34D0108D44D010800000000000000006C
:1011400001F0FF01102A2BDB10F0070F08D010F878
:10115000013B013A8B422DD010F0070F42B3F6D17C
:10116000F0B441EA012141EA014122F007047FF095
:1011700000070023F0E80256083C85EA010586EAEC
:10118000010685FA47F5A3FA87F586FA47F6A5FA28
:1011900087F68EB9EED1F0BC01F0FF0102F0070234
:1011A00032B110F8013B013A83EA010313B1F8D1DF
:1011B0000020704701387047002D06BF35460338C0
:1011C000073815F0010F07D1013015F4807F02BFF9
:1011D000013015F4C03F0130F0BC0138704700BF4A
:1011E00010B5431E0A44914200D110BD11F8014BC5
:1011F00003F8014FF7E7884210B501EB020307D867
:10120000421E99420AD011F8014B02F8014FF8E74B
:101210008342F5D98118D21AD34200D110BD13F8F8
:10122000014D01F8014DF7E738B50546002945D0D5
:1012300051F8043C0C1F002BB8BFE41800F0D2F8A2
:101240001F4A1368104633B9636014602846BDE82E
:10125000384000F0C8B8A3420CD921686218934204
:1012600004BF1A685B68636004BF521822600460A0
:10127000ECE713465A680AB1A242FAD9196858181D
:10128000A0420BD120680144581882421960DDD178
:10129000106852685A6001441960D7E702D90C23DC
:1012A0002B60D3E7206821188A4204BF1168526876
:1012B000626004BF091821605C60C7E738BD00BFE9
:1012C0003801002070B5CD1C25F0030508350C2D24
:1012D00038BF0C25002D064601DBA94203D90C239B
:1012E0003360002070BD00F07DF8214A146821466B
:1012F00091B9204C23681BB9304600F063F8206098
:101300002946304600F05EF8431C24D10C2333609C
:10131000304600F068F8E4E70B685B1B18D40B2B31
:101320000FD90B60CD50CC18304600F05CF804F1BA
:101330000B00231D20F00700C31AD3D05A42E250FD
:10134000D0E78C424B6816BF636013600C46EBE736
:101350000C464968CCE7C41C24F00304A04205D025
:10136000211A304600F02EF80130CFD02560DBE79F
:10137000380100203C010020F8B5074614460E460F
:1013800021B91146BDE8F840FFF79CBF22B9FFF72D
:101390004BFF25462846F8BD00F026F8A0420FD2A4
:1013A00021463846FFF78EFF05460028F2D0314629
:1013B0002246FFF715FF31463846FFF735FFE9E7CC
:1013C0003546E7E738B5064C002305460846236056
:1013D000FFF728F8431C02D1236803B12B6038BD06
:1013E000400100207047704751F8043C181F002B43
:1013F000BCBF0B58C0187047537461636B20667292
:10140000616D653A0A000000205230203D20202501
:101410003038580A00000000205231203D2020259D
:101420003038580A00000000205232203D2020258C
:101430003038580A00000000205233203D2020257B
:101440003038580A0000000020523132203D20255B
:101450003038580A00000000204C52203D20202542
:101460003038580A00000000205043203D2020253D
:101470003038580A0000000020505352203D2025EB
:101480003038580A000000004653522F4641523A65
:101490000A0000002043465352203D2020253038CA
:1014A000580A00002048465352203D20202530385D
:1014B000580A00002044465352203D202025303851
:1014C000580A00002041465352203D202025303844
:1014D000580A0000204D4D464152203D202530380D
:1014E000580A00002042464152203D202025303835
:1014F000580A00004D6973630A000000204C522F07
:101500004558435F52455455524E3D20253038587A
:101510000A0000005B486172644661756C745D0A84
:10152000000000005B4275734661756C745D0A00D3
:101530005B55736167654661756C745D0A000000F8
:101540000000000000000000010203040607080973
:10155000818D9688848D7E6C6969869893949A9A19
:10156000A399929A94949391817A7689919C8B6AAB
:101570006E7C877B757483827678735951606E7543
:101580007569665D5B68727D93ADA698919581865D
:101590007F74715B696D6C756F778389969DA2A26C
:1015A0009A8B8084837C766E675C6E83858789984E
:1015B000AEAA9C907C7C7776776B73797A79777713
:1015C00071818A91837C83847F7970737D7C888428
:1015D000908690988D7F737D766E6B7C6C6B879414
:1015E0008C9AA593908E7B6A696867574D41485ED7
:1015F0006C7989A3A4A79A93927F8A7C6F6A6957B2
:1016000059787E8E9EACB3ABA39D948C827E6A602B
:10161000615D607386A0A8B3B9B097736D6B67679F
:101620005C594F4E89609F8649E1E580576A89ADD4
:101630009A61351426497196B0CAC6BB9A947F6CDC
:10164000644B434F585A72839394A2A5AEA7B2AA93
:1016500096927B62433E34465E767B8482858E8A98
:101660009192AAB3BDBCB69D8E9B999A92876B62EC
:1016700063604B42413A4D4F5153556272798787AF
:101680007B8187808B9397B5BCD0CDD2D2D6CDB895
:10169000B197A0908B8E89818482687A85938E72AF
:1016A0006F4C412A1617131F2D39304B5772768B0A
:1016B0007D7093867A64635B5565777989A9C0D21A
:1016C000DCE5EAEBD6C3C693958F7972829297BC1C
:1016D000B3C8D0DFB68690815B5F5540634C3D5305
:1016E00078826D7F626D5E3324213A29515B5460AC
:1016F0006C706C8A846166504D4459506E8686AF1A
:101700008DA4ACCFADBBBEB29984877487A6AEADB5
:10171000C3B9C299C8C6B7C2B1A4887C7C686374D7
:1017200090828A78668B88968AB5826A59453A4053
:101730004F32483C5138404B558E7F9391763F5005
:1017400048224741411A525549546EA0B4BEA29B4B
:101750009D806C79767E6F7D7583767EAACDEAE575
:10176000DCE7C3AEAFA8A989AB929D9F7F93A1B5DB
:10177000DBDCDED9D5B5A5A5998574A16C6F6C6A43
:10178000576CA7B69F8DA66C7D666B3F4A4D2B3A72
:10179000363F2543315C75614D6E68474F4C412C97
:1017A000342512474E26263E68508C857C6763920E
:1017B0007A4B407C5A4F6D9755418BB4B6BBCEAC3B
:1017C000B78FBAB69CA69EA3969CB09674A8BCDCB4
:1017D000CEEBE3C3BACEC89DA89DA199C8C18764CA
:1017E0009BBCC3D9D4CC9D94AFCBA3727BA78F7283
:1017F0008B5E3772AEB69F91AB6D69768C5B346849
:1018000051643253340D3A6F857582675740547274
:101810005D2A3D3D3932372A043F7485936A596405
:1018200046517970492A5B552E6036354385A6B3FB
:10183000AC8A8A597C898B6B83807F527A876272EB
:10184000A0EBC1CDAED08FA6AAD2B57AA77A818DF2
:10185000B8808EABF4D4D4DEA4909FD3C3AE909165
:101860007A8FB19A7480B6E5DFBDCAA67CA2A1AA20
:1018700073847A5B6A6B92605B72BDC6B6A1816845
:10188000606C8F8765372C464E6A40494DA58E8E19
:10189000934E31305D69632B232A3A2B4630204228
:1018A00088A984674449424E5E5C4A0E1A3E2B3E2C
:1018B0003F3D4485BB9A806A796E54808663253D9E
:1018C000644D646C6E82BFE0D3A095997E90B1C0E8
:1018D0009C69639488A3A28FA5D8F9E3DBA1BDA777
:1018E000BCD2DCB97D8088AFA7AD9DC4E7F6E5BA70
:1018F000AFB3AAABB7E1B17A707F8C9CAE93BDDF7A
:10190000EFDCAF8C9C857788CD83414B65615D9121
:10191000697F9DD8C0625577463B6F9343202D3930
:10192000243C5C34558BAC7159344D242C5D6A38A1
:10193000121F060D25573433658B834E4246142201
:101940003C70413024241F226432557EAD9C845269
:1019500049565B7D6A5B5552574B4A7B827DA8D2C4
:10196000C0A57B98927E88A79B97957F776EA9B933
:10197000DED7D7CFC9C4AFA68FAFBCA7BAB49F8CF0
:1019800087B4C4CDCEECE4D3D4BEB58494B0B3B1A7
:10199000B8B4928A8FD9D5CCCFD5DFD5C6A4948CD4
:1019A0008B7CB7B4976B6591ACBBA3A59BA7B99A89
:1019B000715F5B5B4B79886E41354D60897A775EEC
:1019C000778D70402F37261B3E6852220E3A3057D3
:1019D0004B3B39387A624010180E1336574F182691
:1019E00032393A503C3645646A3E2D343319235D12
:1019F000805A423C40516F78696E9CAA6E5B686465
:101A0000443D86C5B8886E8791B0C3A3A9A7CFD23D
:101A1000BDB1A7A26EA6DAE0AA89BAC4D1E0D4AF5C
:101A2000A2D0E8E2CCBEBD93AED6E2C0A6A5CAD88D
:101A3000D3DEB6BDCBE8D8C9B9AC9782A1D0CB8EE6
:101A400083A89F8DA69F7C7DB0C5AA8584564048FB
:101A500090AD77607C8B685D5756345B919F583BA7
:101A60003F3C232565464552664E47693E404A5EE7
:101A700077475B50311D1E4E5658434C4C314C71CC
:101A80004F1F318D9C4F474124112C767F5958713F
:101A900046356A5D3555B2B16049655C273079914C
:101AA000808389705679735D7DBAC390848E7C552E
:101AB000618BAEB5A7877D7E99B2889BD1E2D0BA03
:101AC000BABB8066A8E5F1C4A9BCB793B4CDAAB7E8
:101AD000D1F7E5D1C7A8B6B9D5E8CFBEBCB5AEAF92
:101AE000CCB6ADC6E0CA9EB8C1BD9EAECEC1918F88
:101AF0008E9795A4A77A91A0BE8F868378565CA610
:101B0000896F414345496B512A37607B775A451CA1
:101B1000201E313C472B0F1C253A181E1637436FE9
:101B20003C29311C230938352D131D182945481A25
:101B30002C5C82715A6C433C4F8A8A6D565C5B7395
:101B400088895658A1BDB79CAE94838CA4BDB4A51A
:101B50009898ADC6B3A1B4BBDEE4D1BCB3B7B8C5E9
:101B6000D4DDB4B3A8A6ACCABF9FA9D4F6CDD1AD7D
:101B70009E92BED3D4AE9B9495CDA684539CB2CDF9
:101B8000CDB793698495BF8A878983808B915D4E99
:101B900063A5A380929A88515A789F7C534B5D6FBE
:101BA000736E4B6B72A7B0A474453865927E623930
:101BB0003E22486F521D3182948C88764F414C737F
:101BC0006E503C42374D6E5146334D5B9598704890
:101BD0004F5841545A5A394B3D575D451A26679B19
:101BE0008A593D232D4C644E322C686E75664749E8
:101BF0007AA1B084676F6D7972746C748A85849DE4
:101C0000B1C0A9C5D5EDD7C2A5A1C5B3D4E6D2A6AA
:101C1000A3C8D6BFB7B9E0EFF4D7B0C4BFCEDEDA01
:101C2000C0A5C5D7E0E6D49882D3EBDFB8BECFB766
:101C30009EAE91868D90C1A1AA7B5B8398937F6FA6
:101C40006E4D31626E57415451322B4A350B36631B
:101C50006C5845210E1D31535849332437441F0E0B
:101C6000356C713D27132B382C4B4A5A484F6A5913
:101C7000474A7F95A27E54414B5E5D7E77886B5AC2
:101C80006D608472A2C5AAA08F6C636F85BF9D9E94
:101C90008781989E9E90A7CCDFA6A99495ACB0A909
:101CA000A0ADA9A2D2CB6282DCF49C8A908A84A1E6
:101CB000D995646272A6BC9D93A2D5CEC06C4F82AA
:101CC00084A99F9A775D97B9887EA9C8BFAB9E8982
:101CD0007F72AFDBB47F649BDCC7A5A5C7DDDAA04C
:101CE0004F564FAFBDAC9E62738376588AA9D39985
:101CF00081604B3756895C59474E6C7A407088A397
:101D0000753529325050845F32152C4C261352857C
:101D1000654C381E1B0923443E2A1A1A3534266E98
:101D20008B591F1A313539625B382C3735243A6D9F
:101D3000929FBB794F4C67777BBFC99F88A59AB1AB
:101D4000C4CEFFD1D3C4A6BDC2BCE2DEABB6A9B53A
:101D5000C0D5F5F7EBC09CA4B0C6C9E1DEB79FBB08
:101D6000CB9DA0BCFFE5CAB4AC91A5CEA7BB898032
:101D7000889396A2B5BCB9805F5D594E68928D3943
:101D80001B2D281A4686B4AA582E163E39474A46B5
:101D9000461A321923254A8088612D2839536D79D6
:101DA000826436453937557EBFCD876B4C644F68AA
:101DB000949E8C5774615C4C73A7B28C68635C6FA3
:101DC000877472624A5963566BACB4B7A7704355B7
:101DD0007FA48492975D4C584F4F849FC1AD8D6511
:101DE0004B648D6D73776059535A498CAAD2A97C84
:101DF000505189A7BCA78C7989705D3D95BFE1E6FC
:101E0000B48881B4B2BBDCD7B3C5CFB59CE2E5EDF5
:101E1000E3DFCAB2D5D5D6D5D0A29CA1AB8DB2E4B2
:101E2000FDD0A1A7696D8BBAAF95938879514D50BC
:101E300082ACC9996359496E86925A36486B362EE0
:101E40004C4F5C6765261012374A472F1A1A481DF7
:101E5000021F3B624A58330F08283D2A25261D3FA2
:101E60004F2112215C73643B1F1B57867F635658BA
:101E700079754578ADD0E2E7C0A57A93C5C7D6CCD1
:101E8000B9C4CEB1B9B6CFE2F3D7A086B9E3DBC30C
:101E9000BA8F82DDC3B3AADEF0EFC69B8475BEDDC8
:101EA000E4B7A288B9A1759198BED5CD8D5A457B6E
:101EB0008C68725E466B78665D84AEA26F3E3F2D85
:101EC000507D875935315B54262E46819297695350
:101ED0003C426C837C734A6E7563756E9B86BF95BE
:101EE0007B7891A797AA865E638E7F789BCEA29718
:101EF0005C554A4A897D867B81514857484D699394
:101F00009B6A5453364B7C8F6A3F46694C485F53FB
:101F100064717132213C3C4C609668383B424444C9
:101F20007E877671705153617A776F8B758F756B81
:101F30007C93A691908984A5A6A8C6BAC0AEC6B463
:101F4000B9C7C7F3E5E1C6BFBFCAD9E0D5E1E2E052
:101F5000E2CFCCCDF8E0CDA8968390B1AAAF9B900C
:101F600088A08089ABD0C39B90855C6F9D7D807776
:101F7000616D786B603F739892694A322F517D652D
:101F80002B2E48623544304266684E2E1C25425E38
:101F90005F3D3E4044393F333D4D503C2A1F29317F
:101FA0006378554D2E827B5B5C6A8A779E845F24C2
:101FB000608E9BA1717766A4B0999BA9AF8C8A694A
:101FC00050496DA3939785957793A99FAFA7C9B7FC
:101FD000A17178A2BDB6B0B1B6AAACBAB2CCD3BD2D
:101FE000AB8679809CB7AA9A95B2A7B8C6B4BDC88B
:101FF000C2B6A388546A8AABB27F8694A5A2A6BA59
:10200000B2AC9A7B7358838D8A91706C70798A8890
:10201000B1CBA884637D6269758C8253808B6B4FD2
:10202000749DA28F7C4B2E343E4D4B5949484358EA
:102030004A4B64836854654C200F55565446645D82
:1020400053446672729A8165342E21436364455607
:1020500069795D5686AEBB957C58383E578C8B5659
:10206000545C9286727FB8B8B59E7D7C5E728EB1EC
:10207000B17C7F9B939295C7D4E4B596928C9AA835
:10208000D7B68291C8CFA49ACDDFC8BBA0764E77D1
:10209000B7C5B780759BE0A382C1CFAEA39D784F33
:1020A00058B1A2A196858EABAC97C4DCD383606394
:1020B000443E4F9C964B365F90776A7FB19DA681D8
:1020C0004A2D0B3A6D7D5035337B86707D96877532
:1020D0006D585C19365E787C212E4C3734499694C5
:1020E0005849504112235856473E4B686E775E9AC6
:1020F000A2A09566733E6292ABBB8570768D9E936F
:10210000ABC3CCA68D8A675691B4B07F6BACA89652
:1021100095B6A0BDC4835D4C798A94856050749057
:102120007A7375A5B09E8672482865A9D0916D7A9C
:10213000A8C1A7A5C4DCAEA3988F80A6EBB6A892D1
:10214000B1C5A8C0ABBBD6DA8F5C6C74869DAB9072
:102150006494CABBA498C1BFB7AD8F5F385679B538
:10216000974E4063858B576B986F585A692A224B5C
:1021700057374126354F614F5C88786E4052242C8A
:10218000497F4D2218464238391C657473364D27F5
:1021900036477C8F3A34648B787789968A9B8D7525
:1021A000738E9BA6B19C5665938E6883BCC8AEA007
:1021B0009955536DA39785689FC89C9B9FCEEAED68
:1021C000CBAA9798A0D1E2B684899C9B9FA4B4B176
:1021D000C5B9C0B97A79A1BDC57670AEA18A818A28
:1021E0008CA7ABA181426489A39B5A5B655053586D
:1021F0005F827F8A5D3520274C5C7A73633E686A14
:10220000637084AF8B818B564D8A8F8E7B51517852
:10221000797F7681BFA07A6C54616987A3915E5300
:1022200068669B85A5A99A9B87956A729E9F936A0B
:102230003D79784F3E608B8E675A6538608A786F3B
:102240004338615D5B5769968964624D2F56938D63
:10225000653B576A668950578F9FAB6F7A6D4B9974
:10226000A38A7E8EA1A1AC91C5CADFD899B2A1CBB9
:10227000C7ABBBAF8B9D9984838BBCDFBD97998225
:10228000908278829A976F97B6A2A5A6CDBBB2AC82
:10229000988B85B9AD9D7B49667C7C7780A88FA79C
:1022A000AA6E5E797F586B6C6B585E975D3F7D9F21
:1022B0007E485265534768683A1B23424733416D55
:1022C0006C62483B28353E435B535E5A7363464716
:1022D00066939496AA7F7B9C7E7A7D6C7E7F717ECE
:1022E0007896ACA16E705B6C8E9697929881819A6D
:1022F000D3A4A4CFD0BAB0BB9E7EA2B39F7B95AE31
:10230000929A83A68F99B0B09A54626B9198777322
:10231000706E8A9C939FB5B998563B4E8486655DD6
:102320004B6C6E7C6A476AADB9927E4D3B5B79809F
:102330006F536A6F8F97A2A9B3C59A9E87838D9FAB
:10234000C6AA6773606975879CA1BDAB9759444A5B
:102350005D7C876D686695A9908193B2B6AB7D6D03
:102360007F9A95924F4C4268816E7E5A89A0977AE7
:102370005A63746E6A4F5158607A7667667B5A6FFB
:102380006F484E61916F3B27384A444853748B7FA6
:1023900063400E254C8CA691777375728C8699904C
:1023A000BABAC7B78E756FA9A8998BA6C1C9A69FDF
:1023B000A4A8BDC39669709DB9B38A8FA9BDD8BAC8
:1023C000C3C3D7DBD1AA738094B1B252485698D513
:1023D0009968598A9694757460586F887451414A07
:1023E0006772B2949F8776683E38467A8675414117
:1023F0003F60312767918F7E7F3F563F617F5B480B
:102400004B77888982758994A3B596766EA5A0A22C
:10241000715B45629E666377A1927B847842539795
:102420009D616784ADAB979981B0AE8B739CC8CF2B
:10243000A8AB6E6B858C98507E8CB0A598805C6A3A
:102440005282BDB2A276829D73777CAE776176644C
:102450006D6787614A53615E766B636C7E823F2352
:102460004C6E2D3863877474918F807490BEC0A3B6
:10247000928B9F7B869D9667769AC5D9A99E95AECD
:10248000A9857B8D8F7F88AF96756E88BCAFCCB8E1
:10249000D6E2A6805C97888C8A677660807C5656E8
:1024A0007F9E796162706262707654443B5B937781
:1024B0007463899E7037285A4E5E78625F3C374F4E
:1024C00049474A859973573F55694B707E7A5855ED
:1024D0009CA6A5889F9CA07D6D908DBBB8C1A76B65
:1024E0004986AE838EABB3AA895F4C598FA6A58C63
:1024F000AB9DAAB7B9A591CBC2A7617C91AEACB593
:102500009F746069A799ABA3AE9868564C636469E1
:102510009E87A898787E7D9C979FB4964F474C7075
:1025200061594D5C4B47676173737C7F6540243410
:1025300050486F6C767C5C446497A3ADB4AF735D18
:1025400079737294897A908198A7A88B91B58E6FD0
:1025500060A79465748E896D809D9EADCDD4D7CED5
:10256000B468616B8B7A94AD9677596438908FB666
:10257000A9685759985A58585F656363A38259945C
:10258000BDA5694D466F69716E6C585B455F434BE5
:102590006D8ABE643F4B725B4650776E7378868B54
:1025A000909E8DB2836C3E92C7B8B67E725C688F87
:1025B000A97C93BAC9A6754E5D6A87926F9D999D55
:1025C000AAA3829EBFDED8A680909B959CA37F483D
:1025D000717488828B94BE9A595866745C84919900
:1025E000765A6F805E5BA491867E596C443F526B35
:1025F0008252313D62515E9B926F333738327C6D2F
:10260000866D67666382739BB2DCC3987F86765063
:1026100078BAA0979E76A7B4A49FA3ADAA818F96FF
:102620006E6B8FA8883D58B2B5B6B3D0DAB6886B5A
:102630006D858A9BA68472696B59466C9C968299BB
:10264000653A4F5177777A7E617EA78F849394A8FD
:1026500079536137517684826338325175797E912E
:102660007B897A64463D317480606C6EA8A8A18134
:10267000A09F9A8268A38796919C915C50889DA7A1
:10268000D5898694907445597989ABBBA27C73A790
:102690009B91C0D6B5A691838A778A99909F7268DC
:1026A000A7987E7BB1A1613F5B733F807E9B826474
:1026B0009B8C76546495C787584D654618325050A8
:1026C000547271644462697C69392961654D72583C
:1026D000513759909E8FB1DDC2B06C6572708F9189
:1026E000A2B9AFA3B1B2B09794CFA5778896A38EC5
:1026F000827798A3A394B7D0CDD6BCA75A567CAB0B
:102700008B939F8A9750495A7C967A869969494B50
:1027100065413F5C859253897496907F866E816196
:1027200058495A67686E5D3F4A44575576A69D6979
:102730003744304E8184728881809EB0986485AF22
:10274000B04D5F9296B8948C88A2A19F95B8CDBBEE
:10275000AA9D624A6F7F8D80B6A5857DA09AAED571
:10276000C8ADA3997C97BAAD4A5B8697526B9C9E85
:102770009D7A7A615F556E668F806F937C38527553
:1027800097964F73917D5D79785B5F683D473B5FBE
:1027900073588157333F52372C6D8D766B4D576090
:1027A0008390839EBBB6978B4F5B7CA8C76D71B43B
:1027B000A6AEB99C959395A7988B93A4B4A286696D
:1027C00097B29D8E9ED1B39A7F818490B2B7AC832D
:1027D00073A0B66551658B9C5C587B625971737DA3
:1027E0006558867B7387A8B2915A376E6D6E657691
:1027F0008B4B4361564543707470745C80593F3F06
:10280000515250626C8C706093A49A6B5D907F7F84
:1028100082A29F8C5E6CA1848EA0B8BB9389B6887F
:102820007D859FA9A7A3859B8AB7ABAD9A8DA3AAE7
:10283000B29FAEC9C08E7F809973789FBAAD6D4646
:102840004E604A646D558D8066926E65797F8F8B80
:102850005C66737171665A646A4F3D395F6060628D
:102860004C3740563B4569999C67584D61618AA732
:1028700094B189799C85697B9EB3A8717DA58CB83C
:10288000CBA4775E949F84AA9CAAC78A6F79ABB4C5
:10289000B2B7B3B6A39B92747B90ADB0AEA36E7388
:1028A00071828888816F5C78845F60757B6F4A3E37
:1028B00085789A9C84A3715F5E828B76869C9A66EB
:1028C000453C34416681685166595F4840677C8168
:1028D0006B59608F7B8992876D4B54827E72B0A456
:1028E000A27A5B75969A96A0ACBE957B6667828548
:1028F0009FA88A949FAB9F84817CB7C9A99BA0970E
:10290000AABFBA9B7D78949E88A093A98047454B27
:102910006E8B787A8C8685927B5C6E7D9E7F7F69DC
:102920006781715F5E6872614050556158493D42F0
:10293000393F4151706A707B7A52567FA09AAAB291
:1029400084846D79707171839182AE99A0949EA3F5
:10295000B4AD8D8497B99A8E7CA2B2AAA49FA2C16D
:10296000A691AD90998C848C909DA19D8B6C7B776A
:102970008682825F4B6855665D596D826A656576B1
:10298000818D6C6C775C67778A757B6D7B84745EF8
:1029900063737154567476624F5A6F6D6690857D7D
:1029A000797C8E998E86856C7D878C9B93718191C5
:1029B00096A3A1988A9AA1A483716C8DAB9F796725
:1029C0008CA09F809D9D88657176818D757A656DDF
:1029D0007A93847C798284805D68705767526467DB
:1029E0005A5B909F957D788FA29A8C8C7686928A7E
:1029F00087897E8E7B8983959581735E867F8979B1
:102A00007B807C8087836C838F9F8B747C808C73AE
:102A1000807B818C829185848175828079788680A3
:102A20007E85707B6E7E8B9D978E74727A79835BC8
:102A30005B565C787F6D6C8298756A748981818C35
:102A40007F6E676C607662688AA488757192AC93B9
:102A5000776E8698A3957E6B83A1B8967863849EE3
:102A6000898571767F797065789092907D82908962
:102A70008C8571887A6E6A839E8F786A82837F8064
:102A8000809F9D7B635D868F7E7579899194908F01
:102A9000807A8784807F7F7476737F80817C877F54
:102AA0006B7080988B724F64897A54626288918FC0
:102AB0007D6D78727B957D64707C8C797D7D8B9546
:102AC0009B8A726C7E90A476574B627078858E9E3E
:102AD0009A8A708B8B9D7E958C796D80936B889A8A
:102AE0009D7B8B92918885978A8780766D75756EB0
:102AF0006A7D9B957E80798C7EA37056782E91C0DE
:102B0000602A7697C1C07F5A375872939793919CE9
:102B10009C7B66708E8C6B676C887D8994808478D2
:102B200094A6877F97A09F845F5D60677A724D321D
:102B300030588D8D7E81A49CA0BDDACCB5B9B8ADDE
:102B400089735F7664474A3E364B5F5744455C70F5
:102B50006B5E53687A757F8D9FA2B9997E9FC8E09E
:102B6000D6B6BECCC3D1B5ACB7B49F7979A98F66C0
:102B70006C5F7F835E3B5C6A445E544E4E2C3C34FB
:102B80003D4E1E437B4A3D606C726E7B9A9F9182E4
:102B9000928B92A8BDA38BC0D3DEBCB2C3D299AD39
:102BA000D0B3A67D7EA4B499B1A39B7E8C94829170
:102BB000775F6345343E5C6C39464A544B404D590F
:102BC0005A4435485A3E2D476F6C5969726B786983
:102BD0007C7C9EA2737E9094A4AF909098B9B7AD80
:102BE000BBACA4C9CDD1B39A96A2B1C1D5B3B8A19B
:102BF000916E8A95A092806B6891778279987D4FCB
:102C000055577C744562605D4D3D2F41535D7F603B
:102C10006F39345B3D507C8F5C2E4652535F797622
:102C20006F68677E7B94916E8C9E967B818897AF50
:102C30008BBDB2B7C48B96C7CEC1D5BC9EA98F8DB4
:102C40009FD1E2A9BABFB497C7CAABB3A7B4988D56
:102C500083908A7D9C83948D7A7A626B8F9A5F5180
:102C6000484A37564E46543D403F33305D4C7165BF
:102C70002D291F2F564C2C30342933554A54626865
:102C800060525C496257747B5F6E29556888B67BD9
:102C90007D839C9B98A0ADD1A292A1B5968DABA946
:102CA000C2D1B7B3D7C5CAD8E7C09BA0D5C8A5C7FE
:102CB000D6BEA1B0B0CFB6ADB4AAC8CAA49B948703
:102CC00094979F879191817A89917C8E776D6778AF
:102CD00082726269534868473C446171623D3E6755
:102CE0004E32585A3D3C4F40382F224E5860352EB8
:102CF00053465F6B5E423D3F527960404166595B8F
:102D00004C746D4194A88275859995725785BE84DF
:102D100098886B669FAE79D0D4C59FB5C9A1B7B767
:102D20009FA6AD777BB8CDAF9FBCC0CCB4C7D0B0A9
:102D3000C5BEBFB6A07D6EA3D2AAA8B8A1A6A6B9EB
:102D4000ACC1C8837D9088898C85937C5C596986E9
:102D500097AD989279656849385D7264684A4A43CC
:102D6000484D3B527A7963543646413D3938684F75
:102D7000382E2E614C234A5036466B4F2366513510
:102D8000434C4D494C3759605755455579746767E1
:102D90006873776A6B847A6783716C7693AB8DB94D
:102DA000C5AA8897A0A3B9AFA9A3A598A29B9BB4D5
:102DB000C8D3EACFBED0B6BCC5C0CADBCE8F98BAE6
:102DC000AFC1CCD7C4DBEAC1A9ABC5C9CDB38E9323
:102DD000ABB0A2B6AAADB6B7B4919BAA9F909B74B4
:102DE0006F74A089556970857A7F6F66777C6F569E
:102DF000322A47756F453D3B2D424C2F35444E5B83
:102E0000564A1D222F3862473832323E313A383125
:102E1000432C5646343B534A29444453374D39508A
:102E2000696F4C2A5860928B67505A6B857F586740
:102E3000605E79AD9A678B94AABDA79B8E9496A38A
:102E4000B0BAB9A9BCA2979DAFB4D3F0D7E2C9C2BA
:102E5000A6899EE2E5CABCA7A3CCDFB6C5BED8E072
:102E6000D6C9B3AAAFD1CFD9BBA1B6BDCAE0DAA645
:102E7000AEB7B6B0A9BA9ABFACA3A77D83759C952F
:102E8000958191A4868069815F7575626B727A4ABB
:102E9000546B61355167464A505864542733362481
:102EA0005D6246363A3F33302140423A42261C2F7B
:102EB0002E31272F473B3D351F28383D45292927EF
:102EC00046473A471D333F53523F385A6B6C724E58
:102ED0005C6377828A8C887187A6928E91A4B1A058
:102EE00094A0A0A2ADC0B3B2B1C1E2CEBDCFD8CF45
:102EF000C6C8CEBECDD3C7CCE8F4DDE7DDC5BDD4B2
:102F0000EAF3DED3C1AFCCDBC997AED5D6D2D6CAF1
:102F1000ACBEAE96A4A8A9B6B4A59586A0987B89A8
:102F200094869C8D6A695C61647179654A5F6F699A
:102F30005054493D616763453546514F59564D4997
:102F400046483F3134383A3D2A2034423F3A2B2B11
:102F50004C513333333542433A2B41546364514827
:102F600050455A73554549614D575863657088708F
:102F70007977805E687871757B665774688199A7E8
:102F8000A29199B4B09E9E837784909596979090E5
:102F90009FB1BCB6A8C0DDBAB7BAB2C3C3B09BABD1
:102FA000B5DCF0E9CDB6CED0E5DAD5CFB6AAB7C953
:102FB000BEB8B6D3BDB8BFB5CDDCDDBA9E9CB8B146
:102FC00099A0ABB5B9B9AF9D9AA099958E9EA08DE9
:102FD000756D7C6E596D6C5764655C5D6C54292C05
:102FE0004E49291C2031474043351E2C291D1223F0
:102FF0003C3F1E04081F2D2423261B1F34333C2A6C
:103000002A454757492E40556252415C7169646DAB
:103010006253556D79675F55739AA58A708893A539
:10302000967E828CBDA68EA6B8C4C4C4B0D2E4E499
:10303000D3BACAC1C7D6D6D6C1BBD5DCD7D7CECFB7
:10304000DCD2CBC5D4D6BDB6B3B799A0BAB8AAB0B6
:10305000C8B5AFB19E7F859F9C8B8077809088722A
:10306000657F797D7061767D9EA7867771697E86A2
:103070008280878576776C4D5064767B5A45456BA8
:10308000806A5B4F3B516D574C4F53535458443DEE
:103090005E746D687E69605F4D414C7587795148FB
:1030A0003B5063543851734C3D3E4247545C412978
:1030B0002F4254577265605A594A212A294E526844
:1030C0005D464F5069717F817B7685796D7587A2EA
:1030D000A69A948497ADC4C7CCE8C2C4BDD0D4E04E
:1030E000EBB2A8A7A8B1C4D9D8CACCDFD8B4C6BAA5
:1030F000BBD0E9D5B5D0C0DDDFD9DBD8C7D4D8BEC9
:10310000C4CDD8DEE3B49D99ABB1BCCAB69F917E65
:103110006E8384837A726F77625944365273874321
:10312000333532362B1B0B1819101C362A322B194B
:1031300019121627342C445135312E2D2F3949457B
:1031400053473B3C565F3A40476C57364963737B65
:103150008F5C37405650638F8A8E9193686AAFC5F3
:10316000BBC7CEB9B099A09AA9C1C3D0CCC8B4BBD3
:10317000BFB1A7C3DABA949FA09ABBC29E889D8EA6
:1031800094C5D3CDCFBA9B666579867D8C9F7F9899
:103190008085707AA8A9A498A18F9C9F9A94A4BCBA
:1031A000B99CA9A3A2BBBEBAA7B5A3A69AB0A5A372
:1031B000B188755A84B0917989866E6E713F485D89
:1031C0006A5174897D9795AC7F8384996B728B501B
:1031D0005E6E7769616358457976715E56411E3D32
:1031E000545E3E42353C373B321A3D38223A413D2F
:1031F0003925240F1A2330232B4E4E4E38202F32E0
:103200004D57355F69796A817A5D75A0B28099AA58
:10321000B2A3A3877076A1AEA9C4BEE6D2C7AE9D05
:10322000AFC8BAA4BDAEC4CFC4ABA8CAECE1E1F448
:10323000E5E7E4DCD3D2DAE5DDE4E7CCCADFDFC9D9
:10324000A4BCCCB9CBC7A2A4AD825B72B3878E9766
:1032500077848980552F2F2E132E3A4A2726342F14
:103260003F436E3A29474C3F31431C28454E464068
:103270004B4D5A4947415185885C4E5B43445456F7
:103280003527524A5C605A543C544027284E5A3ADB
:1032900052707A9DAD9E8E9393A77E868D728B8E93
:1032A0009984928E849AB9B0A293A38B769D907FD5
:1032B00085A1A2A498906569989C92938F9080694B
:1032C00050526663604C8495A7BEBC927F97ACA2B7
:1032D00072819FC3B5B88988AFD1C9B8D1DCCECCD3
:1032E000D8888B98C1ACA3C4B2C1BEB58C7BAFB338
:1032F0008FA3B2A598A07F9596ABD4C5CAC3C9C306
:10330000E5B48E96A18D86B9AE6C53826C6F5873FE
:10331000675A6F68615052172238593335352B4739
:103320004C3710042425001E1628131F0F172734AE
:10333000362E4061572B5B3125325B5F53605F62F5
:1033400059565E5F899E829A9C9572928E745E84B5
:10335000A4797F7A9EA4A6AB8576958F699AD8E4E6
:10336000D4E9EBC5CFDEEDE0DCE3D3DDDCD4C8DEB1
:10337000E6C3C9DFDDCDE0EEE0A9ACD0BBB2C6CD7F
:10338000CAC4B09051759C747DA796857A73592BE9
:10339000455746385382837877495962633F4C7169
:1033A0004E5B788A47335A673E71928A6858702E0E
:1033B000445B554A675C4B7A724C32325C453C58F0
:1033C000596F5E6450618A9088899F9E99B5C392B7
:1033D0008C898E706F8F8E8563708764546E67786A
:1033E0006C70635E67544E5763334A5A555B65662B
:1033F0005144442B233B374551565C6E6C686B7DC2
:1034000091B6A29DA9989699B0949BAFBBB6B1C551
:10341000D5D2D3CAACBACDD7DBDBCFB3A2B7BDC14F
:10342000BEA0ACC3CAB9ADA4969B8E99B9C5CED780
:10343000C9B1C1CEC0C1B9A4949CA8A3937E9587FD
:10344000748073839FADA2817D5652717B846265C7
:103450007470564B40314255554447333A3F3523FB
:103460001F2D3D504C545566624F38282D49564308
:103470003B383A576C3F3B50697B655F5B484B522A
:1034800053564246636E685E4E5B645F6664626A72
:103490007B838E85828A8D8E9DB9B2B3C0B9AC9D77
:1034A000949C9FA6A2A2B1BDBBA99FA1B4BFC4B862
:1034B000A6A8B3B5AFA9A1A6B5C0B8ACB6BEB7A60D
:1034C0009A8B74889E9C929BA4A5B7A7A8ACB5CBF9
:1034D000BEA89BA1A6A6A5826E889D9FA09F91993C
:1034E000989284767B848D8675606469796A5E596A
:1034F000526C6B5D463B2D4756595B4660735E656B
:103500007560626C745D4245585046423E4D4B5862
:103510005953606E6E6E5E584D52585D5251665DE5
:1035200067485361515D66605B51516E6D4D425805
:1035300079775F8C91878686866C727F96968E7C73
:10354000899C9B959FAEB7C4A39E929AA39EB4AA52
:10355000A3A3ADB59EA6B3B1B5B5B4A4949ABEC2AB
:10356000AE92A1C7C1BFA2B9C2CBCEC2B89C978D43
:103570008D798B82A3D5C1A0BAB8B49E90A98DA72E
:103580009D9E9B875F6941384B5C786E613C573DDF
:1035900056424D434C755F6361675C76646A73A005
:1035A00097696A8D837775587A729D7F5A584C4215
:1035B000312930423C6056535E5B406E62577369FE
:1035C0006B39514F584147353D5E77AE8F909B9692
:1035D000757E5C626D90A07A7A705A56785C7392B0
:1035E000AF9889ADB8998F947691899C99808A77A4
:1035F0006880715455689DAA8A83765C977691B3EA
:10360000BEE8DFE5C5C1A0A7868FA7CCEFCCCCEA8A
:10361000CCB8C3A7BCA5C5B59DB1B493957A5DA63A
:10362000A3C9C6C0D6CFAEAA98A1BCA4CAAB9A887B
:103630007F73746C89AA91A37F827D705A5F304B2F
:103640005B3F64493E2D473D290A222B293D2C2C06
:103650002E2C2024112227372A291A181A0B120D72
:10366000241B2E2B47496B6E83868CA5A4CEA8A362
:1036700087AF9C988F9DB1BAE2CED1C3DACAD69DEE
:10368000ABC5CBCEB7B2BCBD97A786B9C4DBB7BAC2
:10369000C9B1BCBAC193B2A4D4CDB49FA88E6B609B
:1036A00065846DA28FA5999777967E78887FAF8F76
:1036B00093818C5B5D4176717477729A76766570D2
:1036C0004F5A2C5B5A654E3A3F22392A61699C9ABF
:1036D000BBB29C8B8A735F8196B6BBB395AC787690
:1036E0004F65776E8877807281657D60769EA6C60D
:1036F000A991919773494183778C9F97928E9C9162
:10370000A88EADA9B0A785715548362F38554A60A7
:103710006C776977747A583F5F4D563B3B2C331B6F
:103720002323293F3B524646342F383E20373E4024
:103730004B626A7797838693B6B4D6E7E3CCD8E139
:10374000D3D0BEDCD6EDEFE8D2D3C2A796A1C7BBDB
:10375000CAC2CFBDE3D1BDBCB0DDCCBEA9A8AAA56D
:1037600078706E7E8D98AEBDB4A19F82845D5A5DE7
:10377000787A645A675540453B684D5B6E80666950
:103780006A505238463D5C7155465F2F1F25241DF7
:10379000132A3E50373F21292C3C5E769D9E8D9505
:1037A000845A544572656D9B9DAAB09A9C968D9CD7
:1037B0007A8B938F8088744D505687A8B2C1C8BB4E
:1037C000C4BAA99DA7C4B7C0CDA492A99C9DA4C208
:1037D000C4A3C4C4BEB092918278867A7B9B956F55
:1037E0008094745E3D55575A807B5D5F5D4A5F48AB
:1037F0006050525B44392125132B354636334C68D3
:10380000808993909CA3ABAED3C8C1BDC2AEA8B310
:10381000AFC1B7E9E6DCC3B6BCAA89A8AAA0B28545
:1038200095AEBA93897A9F8F94A4717E838D836AB3
:1038300062716998A09D91896C493C3D4933566EEF
:103840005D4263495D4E58756A8D62524F5C4244D9
:103850002948514867777B6A714952375A292E5552
:10386000434C312D2538365E5883A7C5BBA99B969E
:103870009598A78BC0ACAAA8B8B6B78A94A099BBF4
:10388000ADB4A8CAAF9E7B9DA9C5DAC3C7BABAA317
:103890009A6DA8B0BED7E1D1C0B9C4D0B6DEB6C269
:1038A000B6AC9B8B676F634C73627A8B9C80866B24
:1038B00077696D4F3954424F3B48313E213E3C3889
:1038C00042343226271D2D16381A272A344C5656D4
:1038D0006B7D72A17A8EA5BCB8B9C3C3B5A3ADB2D6
:1038E000C7C1C2B5C5AAA1716889949D96B0A1AEA1
:1038F000AEBB8886989EB28377868870735E746A42
:1039000077B2BBAC8F899F916C6B607C736C605F8E
:103910005D41495161666D8A96807B72836A6570EC
:103920007C8662707A744B4D3C483B2A68625060DA
:10393000615753536B4E7E9B9BB0B9B89492788974
:10394000869FCDD2BABBCBBBB19A9A9AADADA68EAB
:10395000978D7673739489BAC9A8BAB6ADA78295C4
:1039600099A8BAACAF9FA58C909DB0A095BFB58B20
:103970009786646950675B62555D6F66684D495113
:1039800058354041433A4F534A433F49313C252F34
:103990002A3428230C0D241E384456597E79806918
:1039A0008CAFA1B4B8B8A9B7B0B298B0BCC8E3D6D0
:1039B000CED0D4C5C3A09287A6B0B9A6B2B58A8F1F
:1039C00078A692BCB991ABA7938C8575958EA9B159
:1039D000B3A99E8D756179897183788268706E5004
:1039E00051748A626A7E785873623738576A6C7F7E
:1039F0007A867B62564938392035433223444C2934
:103A000023334B598A91A3B3C3B59B7E80787E93B1
:103A1000B7CDA3BEA7956F85A29DBEB7B3A58D8771
:103A20008F749AA6A3AAAE9E9BAC99805FA6A5B6FA
:103A3000BDBFC2A7B9B2BBABBCA9ACB2B5968F77BC
:103A4000564F567A71705D778D9A686F5B595A3B05
:103A50004344403A5C4C4524373D3F373C433A2C85
:103A60001A2501222B363A54525C635B6A5EA4B776
:103A7000BCC4D0C2C5B2C8B5A1D2C6D2D3D5BCCD04
:103A8000A6A7858AA28CB1C3C6BCC29FA383919509
:103A900097A6A997838B717A6C849CA2A3B8AFB5C3
:103AA0009B958F5B82635D76817784654945426231
:103AB00067857F827C74625E3E446060757C83793A
:103AC0006E383D3134483148403946544C392B59D1
:103AD0004B59989A9EAAA58691728E8EA1BBBDBDA8
:103AE000B5B3A39B839D8D98A7A486987F83878A6F
:103AF000B3A2C4B6A594ACA2AD746FA49FCCBFAD65
:103B0000B0B598AD97AFBCB8DDC3B0A4997B6D5686
:103B10008E6F738C747D7653464A2E64505E544F7C
:103B2000484A4C553E344F2F3D28351E29101C0F56
:103B30001D383A6C505E5560536F6288A0A7C1B8BB
:103B4000C4AEB29BAA9CD2CCDFE5DBCCBFC39C98B1
:103B50007C907FB2B0C8BCB5C0997482A780ABBF5F
:103B6000BB88968D945A6F9587B8AFB98EA4878F0E
:103B700057698A7CA086827179726D3959476C7A4F
:103B8000747D55472E3A3E83628093967F67573106
:103B900024144239473C3D20424C472643704B7E1B
:103BA000A3AE80B5ADB0767B8E83AFAECAADBAA002
:103BB0009575A0ABA7ABB2AB979A858074B79FCB36
:103BC000AF9D9D8684799678A5AFBECECFC1BDB29C
:103BD000B88E8EAAA3C9B3B0979F8768495C7E88C8
:103BE000B0AE9A69524F4B2546515257595E4C44DC
:103BF0003B493C6F61504239352F26181F0B2B383B
:103C00005957585B5C4350595C96AAC9CECBB6B79E
:103C1000AFA78DA6BCBEDFD7D0B6B69A9B868DA6C1
:103C2000ABC6CAC2ACAEB19565806D8299AA9588C3
:103C300090757F729097B5B2CEB6B4937B6C457198
:103C400075918493766E5A61584E716879867E6953
:103C5000653A4C334B6B70857B7B6D623A35103225
:103C6000514C4458504653333C1B50606A809080FE
:103C70007D8A94A177A3AEB8B1B6B6C6A1A2886A70
:103C80009988A598A38C92888989A0B2B8E1B2B628
:103C90009E9B79766D6F96BDC3C3CCAFAC94A48F59
:103CA000BBC5D9C2BBBCA6996B5F487F5E96A28498
:103CB000735F4A30303665657F5F6A635B3D3126EE
:103CC0003552305A494220170F18143753597A5D2C
:103CD0005A626C3A4D3E8199A8CDAABFB3A5979878
:103CE00095DCBCD9DDC7C4B6BB95817CB096C0BF9E
:103CF000C8B5A391838084AB93B49BAD8AA99C790A
:103D00006C829288BCB0B590A6727669879191A7B3
:103D10009791807C57603675546565726F48452E63
:103D200051468E7D98937663704E3C2D133B274A07
:103D3000395E473F2538344D8A647E808F88997379
:103D4000816AA4A597B093ABA2A28E9469B9B0B5CD
:103D5000A99FA0A4A98F8C7AB297BCB7B9A09D7D6A
:103D6000738086AAB3D8C9D7ACC398A5938CB4A7DF
:103D7000DCC0B48F946B6D5E6F9198A5877F6C5299
:103D8000324D242C2C52736160583E1F3B435557D3
:103D900050474D33341F0D1A1E3C3C5E6A66566711
:103DA0004B325C7DADB5C7C4B8AAB5A1ABA4AEBA61
:103DB000A7CCB9C1B3B38D8D8BA9C7BEC5BFC0BADF
:103DC000A57A95727F8EAD9E969484906D88829D23
:103DD000ACBEB5AFA3AE8E819B756C7195899076A4
:103DE00074595E58607C72887E7D5453394E495EAA
:103DF0006B6E896D62524D25302349525A48415AA3
:103E00003E3E3A5E4343556A657B9193736181956B
:103E1000B7AEBD9FAFB1A78E938D8294889B97AEAE
:103E2000A89F7F9C99B2BFA3BBB3BDAC9C87989859
:103E30009C90ABCBC2C5C2B49CA39FBDB2B1B4B27F
:103E4000AF8C716F7C6665697D7C705F543E3F46C8
:103E50004041315447505B4E3C4546373E3E4C4511
:103E60003A343227373A4E41496F75796C646C8425
:103E70007F949499AAAEACA2A29FAEC3C1B0B8B8C9
:103E8000AEB0AA99AFAFA8B09FB0AFB2AD978D90CA
:103E9000A49E918C887F919A7B788A7E7E7E788B97
:103EA0008381776B7D8885796C686A6F6E6B636FD1
:103EB0007D6D6E685F5F687266646874808E8C8AE0
:103EC000837C786C6E78775A6C6D706B6971566D07
:103ED0007C8A8D7F767E84868E837F8C9196A08966
:103EE0007A778386849390847B757D8A968E7A7B9D
:103EF0008F9386927A757F868A726F84959794895C
:103F0000897E848A838C957F7E86817D818C7A747C
:103F10007E8A89897D757579766D6869645C6C6661
:103F20006D6F7D827B7C7C7E787C7980766C5E5C3C
:103F30006672707075656C6F847E79859193908BD5
:103F4000909D9A9A91968E9490959B938B8C8F824C
:103F500079859B99979690898F9193838084878E9A
:103F600083776D7A7C827E827C7575727C7C7B7DAA
:103F70007E7E76717A7C867D72676D71717F7472D8
:103F8000747B6F65697482837F838C8B8B807A7975
:103F900077777D817B737D7F7B787B7E7D7E767B73
:103FA00080878589867A77828F949A948A877D76AE
:103FB0007983837D8686776D72848D9184808080FD
:103FC000808489787E777A6D77798E888E828A94DC
:103FD00068AD3E57DEA2554C6E9FC2AA7950555A25
:103FE000748FA2B3B6A78F727569584F5A6A6F79EA
:103FF0008590858895ABB0A9A09D8E7A635F696135
:10400000585156534B525F6D8393A0A19B9EAFC4F2
:10401000CBC0A2A5A6947D6F624B4B52473433317F
:104020003B464D51585B5A5B607478828D919290FB
:104030009FADB3BDC8D3D5CAC5C7CBCBBEAEAEAEA0
:104040009C9CA29884767064565858504E474D47B1
:1040500044362A384A544C564E4643525E5C6A7681
:10406000858A8C939EA8ACA5A7B5C0BFBEBABEBFBB
:10407000C1C3B0B3BBC0BCBEAEA5A8A299888D9188
:104080008A827D7069595D625E5A4E514E4C4C4930
:1040900041494034373F40424E565750554B4A599C
:1040A0006A7375778181848C8490A0ABA5A6A4A443
:1040B000A1A7AEABB2B4B9B6B9BBC1C1C4BDADB1B5
:1040C000BABCB3A6A1A0A1A38C7F848D8E897F6F7B
:1040D0006967665C5E636159564F494952534E5356
:1040E00050463C464747474D474A544E4F53575515
:1040F0005C5B5E58616C6B6B6F7A88868081839E97
:10410000A7A6A0A6A3A9B2B8AEACBEBFC3BAC1C28F
:10411000C8C8CCBEB8BFC0BDB5BBB3B6B7B2989F18
:10412000ADB1AEA8A8A09A948F7F7E7E7E7F756584
:104130005A5765655C5D5955514E45454245443970
:104140003A39383537373B3F3D2E313D403F3D45CD
:1041500046433D3D3F526165595862686B6C6A6ADF
:104160007C7F80847F7D939F9F9BA5B0A9A8ACAEE8
:10417000B5C4C5C0ACADBEC3C2C6C3BEC4C6C1B45F
:10418000C0CACACCC1B3B2B5B8B9ADB2B7B7B2AF95
:10419000A8A7ACAAA59E9D978F8E908884858371D1
:1041A000626D777172756C645A5A5E5B5D544E4CE9
:1041B00042413B3D45403D43423E404449454345E5
:1041C0003A3C46423E414B4F4A47473F506B6B613A
:1041D0005E5E626A6D69626E77757B817E818791B2
:1041E0008F8B97989898999D9E9FA191899BB4BA1F
:1041F000B9B9B6B8BBC0AEA7B6BFBEB4AEABB0B768
:10420000C4BCAEB0BBBFBABAB6B3B8BCA89BA3A877
:10421000AAADA89D959DA1978E949B9D9886787038
:10422000777D7A787B746871766E686A6965645F99
:104230005C585A5858524F52474A4E4F5152525258
:10424000524C3D36434E4F433E3A3C413C373A4B4D
:104250004E463F454B4E54574E434D5E5E5C5A545E
:104260005661665C5F6B7A83877D73768087808713
:104270008F979899948E94A5B0AEB0B5B7ADA6AB14
:10428000AEB1B7B5AEAEB7BABDC3C4C9C4CAC9C270
:10429000C0C3C7C7C9C6C8C0C3BAB6C4CAC8CAC9DA
:1042A000BDBCBDC3B6ACB3B9AFB1B2A9AAA4A79304
:1042B000939E9D968F8382877C746569767E776DE9
:1042C0006063606155454D545A554631363B454310
:1042D000393B3D373B3A313739453836352F313662
:1042E00034313C3B372D313330313B3D3E434C4E36
:1042F0003B444D4C4C5754585855575A6B6E676A4F
:10430000797C7E7A827B78889295918A8D9EA5A20F
:104310009398A7B1AFB0ADA4AABABCA8AFB7C1C0BB
:10432000C2BCBDC4C1BEBDCCD2CBBCC0BCC5CCD848
:10433000CEBDC2CCD0C8C7BECCCDCCCDC5C7C7BF03
:10434000BDC3C5C3BEBFAEA7B5B5ABA1A4A4999567
:104350009782818F8A7D7E7E7E7C797A646371719B
:1043600067645E66675F5A4545514B4A4F4F574EEB
:104370004D463E46534D3D383A413A383227293D65
:104380003B302F2C353E42362826313332332F3501
:1043900037382A2332373A3F403D4A4E493D3C4F59
:1043A000585E6B6E6A6C70787D706F767E939997AD
:1043B000969497979DAAAFB3B2ADB5BBBABAB7B34F
:1043C000BDC9CECED0D6CFD1D5D1DBE2D6D4D5D7CC
:1043D000DBD9DFDDD1D5DFD6D2D9D5D7D5CBC4BA9D
:1043E000BBBFC0C7C0B2B3B2ADA59DA4A1999796FB
:1043F000929692847A73817C77716D7071776F5E1B
:104400004D4F4F5C6462646160574E4F5F5C565B1A
:104410004E4B47404238374244443E3631343E39B1
:10442000313236313939303639372C323635363D3E
:104430004B524E494640445459545C5D5F686E6827
:104440005C626E706F717A7E7C867B6E767F7E801A
:104450007877919CA28A7E7F8E999FA39E9C9D983F
:10446000818A969DAAAFA7A5A9AFB5AEAEBBC0CABB
:10447000D0CCC7C5D0CBC7C2C4C8CECDCCD0CCD28F
:10448000C4B7C3C8CAD0CACCCBC4C6BAB9C1C0BAF3
:10449000BDB7B4B4B0B1A2AEB9B4ADAF9C9D9D9B55
:1044A0009F8797978884837978716D5947524F58C1
:1044B0006458473A31432C1E35352D322C181918C3
:1044C0001B181417181622181216202D1D222C2C1A
:1044D000212B2D322C354136484B495B6D6B615594
:1044E00062515268726F696D60655A697274878E25
:1044F000858C8B929A9FA18497AEADA1ABA7B1BBDF
:10450000BEC5BBBCCACBCEDCDBDFD0DAD8CEDBE0AD
:10451000D4CDC8CBCEC0D3CBC9CAC2BBC2C8C0C21F
:10452000BFCEBDAEB3A8989E9CA3938A9179747AAE
:10453000877B929988857E726C8097897D94817C37
:104540007576736E83776F72757A68606D675C6875
:10455000714D455955615C5350475E645A5C5659DC
:104560005851545057777D6365694C5A65666D663E
:10457000755D595E5B5E4D504D3A495A49464F4F05
:104580003E3535382F333F3C4A4C452E2D423E3C7C
:1045900049493B3B4438364E4C5161737E7D79909E
:1045A0009284989FA9ADC1C3AFBDCBCDBFBDC1B2F1
:1045B000CCD8CAE0DDD5C2B5C6C8C3D4E3C7B7CB33
:1045C000D7D0D7D9CDBBD3E0D1DBDCDCC6C7D4C4D0
:1045D000C8D7DFD2D9DDC1C6CBCDB8A5BEB3BBB27B
:1045E000A9AD818C8F80838C6E556B6D6E64666314
:1045F000423D4D40423E373625352309182B1E1BC0
:104600002C0C0E1E2C1F122C38323C504B3D3046C9
:104610003328453328424340444945292C495E56B6
:104620006469655C56714E5180767685756F797BCD
:104630009B8C9AC8C0AEB4BEA5ADC0D1BCC1D7B327
:10464000C1C6B3B5B2C5AA8BBBC3B4C0CAC2AA9017
:10465000999C83AFA6929E896F7A877E6F739D9493
:10466000978F83788084958B74A49B929E9C98AE40
:10467000AAACA1B1CFC4D3D2DCCFABAAB58BB4C79F
:10468000A0B2A48B838D8085748D99899DA3907F22
:1046900083867B578376627C75616A6D594D4D7E4A
:1046A0008587A08F7C897B86564D6B53605B514814
:1046B000493D4E2B3849234A5A4C423B423D0F2537
:1046C0002A1C1C231C23282127022A252D3A39398C
:1046D0003849503F38686162706B787E6B7B566FEB
:1046E00098798FA39FA4AAA5AB7590B6B7BDC6AEA7
:1046F000AFBDADB8A7DAD8D4E0D9CCD4DBDBDAC70C
:10470000E1EDE9E4E3DAD8DEF1DEE3F6E6EBF6D854
:10471000CCCAC1D49CBADFBAB8C09BA39375856FCD
:10472000888C827F784C483F5C3A10433C36464741
:10473000121D1B251F254E43374F4E525B435D3CD8
:10474000517D6B7079525C583D5B39487A595E7D7A
:104750004F6151635C2A495752556A51594B4C4835
:10476000406A77525A6967776C875147797380A49A
:10477000A28697979D8D7CA78B7FBC999E977EA1E3
:10478000686A8C75859F8A8C897C83597694738737
:104790007A71817E85754F53726D7B89756F7794C1
:1047A000907CB3B0A5CDCDD5D8BABFAC88C1B6A7E3
:1047B000C39FA3B198B6A198CDB4C8D9C8C3C9CB7B
:1047C000B6B1A4B7AEAFB99AA7B09CA6A0B3D6B8FD
:1047D000CEC8C6D6B8BDBEA8AFBFBBC9AC7D775EDC
:1047E0005863589B825F7B535D57373840302E2883
:1047F0002E3720140E1313090F2E1A1A2F181824EF
:1048000014101A0F232237332535282A354E77996D
:10481000737C7B78987C7974596F8678A08B6E86D0
:104820008281717FACBD9CABC0C7C1AAB4A190B35B
:10483000B9ABC2A79CAEB0B5A8BFE0D7DDE5E4F147
:10484000EFECEFD0C5D8C6E5DDBAC5ABB2B999AECD
:10485000BEA4BBD7DBC1A29C9B8884847C7D5A62AA
:104860006349525B475B62455A6E7865697A565573
:104870006F5E71736A796655534269946860515EE0
:10488000775B60673E4C6C656C565D5F5A594A5465
:10489000787667735C6F876E777C6D7A849E967886
:1048A00087756B84849EB8A3AC9B7C86696C91628F
:1048B0006580626C56424439333A4D635B3B4241FA
:1048C00050542C3A3B2942403A41414038394753F1
:1048D0006D8C756F817A98928FB1AAB8D2BCB1B243
:1048E00099B6B9ABB5B3BFC6C1C4CFC3D9D1D1D5C1
:1048F000BCC9CED1CEBABECABAB9C3C3D2C5AEBB8B
:10490000B2BCBBAFC4BAACB3ACA5A08CA6A6A6B8CB
:10491000AEAFA6948BA1858A857D84696869615B49
:1049200067677558605E5F6C504749493A474A541B
:1049300044454B3B3332282B353C4B454E433F4897
:1049400054545B565353494247543D412F353F3BE6
:10495000424E55555C5F6D6979727D776C777868EA
:104960005E6A687369778592908E85919D9FA59EFA
:10497000AC9C9FB5BBADB7AD9C9093A6AAB3B8B1A4
:10498000ABBAA8ABA9B3B9ADB7B9AFA7A79BA59769
:104990009FA5A3ACA09EA1A5A9ADAEBBB5A7A7AB93
:1049A000A8A49C9C9590A3A3B1B7B6B5A7A09A9ACA
:1049B000929C97878F856F696F7A777A7B77787605
:1049C00078807B696F6F736F636D63594F4C4B3F9A
:1049D000464F554E5952515D5453514F5563636A7A
:1049E000584B473B3B45494B4951422B2F639A8BD0
:1049F000815957323C648297685D2B232054849CF4
:104A0000896A72323969BAC6A79D835D417299A1DC
:104A10009E988F656284A58BA09F70808DC5B1A67E
:104A2000B5AF9381A2B8C0B4BFAD96A9A1AEACAFEB
:104A3000BDAEB6B3BCC7D6C3B0A39C8F9FC4B99D4F
:104A4000ADB5B0B5A89B88B3B19491B4BCAC958614
:104A500066437A908C949F8A81838C7B6D869C8B35
:104A60007B747EA06D6E5E4A5A626379574B673DD8
:104A70005A434A517F8B7C6D52777169555040394A
:104A80002C4C52190F292D22140E3E6475533346B7
:104A900066645B7B6C5D6D6365726B72766E82655E
:104AA0007CCFCCC2969BA4AEBFC2B7B3C5A6B4AAF6
:104AB00097939E83795B828D8A86565F45678CA526
:104AC000888C806F647165676A6F563C5D8A9279E5
:104AD000795A664C9DADB9B6B09186AC9FCAC0D923
:104AE000BEB3C4B4DCE6BAAB78ADB1B3D2D0B97260
:104AF0009495AED2E6C0BDC1B6B4B4DBB396747FB4
:104B0000A19DB0A46F4E4E6584A7D0B789696B6F25
:104B1000828384683C3E457D6A4B3B271C0E1849C6
:104B20005B473B413D38495760381F4C4A3F5E3731
:104B30003F130B27184A5F646C59517375697B6C7E
:104B400062757F9EA48D68676161769A96949F8B4B
:104B50008575A1AA915E628093B7BDA68278759D86
:104B6000B0A4B5B8C9A79AD8D3E6C4B0B496B1F486
:104B7000E4CBC6A0AB7FCECAC6E4E2EFA7C4CFCEDB
:104B8000ABA18B5D67667E7844444029515B8AAB5C
:104B90009B6E606E79745D6D432F4133223A3F3DC9
:104BA0000F1B52737EA69E7E95ABBF9BA891897BFF
:104BB0008E886850766E5855597E7FAA87957DB14C
:104BC000D0B8AEA2908982608243524C4855529927
:104BD0009A8163948799A992B59688888F7F80641B
:104BE0004133473D2A68797B623F6D5A61646A6E42
:104BF0005375475A45594F3F543A5E51666256576E
:104C00008BA15D508E9B76637DAC8F7BA8836C906F
:104C1000B8D09BB2A1A4C7DAD6ADA4A79E8B9E84C0
:104C200094949B8676A7C7BAA1A289A29BB5D1C24C
:104C3000C0C49781AFB49F849873738EC9C4CDDF0D
:104C4000B6B685BAC1C3959986779985977D9954EB
:104C500041545C585A615356406461665449312E40
:104C60003D294D361F152A3E2F344537263A4B51E4
:104C70004861815F1A64886C799A865987A2855D3C
:104C80008BA18D779EA47761C0C1687F89B07A9728
:104C9000C38EB5D4CAB58C9B99879EB0848598A1E4
:104CA0009F7596A78D8A96A9DCCBB89695AE8EA4F3
:104CB000A99D8778705C7C71623B306F5D80A589AF
:104CC000AA958F937C898383726D3C5F5D636A29AB
:104CD000443C3C798A95ADBEA9859193A3769B7E91
:104CE00094907D938274546B5CA094A89D8B98A043
:104CF000938E9B8C9F8A818B7284917489628B8046
:104D000088ABB1AD96A86F7C849DAA89B896939123
:104D10008D8550758B8D77AEA9B3948185505444A1
:104D20004C25483A41374A545D5A3F56336278978A
:104D3000572A433924394E44281D22152C56877F83
:104D40007EA6AC92BCB6A096C17C74938DAD6298E1
:104D5000768A8887A58BCACBD3CDD7DCC5D0CAB716
:104D6000CBAB9B9B6E8B8396A388AA99C5BDACCE1B
:104D7000BCAEA4B9B2B5A497AD705B745E75616B3F
:104D80008D77A7B39F7C644D3B70617C6E705D3BFB
:104D90005B3454513E485B5782966F6350373739C6
:104DA000526461553E563550766C5B719391ACC23E
:104DB000B69753527C6183925B5F54555A5F7B6E0A
:104DC0006E7AA5BEC6CAD4987F8B8D879696788357
:104DD0007095706C7E8FA6B0D3D2D1D5B4C3B6B265
:104DE000A087A273AD8485894C585F5E77806B8EF7
:104DF0008E8C6E8D8A808371493F6249492C392798
:104E0000144D6E7564635933345B839D9E827C7F41
:104E10008994856F43618297B3C0B9A0859FA79796
:104E2000D7B1AAA0A3B59DBDA28C8DA9ADB1C6B0C6
:104E3000958CA07D97B2C8A88EAF8886839B867D0F
:104E40008BA08990A9857E6073646E9883778C7F30
:104E500061605D4A244573704B6C7F5A53507651A4
:104E60007177534C675B293839261F63725D407038
:104E7000614E4976756EA6959992AB726B666A6AB9
:104E80006B929F8983877A687199979BA9B9B2BD04
:104E9000A28E7C74869EA5A4AA9A8F9F9B91B8CC63
:104EA000B9ABC3C0C8C9B1A6958C70ABB3C0AF9144
:104EB000AB828F73AFAF98A98D758E80644C3B66C3
:104EC000465F707960555552354E553C43536242AA
:104ED0004A43420E122E2A38465A5F7599856F93BF
:104EE000A99D8DB3928991717F6686827195978411
:104EF0009AB8B5A5A0D6C3ABCCC8B6B6917D6D7A2D
:104F00009C7E94A69280A1ACB79AA9C296A4A2AAAC
:104F10009AA2886F766E69728F81516781829971CA
:104F20008E826278756C7D6F50514267525D764D0E
:104F3000404950584D5673516B614755544B41434E
:104F400037575D8B8F80838DA47C839CA7768E9C46
:104F5000877F7A6A60765F8490A99380AEC3BAAC8B
:104F6000B0B6A986BCA699A785898B8C9696ACB15C
:104F7000A89CB7D0A8BCC3CF989DBBA7A99E909171
:104F80006E698380A0727B517B9580846A824964BC
:104F9000675B71503F5028242837431B2D3C554FE9
:104FA0004A464B3F38352C387B87838D5D877C990B
:104FB0008986A59BB0B0ACADA07A8A8497A2B8B41C
:104FC000C5B285B0B3C1B7B7CFA7A5AAA0AC888139
:104FD00082817FA9A99FAE938B8D9789A19EAD9E5B
:104FE000A09A8E8C63897B5C679E8678676A7E66F2
:104FF00082767575817D7D7C6970574A562E4B612E
:105000004C4C304649545A434553625D5C485464A5
:10501000546F6E6D93948E857C918596A299896F5D
:1050200083858291A38A8196787CB1999EABA0A357
:1050300084929CABA9AA9299A4A3B57D95A78991C6
:10504000A498B3B8CBC1A2BFAFBFA8B0BBA9959974
:105050009168637C716F6D687E658272706B5E5E55
:105060006B6655532A402020351F30432935343A8A
:105070004737553C2D436969958D989C667A7A919E
:105080009E968B9A90A28C9E9E95A59FC1B8D4B3F4
:10509000B7A87D9E9EB3C293A19996AB8B9B909629
:1050A000B5B8A1A9AC989F846C8685A7B18DAD9940
:1050B0009F6F6C89757E94A266726F8066506C6D6E
:1050C000728E775D866C745E5D5C4B4662594444BB
:1050D0003C56253E503756694555544561576B68D7
:1050E0007995A38F8E7C8B8765777982748B788294
:1050F0007DA09B89B19396AEB693A795AE886D8738
:10510000879EA7B59D9EA2D3A0B3BB9FABB0B19F16
:10511000A7A4B681929AA0AABAA08B9A8CA29C9BB3
:105120007281857B7E81646E6A41625956687446DD
:105130005751383A3C472C474A292E2C202F1C2FF8
:105140003B242C615C617D819E92A597939CA896DF
:105150008B928A6C608A998996C1A8BEC1CAC5B370
:10516000C6B7B0BDC1AEA780907F77938485B6BE29
:10517000A59FA3B090A19B969EA998A195877A59C7
:10518000646B7866A89C8E7D757A798D86918E93F6
:10519000846C5560464A41503C436A4C504E5145E0
:1051A0004457483D5744583F2324314152685DA23B
:1051B000A085968E869E8F9185848C70867368609C
:1051C0006C769E979AC1B1B4AB9DAAB8BBAF9DA7B0
:1051D0009EB29F938E8D899BAD9ABDBDB2BDA8A690
:1051E000B7B9D1B2B1A3A99D8F7C4F776A806670A1
:1051F0009B7A809B87807C8E8F7474505E3A352CAE
:10520000141F282B2A36434C434A3846425B4045FC
:1052100056556559473E5F5A847E8098AF93A79B49
:105220009DA493BA96B8A5B8C5AF92938E9FA69742
:10523000ADB2BBB5CCA1BCB3D5C5B2C4B1BDA8920B
:10524000735E46847678979F83939EA89C85B09AD8
:10525000A07D8A94935F5145385D5F79999C7283F4
:105260007F8D7087917B78654F6562253C12203376
:105270002D3A544A50434A5B44847D778988798B20
:105280006A5B6258606970837D6190929F7C9CD854
:10529000CEB9B8BEB8A8787F636A8D8E9AB8A4A735
:1052A000BCBEC1A6C0D3C8C5B4A6C69D80916A7A4B
:1052B0009B93A8AE9096A6A0859DBAB598A68F6A36
:1052C00088616F5539594F63736B564346421D448D
:1052D000644E484341302C1D200D12201B30544693
:1052E000526F51645D9DB1A19F9AA4918D887752B0
:1052F000827876A0B7B7B4CEBDABB9E8C4C4B1ACC0
:10530000BE979AA1918BAE9790B6B9A0A8B2A3947C
:10531000ACBEA3959289897F70775D5C60696D7F73
:105320008C7A898B7D8493868A7B747D6E5C6259CE
:10533000414B3645495662597571646770766D4BBD
:105340004F53403E4E4D3C483B4766807B759A87A5
:10535000A2B7A1AC9774858972817D797F8C8D917C
:105360009DB0A09CB2A8CAC1B0BBAD9BACA38E8AB5
:10537000817F777B6C7A8C9688909591A3A6ACA65A
:105380009187937A766C6F705E6C6A747674819E86
:10539000A2A9B7A8A5A292857C625B5151574C4D3A
:1053A000535B58566C7C7B92868D8F85837D7C6C9D
:1053B00061545E564B535E6C7F8090A0A5B8B5A635
:1053C0009BA19FA29391926D5F605B5367797A81F5
:1053D0008395A4B8B3A39796928C826760575C4E6E
:1053E0004E485A65738291A19DAF9BA39A98999B51
:1053F00094886F6B72657E7280878B8699AFACB232
:10540000A196939188887C756E514D535756607361
:105410007978829C9D947F86867A7A7474656C71A3
:10542000605E66606D81847E8FA8ABA19194927D51
:1054300085846E6D66666369677B949C8E81A9AA7C
:10544000AA88887E6F7A777E5D6F6F675E6B7B97C9
:10545000AE92838793959B8B887364687A7480ABD4
:105460008E9173676975A0A2A5837E6769595D7087
:10547000526361645F758AA29F8E8E847471969E5A
:105480009F9567525C53577B937C787A807B90A57D
:10549000A28F758F8E998A7D555340325078797CD2
:1054A0009192A4659E87C17E34DACD86555F79944A
:1054B0006C5457575E6E8EB1BFB7AFB79677878D76
:1054C0008E6862583C3B597D9DB6AEA1B29FA796AF
:1054D0009689616469A2937C572A22404779A8A6DD
:1054E000A193A2A1A3C4C7AD7C85B7A2A65A4F338E
:1054F00027353C8568524E5F53354264805C4A8D47
:10550000A8C4A67C868B7278ACCBB5AECEC3CAB726
:10551000A7A2999C847497929A72704F489AA47229
:10552000347270505B474F452A4B388076366F7126
:105530004C4679917E68759ACCB5B0BF90787A5513
:105540007EC9CDC6B0A8A7CADBB4C5AF919392B24D
:10555000B3927E8B505E9D8AAB906152498D723AB8
:105560004D8A634F66778337310F1813314B8C8820
:105570004A5B7BA2636F84776180617D718585580A
:105580008D83A2ADCC9B7C8CB2B9A5ACB1CAD7DE61
:10559000DEAE848358897F71A0D2B69ABCB9B27648
:1055A0007DB47C6E7F7C8A4A86665A542F74717AE9
:1055B0005B5E56664A30546C7C7A606850444E0C90
:1055C0002C312E3680876B75797A536D718E8F757D
:1055D00079836B8389787C6473BDCCB1C1AAB07EBA
:1055E0006FA7DDE0BBD0B5B6BABD8F6C895C67CC68
:1055F000EDD3C3D3B077ADB8D0A89FA68D5877B5FB
:105600006979466070839CAB9F684832525C8269BE
:10561000926940434F4526320A243F686B607161AE
:10562000243E4D57435A80363C375F312E2F294355
:1056300068BF96996E4A5D668C9374A6A98A93900A
:10564000A79F833F4F87C6CCD7E9A7AEA9A5E0D6D1
:10565000B1C0CEB9A0ABBDB77C8A9ABFD8C8E3E7CA
:10566000C3858FAAAEC1C4BEB48A8FBDAA696C5F60
:105670004466B3C8B3A1826F5680928C705A66504C
:1056800057744E382A2C374A717FA0523D46343F1A
:10569000545C54634241414F6324162929515A7A7C
:1056A0008D80745B555C525382756854637955657F
:1056B000414255819694B796C8A4719592617DB880
:1056C000A69598AE8AA696749CB3AA99BFD4D5CC59
:1056D000D1D79D95A5B2BF9EC2A893B9AE9C8AB200
:1056E000ACA8CAB4C8E0C9A28BA39081AB8F867E58
:1056F0007E93867E6B66658085928DB1A8968F7548
:105700006045403064455F6B6C5C4661513B537053
:10571000515F4B70748067332A333B19485A5933B1
:105720002160654451663E4F7E3A48737E6649313A
:10573000233A59744B575979836C635365677D9746
:10574000A3788CA6819B7D818050747C94B4C8AE74
:10575000929E9FA39EA3BFC6AC8393C0CDE6B8AB79
:10576000AA8EABC6DEE1C49E86BBCFB5AFC4D5BCA6
:10577000C3ACA8E4E2D3B19DC1B0B8B1ADC0A48DB3
:105780009CA4AC928C938B7B7FB59D7C7EABB0A2AE
:10579000926C515558604D58574D4D38544A5F7270
:1057A000604A31467D7D7269604634433623252048
:1057B0002619173D63733629374B5B4C65644136B8
:1057C00052643E3825240E202B2975754C2B4E8AA9
:1057D000867D764E555A88B0A6A0A78358513D4F76
:1057E000949B747B91B4BEC9B6AAA3A1BECFBABD27
:1057F000C6BF9F928EB1E3C99B79C4C59CC4DCCF60
:10580000BDB0C3D3F5E9BAB19AB8B3C7EFDBBD9F5A
:10581000C4E3D49F9F9F8EB8BFD0AEADC4A7889A73
:105820008F94B48D9092A6AB979A8D743E5E887DCE
:10583000706A88576D5E658F82623E61776C5C929C
:1058400088515071727B3918281C3742514B4638A9
:10585000343A55464638343D325E534C2A21382B73
:105860001B203E2B162756615330293B364B49618E
:105870007C6B64583F2D557194972E3D5BA9B86C95
:105880006054746896AEBFBF7E645F78ADBEBDAA3B
:105890009096A2D2E6DEA2879191A9CEF9DEAD98CC
:1058A0008FA2B7DFE4D2D1C4E2E8F1E5D3E3B88F49
:1058B00098BED3D4B6A7929AB6CEEBB8ABAABCC664
:1058C000C2D1C4B9A298A3B8A8614B504674655C14
:1058D0006D566E80BAB18774667E748A7B65796A0C
:1058E000414C443B3723200C366081664440323BB8
:1058F0004665716947191B1A2F4152531800154309
:10590000647D572A292E5587A59A6C2B28355B7DF7
:105910009E9F523A4E7C747061474D59748DA6B467
:10592000A4845B495C75B17F637BA1986E9391A25F
:105930008569648EB79C857F9A9FB3B7AEB4A7AADA
:10594000DEDDD7E1BCBE9EA5D2EDDBB68F879FA77B
:10595000C8DECCAAB6ABD4F5E6D4AA92A0B9C4C826
:10596000C9B5A690668E8DA5B58C9398B6BCCCBDF6
:10597000B19E93A1A3B0BFC59468435C709972486F
:105980003F558F6265646C6D727586622D372B3260
:1059900043352C3D1114354D482A251C1E07215135
:1059A0007B7037272C31243A4D5736162C65776B90
:1059B0005D3A2619305C7A6157415C636A6D5F5AC3
:1059C00029353996AFA583515C6DA1A3AA867F6C5A
:1059D000678CBADEDDE28E759FD7FCF1F2D3C4A6E8
:1059E000BED8E0E1C0B6A6A59CC5D3EBC6AACBE164
:1059F000EFCED2C4BB8FA9BDC1AF9195848B63801C
:105A00007E777C6986A4C1C0BEAA8E7D6386B6AE51
:105A1000A6928C7A788C92756E695E697BA2AA9642
:105A2000907B617E7B7A6052463A616E5150584855
:105A3000352D4F71846E592F2B2E5C8B8967382939
:105A4000234A475D68605A3A334148536D5E2B10D4
:105A5000142A69867C65562B0E2D5A72645E50544A
:105A600057748D7C653F3140516F8C95997E6F8165
:105A70009B9B8F849CAA9AA2B2C3C7C6A57D6A8746
:105A8000B1D5C1888397B0CCD4D5C99F8D798FC04B
:105A9000E2E0D2C0A29BA8B6BABCA9A6AFC1A9C574
:105AA000DEC0BD9E9FAAB3CEEAF4D2AF98A1BFB725
:105AB000BAA0918A92959593848C74997C6D65793E
:105AC0009E818E7651567B8993683E27212E453ED6
:105AD000505D3C353635485C666638463A5D6E86C4
