:020000040800F2
:1000000000000120C5020008CB020008CF02000852
:1000100041030008450300088D03000800000000AC
:10002000000000000000000000000000D5030008F0
:10003000D903000800000000DD030008E103000808
:10004000F1030008F1030008F1030008F1030008C0
:10005000F1030008F1030008F1030008F1030008B0
:10006000F1030008F1030008F1030008F1030008A0
:10007000F1030008F1030008F1030008F103000890
:10008000F1030008F1030008F1030008000000007C
:10009000000000000000000000000000F103000864
:1000A000F1030008F1030008F1030008F103000860
:1000B000F1030008F1030008F1030008F103000850
:1000C000F1030008F1030008F1030008F103000840
:1000D000F1030008F1030008F1030008000000002C
:1000E000F1030008F1030008F1030008000000001C
:1000F000000000000000000000000000F103000804
:1001000000000000F1030008F1030008F1030008FB
:1001100000000000000000000000000000000000DF
:10012000F1030008F1030008F1030008F1030008DF
:10013000F1030008000000000000000000000000C3
:10014000000000000000000000000000F1030008B3
:10015000F1030008F1030008F1030008F1030008AF
:10016000F1030008F1030008000000000000000097
:10017000000000000000000000000000000000007F
:1001800000000000F1030008000000000000000073
:10019000F103000800B583B000F0BAF9384B394AD2
:1001A0001360394A1360394900E02146384B9942BF
:1001B0000BD20A684B6801F10C0488689842F4D9A4
:1001C0001168196004330432F8E72E4B1A68314B7A
:1001D0009A4200D0FEE72C4B1A682F4B9A42F9D175
:1001E000274B2E4A13602E4A13602E4B05E0002049
:1001F000106004329342FAD80B462B4A934204D241
:10020000194651F8082B5B68F4E7244B1B6813B9B7
:10021000234B1B6803B1FEE700F086F9694601A88D
:1002200000F022F9214C224BE41AA4100025AC4224
:1002300014DC204C204BE41AA4100025AC4213DC43
:100240000099019800F012FD05461C4C1C4BE41A65
:10025000A410002C0EDC284600F0E2F8144B53F8F2
:10026000253098470135E2E7134B53F8253098477E
:100270000135E3E7013C124B53F824309847E8E797
:10028000BABADECA0000002088000020F40300088B
:100290000C04000878563412325476988C000020F2
:1002A000240100200C0400081C0400081C040008A1
:1002B0001C0400081C0400081C0400081C0400089E
:1002C0001C04000808B5FFF765FF00BEFEE71EF03E
:1002D000040F0CBFEFF30880EFF309807146414A29
:1002E00010472DE9F04182B004468846124B5E6B00
:1002F0009F6B9D6A1B6B13F0020F03D00E4BDB6AE2
:10030000002B0CDB0D4800F0B7F8CDF800803B4621
:1003100032462946204600F00BF900BEFEE74BF6B8
:10032000AB6100F07FF90028ECD0034B4FF00042A6
:10033000DA6202B0BDE8F08100ED00E0D4160008FA
:1003400000BEFEE71EF0040F0CBFEFF30880EFF3D2
:1003500009807146244A10472DE9F04182B00446D5
:100360008846084B5E6B9F6B9D6A074800F084F8D7
:10037000CDF800803B4632462946204600F0D8F8AA
:1003800000BEFEE700ED00E0E41600081EF0040FDA
:100390000CBFEFF30880EFF309807146134A104752
:1003A0002DE9F04182B004468846084B5E6B9F6B96
:1003B0009D6A074800F060F8CDF800803B46324661
:1003C0002946204600F0B4F800BEFEE700ED00E04C
:1003D000F016000800BEFEE700BEFEE700BEFEE726
:1003E00070470000E302000859030008A103000859
:0403F00000BEFEE766
:1003F40044170008000000208C0000204417000867
:1004040000000010000000108C00002028010020D3
:080414000000001000000010C0
:10042000FEE7000008B503460C4A12685AB10B4AB1
:100430001068033323F003030344094A934206D8A8
:10044000064A136008BD054A06491160EFE700F04F
:100450003DFC0C2303604FF0FF30F3E790000020D9
:1004600000FC00202801002001230360014B0B60E9
:10047000704700BF040000200FB400B583B004AB88
:1004800053F8042B01938021064800F051FC00280A
:1004900003DD0146034800F037F803B05DF804EBD4
:1004A00004B07047980000202DE9F04385B0044661
:1004B0000F4643560BB10E461EE004252846214642
:1004C000ABBE0446384605B0BDE8F08314F9011B05
:1004D00004AA1A4402F8101C0133AB42F6D304AA52
:1004E0001344002203F8102C4FF00408E94640465C
:1004F0004946ABBE8046761B002EE3D03546102E13
:1005000028BF10250023E8E708B5FFF7CDFF08BD99
:1005100008B500F097F8024A024B9A6008BD00BF88
:100520000000000800ED00E008B500F0ABF808BDE1
:10053000F8B504460D4617461E462748FFF79CFFB0
:1005400021682648FFF798FF61682548FFF794FF68
:10055000A1682448FFF790FFE1682348FFF78CFF6C
:1005600021692248FFF788FF61692148FFF784FF6E
:10057000A1692048FFF780FFE1691F48FFF77CFF72
:100580001E48FFF779FF29461D48FFF775FF1D4CF0
:10059000E16A1D48FFF770FF216B1C48FFF76CFFF5
:1005A000E16B1B48FFF768FF15F0800F0AD115F4C7
:1005B000004F0CD11748FFF75FFF06991648FFF769
:1005C0005BFFF8BD39461548FFF756FFEFE73146A8
:1005D0001348FFF751FFEDE7B8150008C8150008EC
:1005E000D8150008E8150008F815000808160008D6
:1005F00018160008281600083816000848160008C3
:100600005416000800ED00E0641600087416000897
:1006100084160008B4160008BC16000894160008DA
:10062000A416000883691A888A4201D00020704706
:100630000268033A012A03D802338361012070471C
:10064000002070470C4B1A6842F001021A6000212A
:1006500099601A6822F0847222F480321A60074A84
:100660005A601A6822F480221A60D960044B4FF055
:1006700000629A60704700BF0038024010300024CA
:1006800000ED00E0224B9B6803F00C03042B14D018
:10069000082B16D01BB11F4B1F4A1A6002E01D4BDE
:1006A0001D4A1A601A4B9B68C3F303131B4AD15CA3
:1006B000184A1368CB4013607047164B184A1A60EB
:1006C000F0E7134B5A685B6803F03F0312F4800FA6
:1006D00013D0134AB2FBF3F20D4B5B68C3F38813DC
:1006E00003FB02F30A4A5268C2F30142013252008C
:1006F000B3FBF2F3074A1360D4E7074AB2FBF3F205
:10070000034B5B68C3F3881303FB02F3EAE700BF04
:10071000003802400C0000200024F40000170008FC
:1007200040787D01FEE700000023022B00F23581B6
:10073000F0B437E099490D685C001C446200984CA5
:100740002244547866000324B44025EA04040C6073
:100750000C68957856787600B5402C430C609278FA
:10076000012A60D08D4CE6688D4D5A00D71879006B
:1007700029444F784FEA470C032707FA0CF726EA7B
:100780000706E660E66849791044420015446A7835
:10079000520001FA02F23243E2600133DBB2022B73
:1007A00000F2F980184603EB43014A007C498A5C59
:1007B000012A64D0002ABDD0022AEED179490D6801
:1007C0005C001C446200764C22445478660003248A
:1007D000B44025EA04040C600C68957856787600DD
:1007E000B5402C430C609278012A00F0A8806D4C33
:1007F000E6686B4D5A00D718790029444F784FEAC4
:10080000470C032707FA0CF726EA0706E660E668B6
:1008100049791044420015446A78520001FA02F204
:100820003243E260B9E70A464E685D4D5C00E71866
:100830007900294491F801C0012707FA0CF726EA4C
:10084000070656605668CF7891F801C007FA0CF792
:100850003E43566096684F784FEA470C032707FAE5
:100860000CF726EA0706966096680979204444004A
:100870002544687840008140314391608DE74A49C2
:100880000D685C001C446200454C224454786600AC
:100890000324B44025EA04040C600C68957856786B
:1008A0007600B5402C430C609278012A1BD03E4C58
:1008B000E6683B4D5A00D718790029444F784FEA33
:1008C000470C032707FA0CF726EA0706E660E668F6
:1008D00049791044420015446A78520001FA02F244
:1008E0003243E26059E70A464E682D4D5C00E71836
:1008F0007900294491F801C0012707FA0CF726EA8C
:10090000070656605668CF7891F801C007FA0CF7D1
:100910003E43566096684F784FEA470C032707FA24
:100920000CF726EA07069660966809792044440089
:100930002544687840008140314391602DE70A46A4
:100940004E68174D5C00E7187900294491F801C002
:10095000012707FA0CF726EA070656605668CF7893
:1009600091F801C007FA0CF73E43566096684F783D
:100970004FEA470C032707FA0CF726EA07069660AA
:1009800096680979204444002544687840008140F5
:100990003143916001E7F0BC7047704700000240AE
:1009A00010000020000802400004024008B51F2982
:1009B0000AD8012827D068B102283DD0022203219D
:1009C0000120FFF7AFFE04E0032211460120FFF7EC
:1009D000A9FE08BD42B1012A0FD12448436902FA99
:1009E00001F119434161F4E720484369012202FA09
:1009F00001F123EA01014161EBE704220321012017
:100A0000FFF790FEE5E742B1012A0FD1184843698C
:100A100002FA01F119434161DBE7154843690122FC
:100A200002FA01F123EA01014161D2E70422032124
:100A30000120FFF777FECCE742B1012A0FD10D4824
:100A4000436902FA01F119434161C2E70948436968
:100A5000012202FA01F123EA01014161B9E704220E
:100A600003210120FFF75EFEB3E700BF0000024054
:100A7000000402400008024070B5072934D801285C
:100A800016D038B1022821D0022205210120FFF71B
:100A900049FE0CE02F4B186A89000F248C4020EA95
:100AA00004001862186A02FA01F10143196270BD6C
:100AB000294B186A8E000F21B14020EA010119620A
:100AC000186A02FA06F101431962F0E7234B186A2B
:100AD0008D000F21A94020EA01011962186A02FA6B
:100AE00005F101431962E2E7012816D038B1022866
:100AF00021D0022205210120FFF714FED7E7154B74
:100B0000586A8C000F21A14020EA01015962586AFD
:100B100002FA04F101435962C9E70F4B5C6A88008D
:100B20000F21814024EA010159625C6A02FA00F156
:100B300021435962BBE7094B586A89000F248C4056
:100B400020EA04005862586A02FA01F1014359622E
:100B5000ADE700BF00000240000402400008024070
:100B6000024B81221A6000229A60704700380240CE
:100B700008B51F2922D8012810D038B1022815D075
:100B8000002201211046FFF7CDFD1CE00E48036B4B
:100B9000012202FA01F10B43036314E00A48036CDB
:100BA000012202FA01F10B4303640CE00648436C96
:100BB000012202FA01F10B43436404E001221146D1
:100BC0000020FFF7AFFD08BD00380240174B9A7BAD
:100BD00042F004029A739A68342161F31B429A60CE
:100BE0009A68012161F31F729A609A7B6FF3000289
:100BF0009A739A7B6FF3C3029A739A7B6FF3041212
:100C00009A739A7B42F020029A739A7B6FF3861252
:100C10009A73DA7B0A43DA73DA7B42F00402DA73FE
:100C20001A696FF393421A61704700BF00100140C8
:100C3000064B1B6813F0806FFAD0044B1A686FF3F1
:100C40009A621A605868C00D704700BF00100140DA
:100C5000054B5A6860F3DF525A60034B1B6813F070
:100C6000807FFAD0704700BF0010014008B5FFF741
:100C700077FF00210846FFF77BFF04210220FFF7E2
:100C800077FFFFF751FD072209210020FFF7F4FE4F
:100C900007220A210020FFF7EFFEFFF797FF08E089
:100CA000012200210846FFF781FE44F64B70FFF752
:100CB000CFFFFFF7BDFFC0B23128F1D03028F8D107
:100CC000002211461046FFF771FEF2E7014B18684B
:100CD000704700BF2400002030B5141E05469BB0AD
:100CE000184605DA8B232B604FF0FF301BB030BD68
:100CF0004FF40273ADF80C3014BF04F1FF332346F8
:100D0000029305934FF6FF7300910491ADF80E30F6
:100D100002461E9B6946284600F072F8431CBCBF81
:100D20008B232B60002CE1D0009B00221A70DDE7A2
:100D300007B5009313460A46014603480068FFF7CB
:100D4000CBFF03B05DF804FB240000202DE9F04741
:100D50008E689E4282460C469046994637D88A89CC
:100D600012F4906F31D0256809696F1A6569022302
:100D700005EB450595FBF3F509F101033B449D4265
:100D800038BF1D46530530D5294600F07BFB06468B
:100D900050B90C23CAF80030A38943F04003A38163
:100DA0004FF0FF30BDE8F0873A46216900F0F8FACD
:100DB000A38923F4906343F08003A38126616561D6
:100DC0003E44ED1B2660A5604E464E4500D94E467A
:100DD00032464146206800F0EEFAA3689B1BA360F0
:100DE00023681E4426600020DCE72A4600F0A4FBAE
:100DF00006460028E2D12169504600F0F5FAC8E71E
:100E00002DE9F04F9DB0804603938B891D060C465B
:100E100016460FD50B696BB9402100F033FB2060FB
:100E2000206128B90C23C8F800304FF0FF30C7E02C
:100E3000402363610023099320238DF82930302358
:100E40008DF82A304FF0010B37463D4615F8013B2F
:100E50000BB1252B3ED1B7EB060A0BD053463246D9
:100E600021464046FFF772FF013000F0A480099B45
:100E7000534409933B78002B00F09D8000234FF0F2
:100E8000FF32CDE90523049307938DF853301A936D
:100E90002F46052217F8011B4F4800F031FA049B3A
:100EA000D0B9D90644BF20228DF853201A0744BF79
:100EB0002B228DF853202A782A2A15D0079A2F46FC
:100EC00000200A25394611F8013B303B092B4DD94A
:100ED000B8B10FE02F46B8E73F4A801A0BFA00F08E
:100EE000184304903D46D3E7039A111D12680391FD
:100EF000002A01DB079204E0524243F0020307920A
:100F000004933B782E2B0CD17B782A2B33D1039B77
:100F10001A1D1B680392002BB8BF4FF0FF33023736
:100F200005932E4D39780322284600F0E9F938B1AF
:100F30004023401B03FA00F0049B03430137049352
:100F4000397827488DF8281006227E1C00F0D8F941
:100F5000002838D0234B13BB039B073323F0070330
:100F600008330393099B4B4409936DE705FB023259
:100F700001200F46A6E700230137059319460A25ED
:100F8000384610F8012B303A092A03D9002BC8D073
:100F90000591C6E705FB012101230746F0E703ABF6
:100FA00000932246104B04A94046AFF30080B0F1F5
:100FB000FF3F8146D6D1A3895B063FF536AF09983E
:100FC0001DB0BDE8F08F03AB00932246064B04A989
:100FD000404600F081F8EAE71017000816170008ED
:100FE0001A170008000000004D0D00082DE9F04719
:100FF00091461F468A680B69DDF820809342B8BF8E
:101000001346C9F8003091F8432006460C4612B149
:101010000133C9F800302368990642BFD9F800307F
:101020000233C9F80030256815F0060507D104F130
:10103000190AE368D9F800209B1AAB4228DC94F81F
:1010400043302268003318BF012392062DD404F1E7
:10105000430239463046C047013020D02368E56856
:10106000D9F8002003F00603042B08BFAD1AA368CB
:1010700022690CBF25EAE57500259342C4BF9B1A7F
:10108000ED184FF000091A344D451AD1002008E040
:101090000123524639463046C047013003D14FF054
:1010A000FF30BDE8F0870135C3E7E1185A1C302056
:1010B00081F84300224494F8451082F8431002332B
:1010C000C5E70123224639463046C0470130E6D005
:1010D00009F10109D8E700002DE9F04301F1430CC3
:1010E0000C46097E85B06E291746064698460C9A2E
:1010F00000F0B38022D8632936D00AD8002900F046
:10110000B980582900F0838004F1420584F8421028
:1011100032E0642901D06929F6D1206813680506F8
:1011200003F104012AD51B681160002B03DA2D227C
:101130005B4284F843206F480A2239E0732900F0AB
:101140009D8008D86F2920D07029DDD1236843F015
:101150002003236003E0752917D07829D4D17823A0
:1011600084F84530644855E01368191D1B68116008
:1011700004F1420584F8423001238CE01B681160C1
:1011800010F0400F18BF1BB2CFE713682568181D79
:101190001060280601D51B6802E06806FBD51B8895
:1011A00054486F2914BF0A220822002184F84310F2
:1011B0006568A560002DC0F29580216821F00401CA
:1011C0002160002B3DD1002D40F08E806546082A1D
:1011D0000BD12368DB0708D5236962689A42DEBF1A
:1011E000302305F8013C05F1FF35ACEB0503236125
:1011F000CDF800803B4603AA21463046FFF7F6FEB5
:1012000001304DD14FF0FF3005B0BDE8F0833948D3
:1012100084F84510136821681D1D1B6815600A06B7
:101220000BD5CA0744BF41F0200121601BB92268D9
:1012300022F0200222601022B7E74D0648BF9BB281
:10124000EFE76546B3FBF2F102FB1133C35C05F82F
:10125000013D0B460029F5D1B9E71368256861699E
:10126000181D106028061B6801D5196002E06A0687
:10127000FBD51980002323616546B9E71368191D62
:1012800011601D6862680021284600F039F808B135
:10129000401B606063682361002384F84330A7E744
:1012A00023692A4639463046C0470130AAD0236810
:1012B0009B0713D4E068039B9842B8BF1846A3E786
:1012C00001234A4639463046C04701309AD001359D
:1012D000E368039A9B1AAB42F2DCEBE7002504F1CA
:1012E0001909F5E7002BACD1037884F8423004F1FA
:1012F00042056CE7211700083217000800000000C3
:1013000001F0FF01102A2BDB10F0070F08D010F8B6
:10131000013B013A8B422DD010F0070F42B3F6D1BA
:10132000F0B441EA012141EA014122F007047FF0D3
:1013300000070023F0E80256083C85EA010586EA2A
:10134000010685FA47F5A3FA87F586FA47F6A5FA66
:1013500087F68EB9EED1F0BC01F0FF0102F0070272
:1013600032B110F8013B013A83EA010313B1F8D11D
:101370000020704701387047002D06BF35460338FE
:10138000073815F0010F07D1013015F4807F02BF37
:10139000013015F4C03F0130F0BC0138704700BF88
:1013A00010B5431E0A44914200D110BD11F8014B03
:1013B00003F8014FF7E7884210B501EB020307D8A5
:1013C000421E99420AD011F8014B02F8014FF8E78A
:1013D0008342F5D98118D21AD34200D110BD13F837
:1013E000014D01F8014DF7E738B50546002945D014
:1013F00051F8043C0C1F002BB8BFE41800F0D2F8E1
:101400001F4A1368104633B9636014602846BDE86C
:10141000384000F0C8B8A3420CD921686218934242
:1014200004BF1A685B68636004BF521822600460DE
:10143000ECE713465A680AB1A242FAD9196858185B
:10144000A0420BD120680144581882421960DDD1B6
:10145000106852685A6001441960D7E702D90C231A
:101460002B60D3E7206821188A4204BF11685268B4
:10147000626004BF091821605C60C7E738BD00BF27
:101480001801002070B5CD1C25F0030508350C2D82
:1014900038BF0C25002D064601DBA94203D90C23D9
:1014A0003360002070BD00F07DF8214A14682146A9
:1014B00091B9204C23681BB9304600F063F82060D6
:1014C0002946304600F05EF8431C24D10C233360DB
:1014D000304600F068F8E4E70B685B1B18D40B2B70
:1014E0000FD90B60CD50CC18304600F05CF804F1F9
:1014F0000B00231D20F00700C31AD3D05A42E2503C
:10150000D0E78C424B6816BF636013600C46EBE774
:101510000C464968CCE7C41C24F00304A04205D063
:10152000211A304600F02EF80130CFD02560DBE7DD
:10153000180100201C010020F8B5074614460E468D
:1015400021B91146BDE8F840FFF79CBF22B9FFF76B
:101550004BFF25462846F8BD00F026F8A0420FD2E2
:1015600021463846FFF78EFF05460028F2D0314667
:101570002246FFF715FF31463846FFF735FFE9E70A
:101580003546E7E738B5064C002305460846236094
:10159000FEF748FF431C02D1236803B12B6038BD1E
:1015A000200100207047704751F8043C181F002BA1
:1015B000BCBF0B58C0187047537461636B206672D0
:1015C000616D653A0A000000205230203D20202540
:1015D0003038580A00000000205231203D202025DC
:1015E0003038580A00000000205232203D202025CB
:1015F0003038580A00000000205233203D202025BA
:101600003038580A0000000020523132203D202599
:101610003038580A00000000204C52203D20202580
:101620003038580A00000000205043203D2020257B
:101630003038580A0000000020505352203D202529
:101640003038580A000000004653522F4641523AA3
:101650000A0000002043465352203D202025303808
:10166000580A00002048465352203D20202530389B
:10167000580A00002044465352203D20202530388F
:10168000580A00002041465352203D202025303882
:10169000580A0000204D4D464152203D202530384B
:1016A000580A00002042464152203D202025303873
:1016B000580A00004D6973630A000000204C522F45
:1016C0004558435F52455455524E3D2025303858B9
:1016D0000A0000005B486172644661756C745D0AC3
:1016E000000000005B4275734661756C745D0A0012
:1016F0005B55736167654661756C745D0A00000037
:1017000000000000000000000102030406070809B1
:10171000232D302B2000686C4C00656667454647DA
:10172000003031323334353637383941424344455D
:1017300046003031323334353637383961626364CC
:03174000656600DB
:101744007856341294000020000000000024F400B5
:10175400000001000002000902FFFFFF000A02FF6F
:10176400FFFFFFFF28000020000000000000000031
:101774000000000000000000000000000000000065
:101784000000000000000000000000000000000055
:101794000000000000000000000000000000000045
:1017A4000000000000000000000000000000000035
:1017B4000000000000000000000000000000000025
:0C17C40000000000000000003254769885
:040000050800019559
:00000001FF
